:020000040800F2
:10000000000001202D220008F90F0008FB0F000856
:10001000FD0F0008FF0F000801100008000000009D
:1000200000000000000000000000000003100008B5
:100030000510000800000000071000080910000863
:100040007D2200087D2200087D2200087D22000814
:100050007D2200087D2200087D2200087D22000804
:100060007D2200087D2200087D2200087D220008F4
:100070007D2200087D2200087D2200087D220008E4
:100080007D2200087D220008690F00087D220008FB
:100090007D2200087D2200087D2200087D220008C4
:1000A0007D2200087D2200087D2200087D220008B4
:1000B0007D22000800000000000000007D220008F2
:1000C0007D22000800000000000000007D220008E2
:1000D00000000000290F00087D2200080000000039
:1000E0007D2200087D2200080000000000000000C2
:1000F0000000000000000000000000000000000000
:100100000000000000000000000000007D22000848
:1001100000000000000000007D2200087D22000891
:100120007D2200087D2200087D2200087D22000833
:100130007D22000800000000000000000000000018
:100140007D2200084D0F00087D2200087D22000856
:100150007D2200087D2200087D2200087D22000803
:100160007D2200087D2200087D220008000000009A
:100170007D2200087D220008000000000000000031
:0C0180007D2200087D2200087D2200087E
:10018C0010B5054C237833B9044B13B10448AFF3C5
:10019C0000800123237010BD6C03002000000000C0
:1001AC00C822000808B5034B1BB103490348AFF341
:1001BC00008008BD0000000070030020C822000869
:1001CC0010B5084B044618684FF47A73B0FBF3F083
:1001DC0000F06AF8002221464FF0FF3000F030F8B2
:1001EC00002010BD6803002008B5032000F016F8AD
:1001FC000020FFF7E5FF00F04BFE002008BD0000DB
:10020C00024A136801331360704700BF8803002053
:10021C00014B1868704700BF88030020074AD36859
:10022C0023F4E0631B041B0C43F0BF63000243F494
:10023C00003300F4E0600343D360704700ED00E04E
:10024C00174B30B5DC68C4F30224C4F10703251D39
:10025C00042B28BF0423062D4FF0010505FA03F3E8
:10026C0003F1FF338CBF033C00241940A14005FA75
:10027C0004F4013C2240002842EA01024FEA021237
:10028C00AFBF00F1604000F00F00064BD2B2A5BF2B
:10029C0000F56140D2B21A5480F8002330BD00BF83
:1002AC0000ED00E014ED00E00138B0F1807F0AD2DF
:1002BC00064B074A5860F02182F8231000200722D1
:1002CC0098601A6070470120704700BF10E000E092
:1002DC0000ED00E0044B1A6804280CBF42F0040245
:1002EC0022F004021A60704710E000E0704708B575
:1002FC00FFF7FCFF08BD0000024B186800F4C0605B
:10030C00704700BF00700040164B1A68B0F5007FB4
:10031C0002F4C0621AD1B2F5007F13D01A681249E8
:10032C0022F4C06242F400721A60104A1268B2FBE6
:10033C00F1F132224A4312B15969490504D45B697F
:10034C005B050DD400207047013AF4E7B2F5806FDD
:10035C001FBF1A6822F4C06242F480621A60F1E78F
:10036C00032070470070004040420F0068030020DB
:10037C0037B51E4DAB6DDA00044618D5FFF7BCFF40
:10038C00B0F5007F23D1802C29D9A02C8CBF022062
:10039C000120174A136823F0070303431360136803
:1003AC0003F00703181A18BF012003B030BDAB6D62
:1003BC0043F08053AB65AB6D03F080530193019B0D
:1003CC00FFF79AFFAB6D23F08053AB65D8E7802C19
:1003DC0007D808D0A4F1700358425841D9E700203F
:1003EC00D7E70320D5E70220D3E700BF0010024077
:1003FC00002002402F4B9A6812F00C0F10B509D058
:10040C009A6802F00C020C2A2DD1DA6802F0030271
:10041C00012A28D11A682849120755BFD3F894200D
:10042C001A68C2F30322C2F3031251F8222099680E
:10043C0011F00C0F0CBF10460020996801F00C0154
:10044C000C2930D1DC68D868C0F30210411C04F0D0
:10045C000300022819D0032826D0B2FBF1F2D86889
:10046C00C0F3062017E09A6802F00C02042A07D0A9
:10047C009A6802F00C02082A04D110480022DCE72A
:10048C000F48FBE700200246D7E7DA680C48C2F3B6
:10049C000622B0FBF1F0DB68C3F341630133504338
:1004AC005B00B0FBF3F010BDDA680448C2F306221F
:1004BC00EFE700BF00100240F022000800127A00A3
:1004CC000024F40003682DE9F3410546D80639D51C
:1004DC00AB4CA36813F00C0F62D12368990703D5BA
:1004EC00AB690BB901207FE02368286A1A0756BF55
:1004FC00D4F8943023681B0903F0F00383423AD2FA
:10050C00FFF736FF0028EDD1236843F00803236082
:10051C0023682A6A23F0F003134323606368EA69B3
:10052C0023F47F4343EA02236360FFF763FFA3686E
:10053C00944AC3F30313D35CD840934B1860002048
:10054C00FFF73EFE2B68D80761D42B68990700F1A2
:10055C00A9802B681A0700F1E7802B685B0700F174
:10056C0015812B689A0600F17C81AA6A002A40F05A
:10057C00A381002038E0236843F00803236023683C
:10058C0023F0F003034323606368EA6923F47F4399
:10059C0043EA02236360FFF7EBFE0028C5D0A1E716
:1005AC00AB6923B3236843F001032360FFF730FEEC
:1005BC00064623689B0711D5236843F00803236084
:1005CC0023682A6A23F0F003134323606368EA6903
:1005DC0023F47F4343EA02236360B3E7FFF718FE7B
:1005EC00801B0228E5D9032002B0BDE8F081236806
:1005FC0023F001032360FFF70BFE064623689F07D9
:10060C00A0D5FFF705FE801B0228F7D9EBE75C4C61
:10061C00A36803F00C03082B09D0A36803F00C03A8
:10062C000C2B0BD1E36803F00303032B06D12368D7
:10063C009A038AD56B68002B87D153E76B68B3F5A7
:10064C00803F10D1236843F480332360FFF7E0FD33
:10065C00064623689B033FF578AFFFF7D9FD801B57
:10066C006428F6D9BFE7B3F5A02F04D1236843F46F
:10067C0080232360E6E7226822F48032226022681D
:10068C0022F480222260002BE0D1FFF7C1FD064648
:10069C0023689F037FF559AFFFF7BAFD801B6428D1
:1006AC00F6D9A0E7364CA36803F00C03042B09D051
:1006BC00A36803F00C030C2B13D1E36803F00303C2
:1006CC00022B0ED123685E0503D5EB68002B3FF49B
:1006DC0009AF63682A6923F0F85343EA0263636045
:1006EC0037E7EB687BB1236843F480732360FFF733
:1006FC008FFD064623685805EBD4FFF789FD801B58
:10070C000228F7D96FE7236823F480732360FFF77F
:10071C007FFD0646236859057FF51BAFFFF778FD73
:10072C00801B0228F6D95EE76B69154C9BB1D4F897
:10073C00943043F00103C4F89430FFF769FD06468A
:10074C00D4F894309F073FF508AFFFF761FD801B8D
:10075C000228F5D947E7D4F8943023F00103C4F804
:10076C009430FFF755FD0646D4F8943098077FF582
:10077C00F4AEFFF74DFD801B0228F5D933E700BF1F
:10078C0000100240E022000868030020794CA36DA1
:10079C00D90027D4A36D43F08053A365A36D03F058
:1007AC0080530193019B0127734E3368DA051BD5E7
:1007BC00AB68012B29D1D4F8903043F00103C4F875
:1007CC009030FFF725FD41F288380646D4F890307A
:1007DC00980740D5002F3FF4C4AEA36D23F080538F
:1007EC00A365BEE60027DFE7336843F4807333600C
:1007FC00FFF70EFD80463368DB05D9D4FFF708FD03
:10080C00A0EB08000228F6D9EDE6052B06D1D4F8AA
:10081C00903043F00403C4F89030CCE7D4F8902027
:10082C0022F00102C4F89020D4F8902022F00402A7
:10083C00C4F89020002BC4D1FFF7EAFC41F28838B1
:10084C000646D4F890309907C4D5FFF7E1FC801B1D
:10085C004045F6D9C7E6FFF7DBFC801B4045B5D910
:10086C00C1E66B6A434C9BB1D4F8983043F001035A
:10087C00C4F89830FFF7CCFC0646D4F898309B07A8
:10088C003FF573AEFFF7C4FC801B0228F5D9AAE62E
:10089C00D4F8983023F00103C4F89830FFF7B8FC73
:1008AC000646D4F898309F077FF55FAEFFF7B0FC93
:1008BC00801B0228F5D996E62E4CA36803F00C0396
:1008CC000C2B3FF40FAE2368022A23F080732360B5
:1008DC0036D1FFF79DFC0646236898012AD4AB6BF2
:1008EC006A6BDB0643EA0223EA6A13432A6B013A7A
:1008FC0043EA0213EA6B5208013A43EA42532A6C68
:10090C005208013A43EA4263E360236843F0807380
:10091C002360E36843F08073E360FFF779FC0546DE
:10092C00236899013FF525AEFFF772FC401B0228A6
:10093C00F6D958E6FFF76CFC801B0228CCD952E69E
:10094C0023681A015EBFE36823F00303E360E368E6
:10095C0023F0887323F48033E360FFF759FC0546DA
:10096C0023689B017FF505AEFFF752FC401B022864
:10097C00F6D938E60010024000700040564A136861
:10098C0003F007038B422DE9F04105460E462BD3AD
:10099C002B68D90735D429688A0700F183804E4A21
:1009AC00136803F007039E42C0F0848011F0040F1B
:1009BC004A4C40F08A800B0706D5A3682A6923F4B9
:1009CC00605343EAC203A360FFF714FDA368444AD3
:1009DC00C3F30313D35CD840424B18600020FFF7DD
:1009EC00EFFB0020BDE8F081136823F007030B43F5
:1009FC001360136803F007039942C9D00120BDE8C6
:100A0C00F0816A68354C032A23681CD113F0007FEF
:100A1C00F4D0A36823F003031343A360FFF7F8FBA0
:100A2C006B68032B074641F2883818D1A36803F092
:100A3C000C030C2BAFD0FFF7EBFBC01B4045F5D9DB
:100A4C000320BDE8F081022A02D113F4003FDFE756
:100A5C0012B913F0020FDBE713F4806FD8E7022B07
:100A6C000AD1A36803F00C03082B94D0FFF7D0FB3A
:100A7C00C01B4045F5D9E3E773B9A36813F00C0F1D
:100A8C0089D0FFF7C5FBC01B4045F6D9D8E7FFF767
:100A9C00BFFBC01B4045D3D8A36803F00C03042B49
:100AAC00F5D178E70D4AA868936823F0F003034367
:100ABC00936074E7136823F00703334313601368E0
:100ACC0003F007039E4299D170E7A368EA6823F408
:100ADC00E0631343A3606EE7002002400010024065
:100AEC00E022000868030020014B1868704700BF23
:100AFC0068030020474BDA6C42F40052DA64DA6C7B
:100B0C0042F00302DA64444B1A6842F003021A60A2
:100B1C001A6842F00C021A604FF09042136843F4CA
:100B2C00405313603D4B9A68900064D43C4A9368E0
:100B3C0043F480339360394B9A68D10060D5374BBE
:100B4C001A46996811F03F0F99685ED141F0004147
:100B5C0099609368002BFCDB324B00211960936881
:100B6C0043F0010393602D4B1A68D207FCD51A6829
:100B7C0042F001021A605A6842F00C025A601A6B79
:100B8C0000221A63196B41F470711963196B41F4EB
:100B9C0080011963596B41F007015963196B41F0DE
:100BAC0004011963D96CDA64D96C41F40031D9644D
:100BBC00D96C41F43061D964D96C41F00101D9642C
:100BCC00596941F0126141F4922141F4127141F0E2
:100BDC00010159619869144901439961D96841F43B
:100BEC008041D960114B4FF48021C3F8801183F8F8
:100BFC001223196070479A6822F000529A6092E7AB
:100C0C009A6842F080529A6096E741F03001996000
:100C1C0097E700BF00100240000400480000045099
:100C2C00000304508C0300204992240100E100E0F1
:100C3C00064B1A6842F00C021A605A6842F00C0219
:100C4C005A609A6842F004029A607047000004509F
:100C5C00064B1A6842F040021A605A6842F0400291
:100C6C005A609A6842F008029A607047000004507B
:100C7C0038B5174C4FF47A7301210420236000F02F
:100C8C006FFC144A936D43F0005393654FF0904200
:100C9C000025136843F4406313600F4BDA6B42F486
:100CAC008032DA631A6842F480321A601A6A1D6262
:100CBC0021681A6A42EA01421A620121032000F0FB
:100CCC004FFC29460420BDE8384000F049BC00BF69
:100CDC00900300200010024000740040064A136884
:100CEC001844064B10601A6A00221A621A6A42EA09
:100CFC0000401862704700BF900300200074004051
:100D0C00084B1A68101A04BF01221A60064A18BF51
:100D1C001860116A00211162116A1B6841EA0343D1
:100D2C00136270479003002000740040114A936DC9
:100D3C0043F000439365104B1A6942F001021A61AB
:100D4C009A6842F002029A60C0229A610B4A022110
:100D5C002020C2F8881182F841039160084A0021D2
:100D6C00116051609160D16011611A6942F0040206
:100D7C001A61704700100240007C004000E100E066
:100D8C0094030020164B1A680132F92A1A6004D910
:100D9C005A6801325A6000221A605A68B2F57A7F9A
:100DAC0004D39A6801329A6000225A609A683B2AEE
:100DBC0004D9DA680132DA6000229A60DA683B2AD8
:100DCC0004D91A6901321A610022DA601A69172AE9
:100DDC0004D95A6901325A6100221A61704700BF66
:100DEC0094030020004870479403002010B596B07F
:100DFC001023059301230B93B022002305A80C9319
:100E0C000D920F93FFF75EFB00B1FEE70F230190ED
:100E1C00029003900490022168460093FFF7AEFD08
:100E2C0000B1FEE74FF40070FFF76EFA044600B114
:100E3C00FEE7FFF759FE4FF47A73B0FBF3F0FFF7C0
:100E4C0033FA0420FFF746FA224621464FF0FF30D2
:100E5C00FFF7F6F916B010BD08B5FFF7C5F9FFF7A7
:100E6C00C5FF00F0D3F801F019F9FFF75FFFFFF7AA
:100E7C0041FE782000F0B0FFFFF7FAFE00F0F8F822
:100E8C0000F0ECFE00F074FA00F060F9F8E70000F6
:100E9C00214B07B51A6E42F001021A661A6E02F067
:100EAC0001020092009A9A6D42F080529A659B6DF5
:100EBC0003F0805301930320019BFFF7AFF900224D
:100ECC0011466FF00B00FFF7BBF9002211466FF0D3
:100EDC000A00FFF7B5F9002211466FF00900FFF781
:100EEC00AFF9002211466FF00400FFF7A9F90022B8
:100EFC0011466FF00300FFF7A3F9002211466FF0C3
:100F0C000100FFF79DF9002211464FF0FF30FFF76B
:100F1C0097F903B05DF804FB0010024010B5064CC5
:100F2C00064AE36913609B0601D501F029F9236A8F
:100F3C004FF0FF33236210BD00380140B003002096
:100F4C0008B5FFF71FFF044A53686FEA53236FEA93
:100F5C004323536008BD00BF007C004038B5204DD2
:100F6C00204C2B68236059070AD5286C1E4B002196
:100F7C00188080B200F07EFA2B6843F004032B60DB
:100F8C0023681A0706D5164A136843F00803136042
:100F9C0000F044FA23685B0619D5114C124DD4F8B5
:100FAC0080002880012180B200F064FAD4F884001B
:100FBC002880012180B200F05DFA00F045FA236828
:100FCC0043F0400323600021032000F0C9FA044AD7
:100FDC0013686FEAD3236FEAC323136038BD00BFD5
:100FEC0000000450B0030020AE0300207047FEE761
:100FFC00FEE7FEE7FEE770477047704708B5FFF75E
:10100C00FFF8BDE80840FFF772B90000164AD36C30
:10101C0043F00303D364154B1A6822F0C0021A6024
:10102C001A6842F040021A601A6822F440721A6080
:10103C001A6842F480721A604FF09042116821F0E5
:10104C0040411160116841F080411160596921F0F3
:10105C0008015961596921F010015961536923F450
:10106C0000435361704700BF001002400004004869
:10107C00234A24482449F8B500231360234A244DFD
:10108C001360244A1F4613701C46DEB2642E2DD109
:10109C0007B11670C5F82043C0F82043C1F82043AF
:1010AC00FFF7A0FE1C4B18601C4B1C601C4B1C60FB
:1010BC001C4B31221A601C4B01221A601B4B1C80EA
:1010CC001B4B40F20A521A801A4B28221A801A4BD8
:1010DC004FF434721A80194BB3F90020184B1A8054
:1010EC00184BB3F90020184B1A80F8BD45F8234073
:1010FC0040F8234041F8234001270133C5E700BFE6
:10110C00AC13002084100020B4030020300D00200C
:10111C00080A00203C0D0020B4130020D01300203E
:10112C00040A0020400D0020340D0020C8130020BC
:10113C00480D00208010002074100020A875FF1F9F
:10114C00D4130020CA75FF1FCA1300202DE9F84FD5
:10115C0000F0E2FE3E4A136813F0110F144675D1ED
:10116C00590670D59A0608D53A4A3B49D2F820233D
:10117C0023F020030A3A0A802360012813D1374D4B
:10118C00032000F04DFFD5F8201340F23C52914261
:10119C0001D900F09BFDD5F8202340F23B539A4235
:1011AC0001D800F0C7FD23682D4F2E4E13F0800F91
:1011BC003FD12D4A2D4D1388D5F82013DFF8989088
:1011CC00DFF890A0DFF8A8800A3B994293460BD237
:1011DC00B9F80030DAF82023D21AB8F80030023B04
:1011EC009A4201D200F09EFEBBF80030D5F82023C5
:1011FC000A339A4201D900F0D7FEB9F80030DAF878
:10120C002023D21AB8F8003002339A4201D900F0E8
:10121C00CBFE236843F0800323603B685B685A1C59
:10122C00B2F57A7F2ABFA3F2E73332603360BDE8B0
:10123C00F88F3A6851683268914207D123F08003E5
:10124C002360BDE8F88F23F080031360BDE8F88FAE
:10125C00400D0020080A0020C81300208410002034
:10126C00B413002078100020480D0020B403002097
:10127C0080100020F0B5194A194C1A4E0146002373
:10128C0030274FF00A0E072B0CD11749174A0B7059
:10129C000023106033701C46D8B2072816D104B155
:1012AC003070F0BD9142B1FBF2F503F1010388BF40
:1012BC0005F1300CEDB28CBF84F800C0277002FB36
:1012CC001511DBB2B2FBFEF20134DCE7D418C818FE
:1012DC002479447001330124DEE700BF40420F0043
:1012EC00780200203C0D0020DC130020740200204A
:1012FC00F0B50B780778BB424FF0000309D10B4CCB
:10130C001A4623701E460123D5B2AF4203D806B14C
:10131C0025701846F0BD86188D1876786D780132D8
:10132C00AE4218BF00230126EEE700BF3C0D0020A3
:10133C000D49002330B51A460B600446013265682E
:10134C0044F8045BD2B2C72A2B44F7D1074C227065
:10135C00D0F82423C0F81C2313440B60C822B3FB21
:10136C00F2F3C0F8203330BDBC1300203C0D00203C
:10137C0038B5204C23689A071AD51F48FFF7D8FFB9
:10138C001E48FFF7D5FF1E48FFF7D2FF236823F056
:10139C000603236023681B071CD51A48FFF7C8FFF8
:1013AC001948FFF7C5FF236823F00803236038BDF5
:1013BC0013F0040F154A07D101231360FFF738FC13
:1013CC00236843F00403E4E71268042AE2D123F013
:1013DC000403DEE70E4D0F4C2B685A6823689A42C3
:1013EC00E5D00D4B01221A60FFF732FC2B685B68CD
:1013FC00DCE700BF400D0020080A0020841000200C
:10140C00B40300204C0D0020DC060020340D00201D
:10141C00B4130020040A0020B0130020074A1368FC
:10142C0043F002031360064A136801331360054A44
:10143C00536823F00C035360704700BF400D00202D
:10144C00D813002000000450074A136843F0080327
:10145C001360064A136801331360054A536823F07E
:10146C0060035360704700BF400D0020D81300206C
:10147C00000004502C4A1368013310B51360002986
:10148C003BD12A4C2368022B2BD0032B2FD0012BC2
:10149C0026D127490A6801320A60264AC2F8240379
:1014AC0001332360244B1B68642B08D9234B1B6826
:1014BC00642B81BF224A136823F0100313601C4B6A
:1014CC001B68642B0CD91F4B1B68642B08D91E4B53
:1014DC001B68642B81BF1A4A136823F00103136045
:1014EC0010BD18490A6801320A60184AD6E7164935
:1014FC000A6801320A60164AD0E7164A1368012BB3
:10150C0002D0022B0AD010BD0B4C21680131216096
:10151C001149C1F8240301331360C3E7074C216858
:10152C00013121600D49F4E7B8130020340D00207F
:10153C0000140020080A00207C100020440D00201C
:10154C00400D0020C0130020380D0020B4030020F3
:10155C0084100020B01300204C0D0020DC0600206D
:10156C00064A012321B1516983400B4353617047F3
:10157C005169834021EA0303F8E700BF00040048E7
:10158C0008B50378042B18D14378642B15D18378D4
:10159C00632B12D1C378303BDBB2092B0DD8007909
:1015AC003038C0B2092808D803EB830300EB4300A2
:1015BC00C0B200F035FD012008BD002008BD0000C0
:1015CC0010B50378062B2CD14378692B29D183785D
:1015DC00732B26D1C378303BDAB2092A21D804798F
:1015EC00303CE2B2092A1CD84279303AD2B2092AEC
:1015FC0017D881793039C9B2092912D864204443EB
:10160C004FF47A7000FB03430B440A2111FB0233A5
:10161C0040F6F701044A8B428CBF118013800120E5
:10162C0010BD002010BD00BF8010002010B5037845
:10163C00062B2CD14378762B29D18378732B26D18A
:10164C00C378303BDAB2092A21D80479303CE2B2B3
:10165C00092A1CD84279303AD2B2092A17D8817992
:10166C003039C9B2092912D8642044434FF47A7036
:10167C0000FB03430B440A2111FB023340F6994152
:10168C00044A8B428CBF11801380012010BD0020B6
:10169C0010BD00BF480D0020034A0448136823F016
:1016AC000403136000F052BD400D002052020020D4
:1016BC0038B51048104D114C00F048FD104BD3F8C4
:1016CC002003FFF7D7FD284600F040FD204600F030
:1016DC003DFD0C4800F03AFD0B4BD3F82003FFF70F
:1016EC00C9FD284600F032FD2046BDE8384000F028
:1016FC002DBD00BF84000020DC130020E70000207B
:10170C004C0D0020A5000020DC06002070B5264EF4
:10171C00264D274CF06AFFF7ADFD284600F016FD6C
:10172C00204600F013FD706BFFF7A4FD284600F077
:10173C000DFD204600F00AFDB06BFFF79BFD28461F
:10174C0000F004FD204600F001FDB069FFF792FDAA
:10175C00284600F0FBFC204600F0F8FCF069FFF78F
:10176C0089FD284600F0F2FC204600F0EFFC306AC0
:10177C00FFF780FD284600F0E9FC204600F0E6FC6F
:10178C003068FFF777FD284600F0E0FC204600F0BB
:10179C00DDFC706AFFF76EFD284600F0D7FC204692
:1017AC00BDE8704000F0D2BC002C0140DC130020DE
:1017BC00E7000020F8B51F4F1F4E204D204C384637
:1017CC0000F0C4FC1F4BD6F820031B88C01AFFF78F
:1017DC0051FD284600F0BAFC204600F0B7FC384614
:1017EC0000F0B4FCD6F82003FFF744FD284600F0C7
:1017FC00ADFC204600F0AAFC134800F0A7FC134BEC
:10180C00D3F82003FFF736FD284600F09FFC204656
:10181C0000F09CFC0E4800F099FC0E4BD3F8200312
:10182C00FFF728FD284600F091FC2046BDE8F84063
:10183C0000F08CBC63000020080A0020DC130020A0
:10184C00E7000020C8130020C6000020B4030020CD
:10185C00A50000208410002070B51B4E1B4D336872
:10186C001B4C1868FFF706FD284600F06FFC20465D
:10187C0000F06CFC33685868FFF7FCFC284600F05D
:10188C0065FC204600F062FC33689868FFF7F2FCB8
:10189C00284600F05BFC204600F058FC3368D86802
:1018AC00FFF7E8FC284600F051FC204600F04EFC07
:1018BC0033681869FFF7DEFC284600F047FC204629
:1018CC00BDE8704000F042BCB4130020DC130020D3
:1018DC00E700002038B51548154D164C00F036FCC5
:1018EC00154B1868FFF7C6FC284600F02FFC204665
:1018FC0000F02CFC114800F029FC114B1868FFF784
:10190C00B9FC284600F022FC204600F01FFC0D48D4
:10191C0000F01CFC0C4B1868FFF7ACFC284600F0E0
:10192C0015FC2046BDE8384000F010BC63000020D8
:10193C00DC130020E700002000140020C60000206B
:10194C00C0130020A5000020380D002038B50C4B2A
:10195C000C4D18680C4CFFF78DFC284600F0F6FB7C
:10196C00204600F0F3FB094B1868FFF783FC284670
:10197C0000F0ECFB2046BDE8384000F0E7BB00BFB0
:10198C00400D0020DC130020E7000020340D002067
:10199C0038B5114B114D1868114CFFF76BFC2846EC
:1019AC0000F0D4FB204600F0D1FB0E4B1868FFF77B
:1019BC0061FC284600F0CAFB204600F0C7FB0A4B2E
:1019CC00186BFFF757FC284600F0C0FB2046BDE81B
:1019DC00384000F0BBBB00BFB8130020DC13002064
:1019EC00E7000020D81300200000045038B50F4841
:1019FC000F4D104C00F0AAFB0F4B1868FFF73AFC88
:101A0C00284600F0A3FB204600F0A0FB0B4800F09A
:101A1C009DFB0B4B1868FFF72DFC284600F096FB3E
:101A2C002046BDE8384000F091BB00BF8400002088
:101A3C00DC130020E70000207C100020A500002013
:101A4C00440D002008B5064B186BFFF713FC054836
:101A5C0000F07CFB0448BDE8084000F077BB00BFF9
:101A6C0000740040DC130020E700002010B5044691
:101A7C00634800F06BFB63492046FFF739FC08B163
:101A8C00FFF744FE60492046FFF732FC08B1FFF730
:101A9C0091FE5E492046FFF72BFC08B1FFF7DCFEF8
:101AAC005B492046FFF724FC08B1FFF713FF5949A7
:101ABC002046FFF71DFC08B1FFF798FF564920465A
:101ACC00FFF716FC08B1FFF741FF54492046FFF71A
:101ADC000FFC08B1FFF7E0FD51492046FFF708FC69
:101AEC0008B1FFF755FF4F492046FFF701FC08B13D
:101AFC00FFF7DEFD4C492046FFF7FAFB20B100F062
:101B0C0011FA4A4800F022FB49492046FFF7F0FB46
:101B1C0020B100F0DBF8454800F018FB45492046A1
:101B2C00FFF7E6FB20B100F005F9404800F00EFB92
:101B3C0041492046FFF7DCFB20B100F02FF93B4870
:101B4C0000F004FB3D492046FFF7D2FB20B100F02A
:101B5C00C5F9364800F0FAFA2046FFF711FD10B12E
:101B6C00324800F0F3FA2046FFF72AFD10B12F4857
:101B7C0000F0ECFA2046FFF759FD10B12B4800F0AD
:101B8C00E5FA2F492046FFF7B3FB28B1C820FFF731
:101B9C00A5F8264800F0DAFA2A492046FFF7A8FBF8
:101BAC0028B1C820FFF7ACF8204800F0CFFA26493E
:101BBC002046FFF79DFB08B1FFF744FF2349204661
:101BCC00FFF796FB38B1224A1848136843F04003DC
:101BDC00136000F0BBFA1F492046FFF789FB38B1B0
:101BEC001B4A1248136823F04003136000F0AEFA4E
:101BFC00034800F0ABFA1848BDE8104000F0A6BA54
:101C0C00E7000020250300204603002004030020E9
:101C1C0000000020C202002010020020EF01002072
:101C2C0008010020E30200208C0100205202002059
:101C3C004200002021000020310200208002002000
:101C4C006B010020290100204A010020CE01002058
:101C5C00400D0020AD010020A102002008B500F0CD
:101C6C00D9FA064B1870430707D500F0C7FA044B96
:101C7C001860BDE80840FFF7F9BE08BDCC13002082
:101C8C00041400200F49D1F8883043F47003C1F8D4
:101C9C0088300D4B1A68002042F001021A609860DF
:101CAC001A6822F0A85222F410221A604FF48052C3
:101CBC00DA601A6822F480221A6098614FF000638F
:101CCC008B60704700ED00E000100240154B0422C1
:101CDC0010B51A70144B154C1A6C154A0021196466
:101CEC00186C126810431864D86BD9632468D86BCD
:101CFC0002EB44020243DA639A6999619A6942F4ED
:101D0C0080429A619A6942F040029A61DA69D9611B
:101D1C00DA6942F4C042DA61DA6942F06002DA61EF
:101D2C0010BD00BF10140020002C01400C1400202A
:101D3C0018140020154B032210B51A70144B0021F7
:101D4C005A6B144A59631068134A5C6B126800EBA7
:101D5C00420222435A639A6B99639A6B10439863BD
:101D6C009A6999619A6942F4A0429A619A6942F01F
:101D7C0060029A61DA69D961DA6942F4A042DA61E7
:101D8C00DA6942F05002DA6110BD00BF1014002075
:101D9C00002C0140181400200C1400200C4B0122C4
:101DAC001A700C4B00219A6999619A6942F4A0420D
:101DBC009A619A6942F040029A61DA69D961DA69EA
:101DCC0042F48042DA61DA6942F05002DA6170471B
:101DDC0010140020002C014038B53A4A3A4C4BF212
:101DEC00987313604000B3FBF0F32360374B384813
:101DFC001A6E42F400621A66DA6C42F00102DA647E
:101E0C004FF0904300251A6822F440321A601A6889
:101E1C0042F400321A601A6822F440221A601A68DE
:101E2C0042F400221A601A6822F440121A601A68EE
:101E3C0042F400121A601A6822F440021A601A68FE
:101E4C0042F400021A605A6A42F001025A625A6A5B
:101E5C0042F010025A625A6A42F480725A625A6A0A
:101E6C0042F480525A62036A0562FFF797FF2368B7
:101E7C00C3626422B3FBF2F3164A01331360164BB0
:101E8C001D70036A43F001030362036A43F01003FD
:101E9C000362036A43F480730362036A43F480535E
:101EAC000362036A43F400730362436C43F400431C
:101EBC004364036843F060030360036843F0010369
:101ECC00036038BD1C1400201414002000100240C4
:101EDC00002C01400C140020081400200C4B022292
:101EEC001A700C4B00219A6999619A6942F48042EC
:101EFC009A619A6942F040029A61DA69D961DA69A9
:101F0C0042F4A042DA61DA6942F05002DA617047B9
:101F1C0010140020002C0140014B1878704700BFB2
:101F2C00101400201A4B1B491B4A1868096830B55D
:101F3C00146843000139651CC91A8D42156008BF2D
:101F4C0014601168154AB1FBF0F01070144A127845
:101F5C00032A0DD1134A506B00205063546B0B4471
:101F6C0023435363936B9063936B1943916330BD1D
:101F7C00042A0CD10B4AD06B0020D063D46B0B44D9
:101F8C002343D363136C1064136C1943116430BD79
:101F9C000C14002014140020181400200814002025
:101FAC0010140020002C0140184B1A68013A08BF8D
:101FBC00012210B51A601968154A164B1B68B1FB43
:101FCC00F3F01070144A1278032A0ED1134A506B96
:101FDC0000205063546B01EB430323435363936B17
:101FEC009063936B1943916310BD042A0DD10B4A76
:101FFC00D06B0020D063D46B01EB43032343D3633A
:10200C00136C1064136C1943116410BD1814002068
:10201C00081400200C14002010140020002C014087
:10202C00831E612B10B52ED8174B1870174B1B78CD
:10203C00032B13D1164B1A68164B50431860164BD2
:10204C00596B002159635C6B00EB420222435A63CB
:10205C009A6B99639A6B1043986310BD042B12D141
:10206C000B4B19680B4B484318600B4B00241A6C34
:10207C001C641A6C02431A64DA6BDC63DA6B00EBD7
:10208C0041001043D86310BD081400201014002028
:10209C000C14002018140020002C0140244B1A6E44
:1020AC0042F4804210B51A66DA6C42F00202DA642D
:1020BC00204B1A6822F440521A601A6842F40052FB
:1020CC001A601A6822F440421A601A6842F40042FC
:1020DC001A601A6A42F0E0621A621A6A42F0E0422E
:1020EC001A62154B1A6842F02C021A600021DA6849
:1020FC00D960DA6842F4CF7242F00102DA600F4A1A
:10210C0020201024C2F8840182F8254350601A68FC
:10211C0042F001021A6011221A85094B094A197002
:10212C00094B1970137843F00503137010BD00BFF1
:10213C0000100240000400480038014000E100E0BB
:10214C002814002020140020291400200A4A0023FF
:10215C0030B513700578094C19469D4202D801B16F
:10216C00137030BD10F8011F2185E1690906FCD5FB
:10217C000133DBB20121F0E72814002000380140C4
:10218C001948838CDBB2A3F120025E2AF0B50DD87E
:10219C0016490A788C18013263709BB20A70038559
:1021AC00114A136A43F020031362F0BD0D2BF7D1D3
:1021BC000E4A0F4915780F4C00230B701E46DFB2E8
:1021CC000133581EC0B285420AD806B10F700023E5
:1021DC001370094A2570137843F004031370DFE77A
:1021EC00D05CE0540126EAE7003801405814002086
:1021FC00791400203014002020140020034A0448D5
:10220C00137823F004031370704700BF20140020D0
:10221C0030140020014B1878704700BF20140020A8
:10222C00DFF834D0002103E00C4B5B5843500431F1
:10223C000B480C4B42189A42F6D30B4A02E000238F
:10224C0042F8043B094B9A42F9D3FFF71BFD00F00F
:10225C0011F8FEF701FEFEE700000120282300081C
:10226C00000000206C0300206C0300207C14002074
:10227C00FEE7000070B50D4E0D4CA41BA4100025FC
:10228C00A54209D10B4E0C4C00F018F8A41BA4105D
:10229C000025A54205D170BD56F82530984701356B
:1022AC00EEE756F8253098470135F2E72023000871
:1022BC00202300082023000824230008F8B500BFC1
:1022CC00F8BC08BC9E467047F8B500BFF8BC08BC0B
:0422DC009E46704763
:1022E00000000000000000000102030406070809C6
:1022F000A0860100400D0300801A060000350C0086
:1023000040420F0080841E0000093D0000127A0048
:102310000024F40000366E010048E801006CDC0285
:04232000B1010008FF
:042324008D0100081F
:102328000462616E6B000000000000000000000005
:102338000000000000000000000000000000000095
:102348000005626F6F737400000000000000000059
:102358000000000000000000000000000000000075
:102368000000046275636B000000000000000000BC
:102378000000000000000000000000000000000055
:1023880000000003433A20000000000000000000A5
:102398000000000000000000000000000000000035
:1023A8000000000003453A20000000000000000083
:1023B8000000000000000000000000000000000015
:1023C800000000000003493A20000000000000005F
:1023D80000000000000000000000000000000000F5
:1023E800000000000000034F3A2000000000000039
:1023F80000000000000000000000000000000000D5
:1024080000000000000000020A0D000000000000AB
:1024180000000000000000000000000000000000B4
:10242800000000000000000004636F6E76000000EA
:102438000000000000000000000000000000000094
:1024480000000000000000000005646163646E0085
:102458000000000000000000000000000000000074
:102468000000000000000000000006646163727054
:1024780074000000000000000000000000000000E0
:1024880000000000000000000000000564616375A2
:1024980070000000000000000000000000000000C4
:1024A8000000000000000000000000000364632B2F
:1024B8000000000000000000000000000000000014
:1024C8000000000000000000000000000006647228
:1024D800766469730000000000000000000000003E
:1024E800000000000000000000000000000005647B
:1024F8007276656E00000000000000000000000019
:1025080000000000000000000000000000000005BE
:10251800666C636C720000000000000000000000A0
:1025280000000000000000000000000000000000A3
:1025380004666C61670000000000000000000000F5
:102548000000000000000000000000000000000083
:1025580000046C6F636B00000000000000000000C6
:102568000000000000000000000000000000000063
:10257800000001240000000000000000000000002E
:102588000000000000000000000000000000000043
:1025980000000000000000003030303030303000E3
:1025A8000470617373000000000000000000000068
:1025B8000000000000000000000000000000000013
:1025C800000B4445564053544D33323A2000000026
:1025D80000000000000000000000000000000000F3
:1025E8000000057462616E6B0000000000000000CE
:1025F80000000000000000000000000000000000D3
:102608000000000474656D70000000000000000008
:1026180000000000000000000000000000000000B2
:10262800000000000474696D6500000000000000EF
:102638000000000000000000000000000000000092
:1026480000000000000474696D3100000000000003
:102658000000000000000000000000000000000072
:1026680000000000000004766F6C74000000000099
:102678000000000000000000000000000000000052
:0C268800000000000000000000093D0000
:040000050800222DA0
:00000001FF
