:020000040800F2
:100000000000012085220008E90F0008EB0F00081E
:10001000ED0F0008EF0F0008F10F000800000000CE
:10002000000000000000000000000000F30F0008C6
:10003000F50F000800000000F70F0008F90F000896
:10004000D5220008D5220008D5220008D5220008B4
:10005000D5220008D5220008D5220008D5220008A4
:10006000D5220008D5220008D5220008D522000894
:10007000D5220008D5220008D5220008D522000884
:10008000D5220008D5220008590F0008D522000803
:10009000D5220008D5220008D5220008D522000864
:1000A000D5220008D5220008D5220008D522000854
:1000B000D52200080000000000000000D522000842
:1000C000D52200080000000000000000D522000832
:1000D00000000000190F0008D522000800000000F1
:1000E000D5220008D5220008000000000000000012
:1000F0000000000000000000000000000000000000
:10010000000000000000000000000000D5220008F0
:100110000000000000000000D5220008D5220008E1
:10012000D5220008D5220008D5220008D5220008D3
:10013000D5220008000000000000000000000000C0
:10014000D52200083D0F0008D5220008D52200085E
:10015000D5220008D5220008D5220008D5220008A3
:10016000D5220008D5220008D52200080000000092
:10017000D5220008D5220008000000000000000081
:0C018000D5220008D5220008D522000876
:10018C0010B5054C237833B9044B13B10448AFF3C5
:10019C0000800123237010BDB0030020000000007C
:1001AC002023000808B5034B1BB103490348AFF3E8
:1001BC00008008BD00000000B403002020230008CC
:1001CC0010B5084B044618684FF47A73B0FBF3F083
:1001DC0000F06AF8002221464FF0FF3000F030F8B2
:1001EC00002010BDAC03002008B5032000F016F869
:1001FC000020FFF7E5FF00F043FE002008BD0000E3
:10020C00024A136801331360704700BFCC0300200F
:10021C00014B1868704700BFCC030020074AD36815
:10022C0023F4E0631B041B0C43F0BF63000243F494
:10023C00003300F4E0600343D360704700ED00E04E
:10024C00174B30B5DC68C4F30224C4F10703251D39
:10025C00042B28BF0423062D4FF0010505FA03F3E8
:10026C0003F1FF338CBF033C00241940A14005FA75
:10027C0004F4013C2240002842EA01024FEA021237
:10028C00AFBF00F1604000F00F00064BD2B2A5BF2B
:10029C0000F56140D2B21A5480F8002330BD00BF83
:1002AC0000ED00E014ED00E00138B0F1807F0AD2DF
:1002BC00064B074A5860F02182F8231000200722D1
:1002CC0098601A6070470120704700BF10E000E092
:1002DC0000ED00E0044B1A6804280CBF42F0040245
:1002EC0022F004021A60704710E000E0704708B575
:1002FC00FFF7FCFF08BD0000024B186800F4C0605B
:10030C00704700BF00700040164B1A68B0F5007FB4
:10031C0002F4C0621AD1B2F5007F13D01A681249E8
:10032C0022F4C06242F400721A60104A1268B2FBE6
:10033C00F1F132224A4312B15969490504D45B697F
:10034C005B050DD400207047013AF4E7B2F5806FDD
:10035C001FBF1A6822F4C06242F480621A60F1E78F
:10036C00032070470070004040420F00AC03002097
:10037C0037B51E4DAB6DDA00044618D5FFF7BCFF40
:10038C00B0F5007F23D1802C29D9A02C8CBF022062
:10039C000120174A136823F0070303431360136803
:1003AC0003F00703181A18BF012003B030BDAB6D62
:1003BC0043F08053AB65AB6D03F080530193019B0D
:1003CC00FFF79AFFAB6D23F08053AB65D8E7802C19
:1003DC0007D808D0A4F1700358425841D9E700203F
:1003EC00D7E70320D5E70220D3E700BF0010024077
:1003FC00002002402F4B9A6812F00C0F10B509D058
:10040C009A6802F00C020C2A2DD1DA6802F0030271
:10041C00012A28D11A682849120755BFD3F894200D
:10042C001A68C2F30322C2F3031251F8222099680E
:10043C0011F00C0F0CBF10460020996801F00C0154
:10044C000C2930D1DC68D868C0F30210411C04F0D0
:10045C000300022819D0032826D0B2FBF1F2D86889
:10046C00C0F3062017E09A6802F00C02042A07D0A9
:10047C009A6802F00C02082A04D110480022DCE72A
:10048C000F48FBE700200246D7E7DA680C48C2F3B6
:10049C000622B0FBF1F0DB68C3F341630133504338
:1004AC005B00B0FBF3F010BDDA680448C2F306221F
:1004BC00EFE700BF001002404823000800127A004A
:1004CC000024F40003682DE9F3410546D80639D51C
:1004DC00AB4CA36813F00C0F62D12368990703D5BA
:1004EC00AB690BB901207FE02368286A1A0756BF55
:1004FC00D4F8943023681B0903F0F00383423AD2FA
:10050C00FFF736FF0028EDD1236843F00803236082
:10051C0023682A6A23F0F003134323606368EA69B3
:10052C0023F47F4343EA02236360FFF763FFA3686E
:10053C00944AC3F30313D35CD840934B1860002048
:10054C00FFF73EFE2B68D80761D42B68990700F1A2
:10055C00A9802B681A0700F1E7802B685B0700F174
:10056C0015812B689A0600F17C81AA6A002A40F05A
:10057C00A381002038E0236843F00803236023683C
:10058C0023F0F003034323606368EA6923F47F4399
:10059C0043EA02236360FFF7EBFE0028C5D0A1E716
:1005AC00AB6923B3236843F001032360FFF730FEEC
:1005BC00064623689B0711D5236843F00803236084
:1005CC0023682A6A23F0F003134323606368EA6903
:1005DC0023F47F4343EA02236360B3E7FFF718FE7B
:1005EC00801B0228E5D9032002B0BDE8F081236806
:1005FC0023F001032360FFF70BFE064623689F07D9
:10060C00A0D5FFF705FE801B0228F7D9EBE75C4C61
:10061C00A36803F00C03082B09D0A36803F00C03A8
:10062C000C2B0BD1E36803F00303032B06D12368D7
:10063C009A038AD56B68002B87D153E76B68B3F5A7
:10064C00803F10D1236843F480332360FFF7E0FD33
:10065C00064623689B033FF578AFFFF7D9FD801B57
:10066C006428F6D9BFE7B3F5A02F04D1236843F46F
:10067C0080232360E6E7226822F48032226022681D
:10068C0022F480222260002BE0D1FFF7C1FD064648
:10069C0023689F037FF559AFFFF7BAFD801B6428D1
:1006AC00F6D9A0E7364CA36803F00C03042B09D051
:1006BC00A36803F00C030C2B13D1E36803F00303C2
:1006CC00022B0ED123685E0503D5EB68002B3FF49B
:1006DC0009AF63682A6923F0F85343EA0263636045
:1006EC0037E7EB687BB1236843F480732360FFF733
:1006FC008FFD064623685805EBD4FFF789FD801B58
:10070C000228F7D96FE7236823F480732360FFF77F
:10071C007FFD0646236859057FF51BAFFFF778FD73
:10072C00801B0228F6D95EE76B69154C9BB1D4F897
:10073C00943043F00103C4F89430FFF769FD06468A
:10074C00D4F894309F073FF508AFFFF761FD801B8D
:10075C000228F5D947E7D4F8943023F00103C4F804
:10076C009430FFF755FD0646D4F8943098077FF582
:10077C00F4AEFFF74DFD801B0228F5D933E700BF1F
:10078C000010024038230008AC030020794CA36D04
:10079C00D90027D4A36D43F08053A365A36D03F058
:1007AC0080530193019B0127734E3368DA051BD5E7
:1007BC00AB68012B29D1D4F8903043F00103C4F875
:1007CC009030FFF725FD41F288380646D4F890307A
:1007DC00980740D5002F3FF4C4AEA36D23F080538F
:1007EC00A365BEE60027DFE7336843F4807333600C
:1007FC00FFF70EFD80463368DB05D9D4FFF708FD03
:10080C00A0EB08000228F6D9EDE6052B06D1D4F8AA
:10081C00903043F00403C4F89030CCE7D4F8902027
:10082C0022F00102C4F89020D4F8902022F00402A7
:10083C00C4F89020002BC4D1FFF7EAFC41F28838B1
:10084C000646D4F890309907C4D5FFF7E1FC801B1D
:10085C004045F6D9C7E6FFF7DBFC801B4045B5D910
:10086C00C1E66B6A434C9BB1D4F8983043F001035A
:10087C00C4F89830FFF7CCFC0646D4F898309B07A8
:10088C003FF573AEFFF7C4FC801B0228F5D9AAE62E
:10089C00D4F8983023F00103C4F89830FFF7B8FC73
:1008AC000646D4F898309F077FF55FAEFFF7B0FC93
:1008BC00801B0228F5D996E62E4CA36803F00C0396
:1008CC000C2B3FF40FAE2368022A23F080732360B5
:1008DC0036D1FFF79DFC0646236898012AD4AB6BF2
:1008EC006A6BDB0643EA0223EA6A13432A6B013A7A
:1008FC0043EA0213EA6B5208013A43EA42532A6C68
:10090C005208013A43EA4263E360236843F0807380
:10091C002360E36843F08073E360FFF779FC0546DE
:10092C00236899013FF525AEFFF772FC401B0228A6
:10093C00F6D958E6FFF76CFC801B0228CCD952E69E
:10094C0023681A015EBFE36823F00303E360E368E6
:10095C0023F0887323F48033E360FFF759FC0546DA
:10096C0023689B017FF505AEFFF752FC401B022864
:10097C00F6D938E60010024000700040564A136861
:10098C0003F007038B422DE9F04105460E462BD3AD
:10099C002B68D90735D429688A0700F183804E4A21
:1009AC00136803F007039E42C0F0848011F0040F1B
:1009BC004A4C40F08A800B0706D5A3682A6923F4B9
:1009CC00605343EAC203A360FFF714FDA368444AD3
:1009DC00C3F30313D35CD840424B18600020FFF7DD
:1009EC00EFFB0020BDE8F081136823F007030B43F5
:1009FC001360136803F007039942C9D00120BDE8C6
:100A0C00F0816A68354C032A23681CD113F0007FEF
:100A1C00F4D0A36823F003031343A360FFF7F8FBA0
:100A2C006B68032B074641F2883818D1A36803F092
:100A3C000C030C2BAFD0FFF7EBFBC01B4045F5D9DB
:100A4C000320BDE8F081022A02D113F4003FDFE756
:100A5C0012B913F0020FDBE713F4806FD8E7022B07
:100A6C000AD1A36803F00C03082B94D0FFF7D0FB3A
:100A7C00C01B4045F5D9E3E773B9A36813F00C0F1D
:100A8C0089D0FFF7C5FBC01B4045F6D9D8E7FFF767
:100A9C00BFFBC01B4045D3D8A36803F00C03042B49
:100AAC00F5D178E70D4AA868936823F0F003034367
:100ABC00936074E7136823F00703334313601368E0
:100ACC0003F007039E4299D170E7A368EA6823F408
:100ADC00E0631343A3606EE7002002400010024065
:100AEC0038230008AC030020014B1868704700BF86
:100AFC00AC030020474BDA6C42F40052DA64DA6C37
:100B0C0042F00302DA64444B1A6842F003021A60A2
:100B1C001A6842F00C021A604FF09042136843F4CA
:100B2C00405313603D4B9A68900064D43C4A9368E0
:100B3C0043F480339360394B9A68D10060D5374BBE
:100B4C001A46996811F03F0F99685ED141F0004147
:100B5C0099609368002BFCDB324B00211960936881
:100B6C0043F0010393602D4B1A68D207FCD51A6829
:100B7C0042F001021A605A6842F00C025A601A6B79
:100B8C0000221A63196B41F470711963196B41F4EB
:100B9C0080011963596B41F007015963196B41F0DE
:100BAC0004011963D96CDA64D96C41F4C031D9648D
:100BBC00D96C41F43061D964D96C41F00101D9642C
:100BCC00596941F0126141F4922141F4127141F0E2
:100BDC00010159619869144901439961D96841F43B
:100BEC008041D960114B4FF48021C3F8801183F8F8
:100BFC001223196070479A6822F000529A6092E7AB
:100C0C009A6842F080529A6096E741F03001996000
:100C1C0097E700BF00100240000400480000045099
:100C2C0000030450D00300204992240100E100E0AD
:100C3C00064B1A6842F00C021A605A6842F00C0219
:100C4C005A609A6842F004029A607047000004509F
:100C5C00064B1A6842F040021A605A6842F0400291
:100C6C005A609A6842F008029A607047000004507B
:100C7C000F4B4FF47A721A600E4A936D43F0005387
:100C8C0093654FF09042136843F4406313600A4B32
:100C9C00DA6B42F48032DA631A6842F480321A60FA
:100CAC001A6A00221A621A6A42F07A721A62704741
:100CBC00D403002000100240007400400A4B1A6854
:100CCC001044B0F5805F24BF40F6FF721A60074AEB
:100CDC0038BF1860116A00211162116A1B6841EA61
:100CEC0003431362704700BFD4030020007400401C
:100CFC00084B1A68101A04BF01221A60064A18BF62
:100D0C001860116A00211162116A1B6841EA0343E1
:100D1C0013627047D403002000740040114A936D95
:100D2C0043F000439365104B1A6942F001021A61BB
:100D3C009A6842F002029A60C0229A610B4A022120
:100D4C002020C2F8881182F841039160084A0021E2
:100D5C00116051609160D16011611A6942F0040216
:100D6C001A61704700100240007C004000E100E076
:100D7C00D8030020164B1A680132F92A1A6004D9DC
:100D8C005A6801325A6000221A605A68B2F57A7FAA
:100D9C0004D39A6801329A6000225A609A683B2AFE
:100DAC0004D9DA680132DA6000229A60DA683B2AE8
:100DBC0004D91A6901321A610022DA601A69172AF9
:100DCC0004D95A6901325A6100221A61704700BF76
:100DDC00D803002000487047D803002010B596B007
:100DEC001023059301230B93B022002305A80C9329
:100DFC000D920F93FFF766FB00B1FEE70F230190F6
:100E0C00029003900490022168460093FFF7B6FD10
:100E1C0000B1FEE74FF40070FFF776FA044600B11C
:100E2C00FEE7FFF761FE4FF47A73B0FBF3F0FFF7C8
:100E3C003BFA0420FFF74EFA224621464FF0FF30D2
:100E4C00FFF7FEF916B010BD08B5FFF7CDF9FFF7A7
:100E5C00C5FF00F0D3F801F04DF9FFF75FFFFFF786
:100E6C0049FE782001F030F8FFF702FF00F004F99A
:100E7C0000F074FF00F0A6FA00F072F9F8E7000039
:100E8C00214B07B51A6E42F001021A661A6E02F077
:100E9C0001020092009A9A6D42F080529A659B6D05
:100EAC0003F0805301930320019BFFF7B7F9002255
:100EBC0011466FF00B00FFF7C3F9002211466FF0DB
:100ECC000A00FFF7BDF9002211466FF00900FFF789
:100EDC00B7F9002211466FF00400FFF7B1F90022B8
:100EEC0011466FF00300FFF7ABF9002211466FF0CB
:100EFC000100FFF7A5F9002211464FF0FF30FFF774
:100F0C009FF903B05DF804FB0010024010B5064CCD
:100F1C00064AE36913609B0601D501F05DF9236A6B
:100F2C004FF0FF33236210BD00380140F403002062
:100F3C0008B5FFF71FFF044A53686FEA53236FEAA3
:100F4C004323536008BD00BF007C004038B5204DE2
:100F5C00204C2B68236059070AD5286C1E4B0021A6
:100F6C00188080B200F0B0FA2B6843F004032B60B9
:100F7C0023681A0706D5164A136843F00803136052
:100F8C0000F076FA23685B0619D5114C124DD4F893
:100F9C0080002880012180B200F096FAD4F88400F9
:100FAC002880012180B200F08FFA00F077FA2368D4
:100FBC0043F0400323600021032000F0FBFA044AB5
:100FCC0013686FEAD3236FEAC323136038BD00BFE5
:100FDC0000000450F4030020F20300207047FEE7E9
:100FEC00FEE7FEE7FEE770477047704708B5FFF76E
:100FFC0007F9BDE80840FFF77AB900001C4AD36C2A
:10100C0043F00303D3641B4A136823F0C00313603B
:10101C00136843F040031360136823F440731360A8
:10102C00136843F4807313604FF09043196821F0F8
:10103C0040411960196841F080411960196821F428
:10104C0040411960196841F480411960516921F0DF
:10105C0008015161516921F0100151615A6922F462
:10106C0000425A615A6942F080025A61704700BFCF
:10107C000010024000040048254A26482649F8B5CD
:10108C0000231360254A264D1360264A1F46137011
:10109C001C46DEB2642E31D107B11670C5F8204360
:1010AC00C0F82043C1F82043FFF794FE1E4B186094
:1010BC001E4B1C601E4B1C601E4B31221A601E4BBB
:1010CC0001221A601D4B1C801D4B4FF4FA721A80C2
:1010DC001C4B28221A801C4B4FF434721A801B4B69
:1010EC0040F214521A801A4BB3F90020194B1A8093
:1010FC00194BB3F90020194B1A80F8BD45F8234061
:10110C0040F8234041F8234001270133C1E700BFD9
:10111C00F0130020C8100020F8030020740D0020EC
:10112C004C0A0020800D0020F81300201C14002015
:10113C00480A0020840D0020780D00201214002095
:10114C008E0D0020C4100020BA1000208C0D002041
:10115C00A875FF1F20140020CA75FF1F141400204F
:10116C002DE9F84F00F058FF4B4A136813F0110F9C
:10117C00144640F08E805D0640F18880990608D5B3
:10118C00464A4749D2F8202323F02003283A0A8004
:10119C0023602368DA050AD4424A43491288D1F8FD
:1011AC002013143A91423CBF43F48073236001280E
:1011BC0012D13E4E3E4D032000F082FF3088D5F810
:1011CC002013884201D200F001FE3288D5F820337A
:1011DC009A4201D900F026FE2368DFF8E480354FEF
:1011EC0013F0800F47D1344E344D3388D5F820237B
:1011FC00DFF8ACB0DFF8A4A0DFF8C8900A3B9A4245
:10120C0013D2DAF82033BBF800209A1AB9F8003060
:10121C00143B9A4201D200F005FFBBF80030DAF81B
:10122C0020239A4201D200F0FDFE3388D5F820230A
:10123C000A339A4201D900F01FFFBBF80030DAF8EC
:10124C002023D21AB9F8003014339A4201D900F095
:10125C0013FF236843F080032360D8F800305B68E9
:10126C0003F16402B2F57A7F2ABFA3F561733A6089
:10127C003B60BDE8F88FD8F8002051683A6891427D
:10128C0007D123F080032360BDE8F88F23F080039F
:10129C001360BDE8F88F00BF840D00204C0A0020BD
:1012AC0012140020B8100020900D00208C0D00208E
:1012BC00C8100020BC1000208E0D0020F803002068
:1012CC00F8130020C4100020F0B5194A194C1A4E1E
:1012DC000146002330274FF00A0E072B0CD117497B
:1012EC00174A0B700023106033701C46D8B20728C5
:1012FC0016D104B13070F0BD9142B1FBF2F503F19F
:10130C00010388BF05F1300CEDB28CBF84F800C02E
:10131C00277002FB1511DBB2B2FBFEF20134DCE7E5
:10132C00D418C8182479447001330124DEE700BFB7
:10133C0040420F00BC020020800D00202A14002027
:10134C00B8020020F0B50B780778BB424FF00003D1
:10135C0009D10B4C1A4623701E460123D5B2AF425D
:10136C0003D806B125701846F0BD86188D1876780E
:10137C006D780132AE4218BF00230126EEE700BFA4
:10138C00800D00200D49002330B51A460B60044631
:10139C000132656844F8045BD2B2C72A2B44F7D1FA
:1013AC00074C2270D0F82423C0F81C2313440B6084
:1013BC00C822B3FBF2F3C0F8203330BD0014002078
:1013CC00800D002038B5204C23689A071AD51F4889
:1013DC00FFF7D8FF1E48FFF7D5FF1E48FFF7D2FFD7
:1013EC00236823F00603236023681B071CD51A48C7
:1013FC00FFF7C8FF1948FFF7C5FF236823F0080360
:10140C00236038BD13F0040F154A07D10123136074
:10141C00FFF70EFC236843F00403E4E71268042A88
:10142C00E2D123F00403DEE70E4D0F4C2B685A6813
:10143C0023689A42E5D00D4B01221A60FFF708FC95
:10144C002B685B68DCE700BF840D00204C0A002091
:10145C00C8100020F8030020900D00202007002069
:10146C00780D0020F8130020480A0020F413002007
:10147C00074A136843F002031360064A13680133EA
:10148C001360054A536823F00C035360704700BF88
:10149C00840D00202414002000000450074A136817
:1014AC0043F008031360064A136801331360054ABE
:1014BC00536823F060035360704700BF840D002015
:1014CC0024140020000004502C4A1368013310B57A
:1014DC00136000293BD12A4C2368022B2BD0032B01
:1014EC002FD0012B26D127490A6801320A60264ADF
:1014FC00C2F8240301332360244B1B68642B08D9E6
:10150C00234B1B68642B81BF224A136823F0100302
:10151C0013601C4B1B68642B0CD91F4B1B68642B72
:10152C0008D91E4B1B68642B81BF1A4A136823F021
:10153C000103136010BD18490A6801320A60184A89
:10154C00D6E716490A6801320A60164AD0E7164AED
:10155C001368012B02D0022B0AD010BD0B4C216852
:10156C00013121601149C1F8240301331360C3E731
:10157C00074C2168013121600D49F4E7FC13002070
:10158C00780D00204C1400204C0A0020C0100020C4
:10159C00880D0020840D0020081400207C0D0020F4
:1015AC00F8030020C8100020F4130020900D002038
:1015BC0020070020064A012321B1516983400B43C7
:1015CC00536170475169834021EA0303F8E700BF78
:1015DC000004004808B50378042B18D14378642B19
:1015EC0015D18378632B12D1C378303BDBB2092B36
:1015FC000DD800793038C0B2092808D803EB830322
:10160C0000EB4300C0B200F05BFD012008BD0020E0
:10161C0008BD000010B50378062B2CD14378692B3C
:10162C0029D18378732B26D1C378303BDAB2092ABF
:10163C0021D80479303CE2B2092A1CD84279303ADC
:10164C00D2B2092A17D881793039C9B2092912D8EE
:10165C00642044434FF47A7000FB03430B440A218B
:10166C0011FB023340F6F701044A8B428CBF118008
:10167C001380012010BD002010BD00BFC41000203D
:10168C0010B50378062B2CD14378762B29D183788F
:10169C00732B26D1C378303BDAB2092A21D80479CE
:1016AC00303CE2B2092A1CD84279303AD2B2092A2B
:1016BC0017D881793039C9B2092912D8642044432A
:1016CC004FF47A7000FB03430B440A2111FB0233E5
:1016DC0040F69941044A8B428CBF11801380012043
:1016EC0010BD002010BD00BF8E0D002010B503787A
:1016FC00062B2CD14378652B29D18378762B26D1D8
:10170C00C378303BDAB2092A21D80479303CE2B2F2
:10171C00092A1CD84279303AD2B2092A17D88179D1
:10172C003039C9B2092912D8642044434FF47A7075
:10173C0000FB03430B440A2111FB023340F6994191
:10174C00044A8B428CBF11801380012010BD0020F5
:10175C0010BD00BF8C0D0020034A0448136823F011
:10176C000403136000F01EBD840D002094020020C1
:10177C0038B51048104D114C00F014FD104BD3F837
:10178C002003FFF7A1FD284600F00CFD204600F0D9
:10179C0009FD0C4800F006FD0B4BD3F82003FFF7B6
:1017AC0093FD284600F0FEFC2046BDE8384000F0D2
:1017BC00F9BC00BF840000202A140020E7000020A0
:1017CC00900D0020A50000202007002010B5234C10
:1017DC00E06AFFF779FD224800F0E4FC214800F0B4
:1017EC00E1FC606BFFF770FD1D4800F0DBFC1D4851
:1017FC0000F0D8FCA06BFFF767FD194800F0D2FC95
:10180C00184800F0CFFCE06BFFF75EFD144800F0C9
:10181C00C9FC144800F0C6FC206CFFF755FD1048BD
:10182C0000F0C0FC0F4800F0BDFC00F0F5FB0138E7
:10183C00032811D8DFE800F0020A0C0E0A4800F069
:10184C00B1FC0848BDE8104000F0ACBC0748F6E716
:10185C000748F4E70748F2E70748F0E7002C014097
:10186C002A140020E700002073020020C40200208C
:10187C00210000204200002029010020F8B51F4F54
:10188C001F4E204D204C384600F08CFC1F4BD6F8D8
:10189C0020031B88C01AFFF717FD284600F082FCB6
:1018AC00204600F07FFC384600F07CFCD6F8200384
:1018BC00FFF70AFD284600F075FC204600F072FC8C
:1018CC00134800F06FFC134BD3F82003FFF7FCFC1C
:1018DC00284600F067FC204600F064FC0E4800F03F
:1018EC0061FC0E4BD3F82003FFF7EEFC284600F00A
:1018FC0059FC2046BDE8F84000F054BC63000020C1
:10190C004C0A00202A140020E700002012140020AA
:10191C00C6000020F8030020A5000020C8100020FD
:10192C0070B51B4E1B4D33681B4C1868FFF7CCFC75
:10193C00284600F037FC204600F034FC3368586829
:10194C00FFF7C2FC284600F02DFC204600F02AFCD4
:10195C0033689868FFF7B8FC284600F023FC204653
:10196C0000F020FC3368D868FFF7AEFC284600F086
:10197C0019FC204600F016FC33681869FFF7A4FC2C
:10198C00284600F00FFC2046BDE8704000F00ABC71
:10199C00F81300202A140020E700002038B5154861
:1019AC00154D164C00F0FEFB154B1868FFF78CFC20
:1019BC00284600F0F7FB204600F0F4FB114800F03D
:1019CC00F1FB114B1868FFF77FFC284600F0EAFB8F
:1019DC00204600F0E7FB0D4800F0E4FB0C4B1868C8
:1019EC00FFF772FC284600F0DDFB2046BDE83840CE
:1019FC0000F0D8BB630000202A140020E700002070
:101A0C004C140020C600002008140020A500002063
:101A1C007C0D002038B50C4B0C4D18680C4CFFF7A6
:101A2C0053FC284600F0BEFB204600F0BBFB094BE4
:101A3C001868FFF749FC284600F0B4FB2046BDE8C7
:101A4C00384000F0AFBB00BF840D00202A140020EA
:101A5C00E7000020780D002038B5114B114D1868A7
:101A6C00114CFFF731FC284600F09CFB204600F09F
:101A7C0099FB0E4B1868FFF727FC284600F092FBE9
:101A8C00204600F08FFB0A4B186BFFF71DFC284615
:101A9C0000F088FB2046BDE8384000F083BB00BF57
:101AAC00FC1300202A140020E7000020241400203E
:101ABC000000045038B50F480F4D104C00F072FB6D
:101ACC000F4B1868FFF700FC284600F06BFB204614
:101ADC0000F068FB0B4800F065FB0B4B1868FFF738
:101AEC00F3FB284600F05EFB2046BDE8384000F0D2
:101AFC0059BB00BF840000202A140020E7000020FE
:101B0C00C0100020A5000020880D002008B5064B51
:101B1C00186BFFF7D9FB054800F044FB0448BDE8FF
:101B2C00084000F03FBB00BF007400402A140020A6
:101B3C00E700002010B504466E4800F033FB6E49F8
:101B4C002046FFF7FFFB08B1FFF740FE6B4920462C
:101B5C00FFF7F8FB08B1FFF791FE69492046FFF744
:101B6C00F1FB08B1FFF7DCFE66492046FFF7EAFB04
:101B7C0008B1FFF713FF64492046FFF7E3FB08B1F8
:101B8C00FFF798FF61492046FFF7DCFB08B1FFF730
:101B9C0041FF5F492046FFF7D5FB08B1FFF7DCFD9D
:101BAC005C492046FFF7CEFB08B1FFF755FF5A49B9
:101BBC002046FFF7C7FB08B1FFF7DAFD574920466F
:101BCC00FFF7C0FB20B100F02DFA554800F0EAFAFF
:101BDC0054492046FFF7B6FB20B100F0F7F8504807
:101BEC0000F0E0FA50492046FFF7ACFB20B100F0C2
:101BFC0019F94B4800F0D6FA4C492046FFF7A2FBE6
:101C0C0020B100F03BF9464800F0CCFA4849204698
:101C1C00FFF798FB20B100F0D9F9414800F0C2FA67
:101C2C002046FFF7D7FC10B13D4800F0BBFA204628
:101C3C00FFF7F0FC10B13A4800F0B4FA2046FFF779
:101C4C001FFD10B1364800F0ADFA2046FFF74EFDEF
:101C5C0010B1334800F0A6FA36492046FFF772FB64
:101C6C0028B1C820FFF72AF82D4800F09BFA32491A
:101C7C002046FFF767FB28B1C820FFF739F8284842
:101C8C0000F090FA2D492046FFF75CFB08B1FFF7F6
:101C9C003DFF2B492046FFF755FB38B1294A204818
:101CAC00136843F04003136000F07CFA2649204689
:101CBC00FFF748FB38B1234A1948136823F0400357
:101CCC00136000F06FFA21492046FFF73BFB40B14F
:101CDC001F4B204AD3F820331148283B138000F0C7
:101CEC0061FA044800F05EFA1B48BDE8104000F0B1
:101CFC0059BA00BFE7000020690300208A030020C6
:101D0C00480300200000002006030020520200209F
:101D1C00310200200801002027030020CE01002002
:101D2C0094020020420000202100002073020020B9
:101D3C00C4020020AD0100206B0100208C010020AA
:101D4C0010020020840D0020EF0100204A01002029
:101D5C004C0A002012140020E502002008B500F007
:101D6C0085FA064B1870430707D500F073FA044B3D
:101D7C001860BDE80840FFF7DDBE08BD1814002050
:101D8C00501400200F49D1F8883043F47003C1F887
:101D9C0088300D4B1A68002042F001021A609860DE
:101DAC001A6822F0A85222F410221A604FF48052C2
:101DBC00DA601A6822F480221A6098614FF000638E
:101DCC008B60704700ED00E000100240124B0422C3
:101DDC001A70124B1A68124BDA639A6900229A61D4
:101DEC00996940F6080001439961996941F04001F5
:101DFC009961996941F480419961D969DA61DA692B
:101E0C000243DA61DA6942F4A042DA61DA6942F03B
:101E1C006002DA61704700BF5C140020641400207B
:101E2C00002C0140124B03221A70124B1A68124BF1
:101E3C005A639A6900229A61996940F60800014335
:101E4C009961996941F4A0419961996941F07001D6
:101E5C009961D969DA61DA690243DA61DA6942F4C3
:101E6C008042DA61DA6942F04002DA61704700BF01
:101E7C005C14002064140020002C0140104B012243
:101E8C001A70104B9A6900229A61996940F6080001
:101E9C0001439961996941F480419961996941F0D3
:101EAC0040019961D969DA61DA690243DA61DA6968
:101EBC0042F48042DA61DA6942F04002DA6170473A
:101ECC005C140020002C01403A4A70B54BF2987318
:101EDC00394D1360B3FBF0F0384B28601A6E384C58
:101EEC0042F400621A66DA6C42F00102DA644FF0D6
:101EFC00904300261A6822F440321A601A6842F4A1
:101F0C0000321A601A6822F440221A601A6842F4ED
:101F1C0000221A601A6822F440121A601A6842F4FD
:101F2C0000121A601A6822F440021A601A6842F40D
:101F3C0000021A605A6A42F001025A625A6A42F06E
:101F4C0010025A625A6A42F480725A625A6A42F415
:101F5C0080525A62236A2662FFF790FF2B68E36275
:101F6C006422B3FBF2F3174A01331360164B1E7055
:101F7C00236A43F001032362236A43F010032362B4
:101F8C00236A43F480732362236A43F480532362ED
:101F9C00A26940F608010A43A261E3690B43E361BD
:101FAC00636C43F400436364236843F001032360D0
:101FBC0070BD00BF681400206014002000100240A7
:101FCC00002C01405814002054140020104B022205
:101FDC001A70104B9A6900229A61996940F60800B0
:101FEC0001439961996941F050019961996941F4F2
:101FFC00A0419961D969DA61DA690243DA61DA6977
:10200C0042F04002DA61DA6942F4A042DA617047C8
:10201C005C140020002C0140014B1878704700BF65
:10202C005C1400200E4B0F4A19681268481C013AC8
:10203C00904218600C4A08BF19600C491B68126862
:10204C00B3FBF2F20A700A4A1278032A02D1094A47
:10205C0053637047042A04BF064AD363704700BF1A
:10206C006414002060140020581400205414002024
:10207C005C140020002C01400C4B0D491A68013AED
:10208C0008BF01221A600B4A1B681268B3FBF2F2FC
:10209C000A70094A1278032A02D1084A536370471E
:1020AC00042A04BF054AD363704700BF64140020A0
:1020BC0054140020581400205C140020002C014003
:1020CC00431E622B0DD8074B1870074B1B685843E7
:1020DC00064B1860064B5863D8635A6942F00102EC
:1020EC005A617047541400205814002064140020C6
:1020FC00002C0140244B1A6E42F4804210B51A6633
:10210C00DA6C42F00202DA64204B1A6822F4405274
:10211C001A601A6842F400521A601A6822F440429B
:10212C001A601A6842F400421A601A6A42F0E062BD
:10213C001A621A6A42F0E0421A62154B1A6842F0AF
:10214C002C021A600021DA68D960DA6842F4CF7286
:10215C0042F00102DA600F4A20201024C2F88401F8
:10216C0082F8254350601A6842F001021A6011226D
:10217C001A85094B094A1970094B1970137843F0E9
:10218C000503137010BD00BF00100240000400488E
:10219C000038014000E100E0741400206C140020B1
:1021AC00751400200A4A002330B513700578094CC9
:1021BC0019469D4202D801B1137030BD10F8011FB1
:1021CC002185E1690906FCD50133DBB20121F0E779
:1021DC0074140020003801401948838CDBB2A3F141
:1021EC0020025E2AF0B50DD816490A788C180132F7
:1021FC0063709BB20A700385114A136A43F0200383
:10220C001362F0BD0D2BF7D10E4A0F4915780F4C08
:10221C0000230B701E46DFB20133581EC0B285423C
:10222C000AD806B10F7000231370094A2570137871
:10223C0043F004031370DFE7D05CE0540126EAE7B7
:10224C0000380140A4140020C51400207C14002088
:10225C006C140020034A0448137823F00403137011
:10226C00704700BF6C1400207C140020014B1878C0
:10227C00704700BF6C140020DFF834D0002103E05D
:10228C000C4B5B58435004310B480C4B42189A4290
:10229C00F6D30B4A02E0002342F8043B094B9A4266
:1022AC00F9D3FFF76FFD00F011F8FEF7CDFDFEE757
:1022BC00000001208023000800000020B003002053
:1022CC00B0030020C8140020FEE7000070B50D4ECE
:1022DC000D4CA41BA4100025A54209D10B4E0C4C8F
:1022EC0000F018F8A41BA4100025A54205D170BD60
:1022FC0056F8253098470135EEE756F825309847C3
:10230C000135F2E7782300087823000878230008C9
:10231C007C230008F8B500BFF8BC08BC9E4670478B
:0C232C00F8B500BFF8BC08BC9E46704726
:10233800000000000000000001020304060708096D
:10234800A0860100400D0300801A060000350C002D
:1023580040420F0080841E0000093D0000127A00F0
:102368000024F40000366E010048E801006CDC022D
:04237800B1010008A7
:04237C008D010008C7
:102380000462616E6B0000000000000000000000AD
:10239000000000000000000000000000000000003D
:1023A0000005626F6F737400000000000000000001
:1023B000000000000000000000000000000000001D
:1023C0000000046275636B00000000000000000064
:1023D00000000000000000000000000000000000FD
:1023E00000000003433A200000000000000000004D
:1023F00000000000000000000000000000000000DD
:102400000000000003453A2000000000000000002A
:1024100000000000000000000000000000000000BC
:10242000000000000003493A200000000000000006
:10243000000000000000000000000000000000009C
:10244000000000000000034F3A20000000000000E0
:10245000000000000000000000000000000000007C
:1024600000000000000000020A0D00000000000053
:10247000000000000000000000000000000000005C
:10248000000000000000000004636F6E7600000092
:10249000000000000000000000000000000000003C
:1024A0000000000000000000000363703100000025
:1024B000000000000000000000000000000000001C
:1024C000000000000000000000000463737273004D
:1024D00000000000000000000000000000000000FC
:1024E000000000000000000000000005646163645B
:1024F0006E0000000000000000000000000000006E
:10250000000000000000000000000000066461639D
:102510007270740000000000000000000000000065
:1025200000000000000000000000000000056461E1
:102530006375700000000000000000000000000053
:102540000000000000000000000000000000036424
:10255000632B0000000000000000000000000000ED
:102560000000000000000000000000000000000665
:1025700064727664697300000000000000000000CF
:10258000000000000000000000000000000000004B
:1025900005647276656E0000000000000000000017
:1025A000000000000000000000000000000000002B
:1025B0000005666C636C7200000000000000000003
:1025C000000000000000000000000000000000000B
:1025D000000004666C61670000000000000000005D
:1025E00000000000000000000000000000000000EB
:1025F000000000046C6F636B00000000000000002E
:1026000000000000000000000000000000000000CA
:102610000000000001240000000000000000000095
:1026200000000000000000000000000000000000AA
:1026300000000000000000000000000030303030DA
:10264000303030000470617373000000000000003F
:10265000000000000000000000000000000000007A
:1026600000000000000B4445564053544D33323AAD
:10267000200000000000000000000000000000003A
:10268000000000000000057462616E6B0000000035
:10269000000000000000000000000000000000003A
:1026A000000000000000000474656D700000000070
:1026B000000000000000000000000000000000001A
:1026C00000000000000000000474696D6500000057
:1026D00000000000000000000000000000000000FA
:1026E0000000000000000000000474696D3100006B
:1026F00000000000000000000000000000000000DA
:102700000000000000000000000004766F6C740000
:1027100000000000000000000000000000000000B9
:1027200000000000000000000000000000093D0063
:040000050800228548
:00000001FF
