:020000040800F2
:100000000000012089270008311000083310000883
:1000100035100008371000083910000800000000F3
:100020000000000000000000000000003B1000087D
:100030003D100008000000003F10000841100008BB
:10004000D9270008D9270008D9270008D927000890
:10005000D9270008D9270008D9270008D927000880
:10006000D9270008D9270008D9270008D927000870
:10007000D9270008D9270008D9270008D927000860
:10008000D9270008D9270008A10F0008D9270008A0
:10009000D9270008D9270008D9270008D927000840
:1000A000D9270008D9270008D9270008D927000830
:1000B000D92700080000000000000000D927000830
:1000C000D92700080000000000000000D927000820
:1000D00000000000610F0008D927000800000000A0
:1000E000D9270008D9270008000000000000000000
:1000F0000000000000000000000000000000000000
:10010000000000000000000000000000D9270008E7
:100110000000000000000000D9270008D9270008CF
:10012000D9270008D9270008D9270008D9270008AF
:10013000D9270008000000000000000000000000B7
:10014000D9270008850F0008D9270008D9270008FB
:10015000D9270008D9270008D9270008D92700087F
:10016000D9270008D9270008D92700080000000077
:10017000D9270008D927000800000000000000006F
:0C018000D9270008D9270008D92700085B
:10018C0010B5054C237833B9044B13B10448AFF3C5
:10019C0000800123237010BD7404002000000000B7
:1001AC002428000808B5034B1BB103490348AFF3DF
:1001BC00008008BD000000007804002024280008FE
:1001CC0010B5084B044618684FF47A73B0FBF3F083
:1001DC0000F06AF8002221464FF0FF3000F030F8B2
:1001EC00002010BD7004002008B5032000F016F8A4
:1001FC000020FFF7E5FF00F067FE002008BD0000BF
:10020C00024A136801331360704700BF900400204A
:10021C00014B1868704700BF90040020074AD36850
:10022C0023F4E0631B041B0C43F0BF63000243F494
:10023C00003300F4E0600343D360704700ED00E04E
:10024C00174B30B5DC68C4F30224C4F10703251D39
:10025C00042B28BF0423062D4FF0010505FA03F3E8
:10026C0003F1FF338CBF033C00241940A14005FA75
:10027C0004F4013C2240002842EA01024FEA021237
:10028C00AFBF00F1604000F00F00064BD2B2A5BF2B
:10029C0000F56140D2B21A5480F8002330BD00BF83
:1002AC0000ED00E014ED00E00138B0F1807F0AD2DF
:1002BC00064B074A5860F02182F8231000200722D1
:1002CC0098601A6070470120704700BF10E000E092
:1002DC0000ED00E0044B1A6804280CBF42F0040245
:1002EC0022F004021A60704710E000E0704708B575
:1002FC00FFF7FCFF08BD0000024B186800F4C0605B
:10030C00704700BF00700040164B1A68B0F5007FB4
:10031C0002F4C0621AD1B2F5007F13D01A681249E8
:10032C0022F4C06242F400721A60104A1268B2FBE6
:10033C00F1F132224A4312B15969490504D45B697F
:10034C005B050DD400207047013AF4E7B2F5806FDD
:10035C001FBF1A6822F4C06242F480621A60F1E78F
:10036C00032070470070004040420F0070040020D2
:10037C0037B51E4DAB6DDA00044618D5FFF7BCFF40
:10038C00B0F5007F23D1802C29D9A02C8CBF022062
:10039C000120174A136823F0070303431360136803
:1003AC0003F00703181A18BF012003B030BDAB6D62
:1003BC0043F08053AB65AB6D03F080530193019B0D
:1003CC00FFF79AFFAB6D23F08053AB65D8E7802C19
:1003DC0007D808D0A4F1700358425841D9E700203F
:1003EC00D7E70320D5E70220D3E700BF0010024077
:1003FC00002002402F4B9A6812F00C0F10B509D058
:10040C009A6802F00C020C2A2DD1DA6802F0030271
:10041C00012A28D11A682849120755BFD3F894200D
:10042C001A68C2F30322C2F3031251F8222099680E
:10043C0011F00C0F0CBF10460020996801F00C0154
:10044C000C2930D1DC68D868C0F30210411C04F0D0
:10045C000300022819D0032826D0B2FBF1F2D86889
:10046C00C0F3062017E09A6802F00C02042A07D0A9
:10047C009A6802F00C02082A04D110480022DCE72A
:10048C000F48FBE700200246D7E7DA680C48C2F3B6
:10049C000622B0FBF1F0DB68C3F341630133504338
:1004AC005B00B0FBF3F010BDDA680448C2F306221F
:1004BC00EFE700BF001002404C28000800127A0041
:1004CC000024F40003682DE9F3410546D80639D51C
:1004DC00AB4CA36813F00C0F62D12368990703D5BA
:1004EC00AB690BB901207FE02368286A1A0756BF55
:1004FC00D4F8943023681B0903F0F00383423AD2FA
:10050C00FFF736FF0028EDD1236843F00803236082
:10051C0023682A6A23F0F003134323606368EA69B3
:10052C0023F47F4343EA02236360FFF763FFA3686E
:10053C00944AC3F30313D35CD840934B1860002048
:10054C00FFF73EFE2B68D80761D42B68990700F1A2
:10055C00A9802B681A0700F1E7802B685B0700F174
:10056C0015812B689A0600F17C81AA6A002A40F05A
:10057C00A381002038E0236843F00803236023683C
:10058C0023F0F003034323606368EA6923F47F4399
:10059C0043EA02236360FFF7EBFE0028C5D0A1E716
:1005AC00AB6923B3236843F001032360FFF730FEEC
:1005BC00064623689B0711D5236843F00803236084
:1005CC0023682A6A23F0F003134323606368EA6903
:1005DC0023F47F4343EA02236360B3E7FFF718FE7B
:1005EC00801B0228E5D9032002B0BDE8F081236806
:1005FC0023F001032360FFF70BFE064623689F07D9
:10060C00A0D5FFF705FE801B0228F7D9EBE75C4C61
:10061C00A36803F00C03082B09D0A36803F00C03A8
:10062C000C2B0BD1E36803F00303032B06D12368D7
:10063C009A038AD56B68002B87D153E76B68B3F5A7
:10064C00803F10D1236843F480332360FFF7E0FD33
:10065C00064623689B033FF578AFFFF7D9FD801B57
:10066C006428F6D9BFE7B3F5A02F04D1236843F46F
:10067C0080232360E6E7226822F48032226022681D
:10068C0022F480222260002BE0D1FFF7C1FD064648
:10069C0023689F037FF559AFFFF7BAFD801B6428D1
:1006AC00F6D9A0E7364CA36803F00C03042B09D051
:1006BC00A36803F00C030C2B13D1E36803F00303C2
:1006CC00022B0ED123685E0503D5EB68002B3FF49B
:1006DC0009AF63682A6923F0F85343EA0263636045
:1006EC0037E7EB687BB1236843F480732360FFF733
:1006FC008FFD064623685805EBD4FFF789FD801B58
:10070C000228F7D96FE7236823F480732360FFF77F
:10071C007FFD0646236859057FF51BAFFFF778FD73
:10072C00801B0228F6D95EE76B69154C9BB1D4F897
:10073C00943043F00103C4F89430FFF769FD06468A
:10074C00D4F894309F073FF508AFFFF761FD801B8D
:10075C000228F5D947E7D4F8943023F00103C4F804
:10076C009430FFF755FD0646D4F8943098077FF582
:10077C00F4AEFFF74DFD801B0228F5D933E700BF1F
:10078C00001002403C28000870040020794CA36D36
:10079C00D90027D4A36D43F08053A365A36D03F058
:1007AC0080530193019B0127734E3368DA051BD5E7
:1007BC00AB68012B29D1D4F8903043F00103C4F875
:1007CC009030FFF725FD41F288380646D4F890307A
:1007DC00980740D5002F3FF4C4AEA36D23F080538F
:1007EC00A365BEE60027DFE7336843F4807333600C
:1007FC00FFF70EFD80463368DB05D9D4FFF708FD03
:10080C00A0EB08000228F6D9EDE6052B06D1D4F8AA
:10081C00903043F00403C4F89030CCE7D4F8902027
:10082C0022F00102C4F89020D4F8902022F00402A7
:10083C00C4F89020002BC4D1FFF7EAFC41F28838B1
:10084C000646D4F890309907C4D5FFF7E1FC801B1D
:10085C004045F6D9C7E6FFF7DBFC801B4045B5D910
:10086C00C1E66B6A434C9BB1D4F8983043F001035A
:10087C00C4F89830FFF7CCFC0646D4F898309B07A8
:10088C003FF573AEFFF7C4FC801B0228F5D9AAE62E
:10089C00D4F8983023F00103C4F89830FFF7B8FC73
:1008AC000646D4F898309F077FF55FAEFFF7B0FC93
:1008BC00801B0228F5D996E62E4CA36803F00C0396
:1008CC000C2B3FF40FAE2368022A23F080732360B5
:1008DC0036D1FFF79DFC0646236898012AD4AB6BF2
:1008EC006A6BDB0643EA0223EA6A13432A6B013A7A
:1008FC0043EA0213EA6B5208013A43EA42532A6C68
:10090C005208013A43EA4263E360236843F0807380
:10091C002360E36843F08073E360FFF779FC0546DE
:10092C00236899013FF525AEFFF772FC401B0228A6
:10093C00F6D958E6FFF76CFC801B0228CCD952E69E
:10094C0023681A015EBFE36823F00303E360E368E6
:10095C0023F0887323F48033E360FFF759FC0546DA
:10096C0023689B017FF505AEFFF752FC401B022864
:10097C00F6D938E60010024000700040564A136861
:10098C0003F007038B422DE9F04105460E462BD3AD
:10099C002B68D90735D429688A0700F183804E4A21
:1009AC00136803F007039E42C0F0848011F0040F1B
:1009BC004A4C40F08A800B0706D5A3682A6923F4B9
:1009CC00605343EAC203A360FFF714FDA368444AD3
:1009DC00C3F30313D35CD840424B18600020FFF7DD
:1009EC00EFFB0020BDE8F081136823F007030B43F5
:1009FC001360136803F007039942C9D00120BDE8C6
:100A0C00F0816A68354C032A23681CD113F0007FEF
:100A1C00F4D0A36823F003031343A360FFF7F8FBA0
:100A2C006B68032B074641F2883818D1A36803F092
:100A3C000C030C2BAFD0FFF7EBFBC01B4045F5D9DB
:100A4C000320BDE8F081022A02D113F4003FDFE756
:100A5C0012B913F0020FDBE713F4806FD8E7022B07
:100A6C000AD1A36803F00C03082B94D0FFF7D0FB3A
:100A7C00C01B4045F5D9E3E773B9A36813F00C0F1D
:100A8C0089D0FFF7C5FBC01B4045F6D9D8E7FFF767
:100A9C00BFFBC01B4045D3D8A36803F00C03042B49
:100AAC00F5D178E70D4AA868936823F0F003034367
:100ABC00936074E7136823F00703334313601368E0
:100ACC0003F007039E4299D170E7A368EA6823F408
:100ADC00E0631343A3606EE7002002400010024065
:100AEC003C28000870040020014B1868704700BFB8
:100AFC0070040020474BDA6C42F40052DA64DA6C72
:100B0C0042F00302DA64444B1A6842F003021A60A2
:100B1C001A6842F00C021A604FF09042136843F4CA
:100B2C00405313603D4B9A68900064D43C4A9368E0
:100B3C0043F480339360394B9A68D10060D5374BBE
:100B4C001A46996811F03F0F99685ED141F0004147
:100B5C0099609368002BFCDB324B00211960936881
:100B6C0043F0010393602D4B1A68D207FCD51A6829
:100B7C0042F001021A605A6842F00C025A601A6B79
:100B8C0000221A63196B41F470711963196B41F4EB
:100B9C0080011963596B41F007015963196B41F0DE
:100BAC0004011963D96CDA64D96C41F4C031D9648D
:100BBC00D96C41F43061D964D96C41F00101D9642C
:100BCC00596941F0126141F4922141F4127141F0E2
:100BDC00010159619869144901439961D96841F43B
:100BEC008041D960114B4FF48021C3F8801183F8F8
:100BFC001223196070479A6822F000529A6092E7AB
:100C0C009A6842F080529A6096E741F03001996000
:100C1C0097E700BF00100240000400480000045099
:100C2C0000030450940400204992240100E100E0E8
:100C3C00064B1A6842F00C021A605A6842F00C0219
:100C4C005A609A6842F004029A607047000004509F
:100C5C00064B1A6842F040021A605A6842F0400291
:100C6C005A609A6842F008029A607047000004507B
:100C7C000F4B4FF47A721A600E4A936D43F0005387
:100C8C0093654FF09042136843F4406313600A4B32
:100C9C00DA6B42F48032DA631A6842F480321A60FA
:100CAC001A6A00221A621A6A42F07A721A62704741
:100CBC009804002000100240007400400A4B1A688F
:100CCC001044B0F5805F24BF40F6FF721A60074AEB
:100CDC0038BF1860116A00211162116A1B6841EA61
:100CEC0003431362704700BF980400200074004057
:100CFC00084B1A68101A04BF01221A60064A18BF62
:100D0C001860116A00211162116A1B6841EA0343E1
:100D1C0013627047980400200074004040F6FF7383
:100D2C00984228BF1846054B1860054B1A6A0022DA
:100D3C001A621A6A42EA004018627047980400204E
:100D4C0000740040114A936D43F000439365104BBF
:100D5C001A6942F001021A619A6842F002029A6022
:100D6C00C0229A610B4A02212020C2F8881182F815
:100D7C0041039160084A0021116051609160D1607B
:100D8C0011611A6942F004021A61704700100240A6
:100D9C00007C004000E100E09C040020164B1A6827
:100DAC000132F92A1A6004D95A6801325A600022B9
:100DBC001A605A68B2F57A7F04D39A6801329A6045
:100DCC0000225A609A683B2A04D9DA680132DA6048
:100DDC0000229A60DA683B2A04D91A6901321A6136
:100DEC000022DA601A69172A04D95A6901325A6149
:100DFC0000221A61704700BF9C0400200048704715
:100E0C009C04002010B596B01023059301230B937E
:100E1C00B022002305A80C930D920F93FFF752FB01
:100E2C0000B1FEE70F230190029003900490022181
:100E3C0068460093FFF7A2FD00B1FEE74FF4007087
:100E4C00FFF762FA044600B1FEE7FFF74DFE4FF4E0
:100E5C007A73B0FBF3F0FFF727FA0420FFF73AFAA6
:100E6C00224621464FF0FF30FFF7EAF916B010BDCD
:100E7C0008B5FFF7B9F9FFF7C5FF00F0E3F801F08B
:100E8C00BBFBFFF75FFFFFF735FE782001F09EFA02
:100E9C00FFF7EEFE00F014F90A4C00F09BF920600D
:100EAC0030B101F0DDF900F0FFFB00F09BF9F4E745
:100EBC0001F0D6F900F0F8FB00F0E4FA00F020FDA8
:100ECC00EBE700BFB4040020214B07B51A6E42F0CB
:100EDC0001021A661A6E02F001020092009A9A6DD3
:100EEC0042F080529A659B6D03F08053019303206E
:100EFC00019BFFF793F9002211466FF00B00FFF7EF
:100F0C009FF9002211466FF00A00FFF799F90022B1
:100F1C0011466FF00900FFF793F9002211466FF0AC
:100F2C000400FFF78DF9002211466FF00300FFF764
:100F3C0087F9002211466FF00100FFF781F90022BA
:100F4C0011464FF0FF30FFF77BF903B05DF804FB5F
:100F5C000010024010B5064C064AE36913609B066C
:100F6C0001D501F0BBFB236A4FF0FF33236210BDA8
:100F7C0000380140BC04002008B5FFF70FFF044AFD
:100F8C0053686FEA53236FEA4323536008BD00BFD5
:100F9C00007C004038B5204D204C2B68236059074D
:100FAC000AD5286C1E4B0021188080B200F0FEFB85
:100FBC002B6843F004032B6023681A0706D5164AE6
:100FCC00136843F00803136000F0C4FB23685B064E
:100FDC0019D5114C124DD4F880002880012180B213
:100FEC0000F0E4FBD4F884002880012180B200F0EA
:100FFC00DDFB00F0C5FB236843F0400323600021B8
:10100C00032000F049FC044A13686FEAD3236FEA0B
:10101C00C323136038BD00BF00000450BC04002083
:10102C00BA0400207047FEE7FEE7FEE7FEE77047D4
:10103C007047704708B5FFF7E3F8BDE80840FFF7C5
:10104C0056B900001C4AD36C43F00303D3641B4A0B
:10105C00136823F0C0031360136843F0400313605C
:10106C00136823F440731360136843F480731360A4
:10107C004FF09043196821F040411960196841F014
:10108C0080411960196821F440411960196841F4D4
:10109C0080411960516921F008015161516921F0B9
:1010AC00100151615A6922F400425A615A6942F0A6
:1010BC0080025A61704700BF0010024000040048D3
:1010CC002C4A2D482D49F8B5002313602C4A2D4D80
:1010DC0013602D4A1F4613701C46DEB2642E3FD19E
:1010EC0007B11670C5F82043C0F82043C1F820435F
:1010FC00FFF784FE254B1860254B1C60254B1C60AC
:10110C00254B40F631021A60244B1C60244B012203
:10111C001A60244B1C80244B40F61C421A80234A34
:10112C004FF4FA731380224A1380224B4FF434721B
:10113C001A80214B40F6B8321A80204B1C80204B71
:10114C001C70204BB3F900201F4B1A801F4BB3F9B6
:10115C0000201F4B00201A80BDE8F840FFF7DEBDD1
:10116C0045F8234040F8234041F823400127013340
:10117C00B3E700BFD0140020A8110020C004002049
:10118C00440E00201C0B0020500E0020D814002010
:10119C0000150020180B0020540E0020E414002031
:1011AC00480E0020F8140020620E0020A41100202C
:1011BC00140B00208C110020600E00208E110020DA
:1011CC00E8070020A875FF1F04150020CA75FF1F33
:1011DC00FA140020024B1868C0F3C020704700BFFF
:1011EC00540E00202DE9F84F914D924F2968924EE4
:1011FC0011F0010F2C460AD1336840F2FF709B6846
:10120C003B60FFF78BFD01232B60BDE8F88F326844
:10121C003B68D2F808C09C451DD08848036813F081
:10122C00100E03D0C7F800C0BDE8F88F844FD7F874
:10123C002073C82F03D940F2DC4C674508D923F43E
:10124C00006343F48063C5F800E00360BDE8F88FE9
:10125C0041F006012960236803F0060106293DD1FF
:10126C0013F0080F774D3BD14FF0904043F008033B
:10127C00416941F0800141612360536803F5FA71C3
:10128C00B1F57A7F2ABFA3F5FA7329602B60236826
:10129C00D80623D5990630D4032001F093F96A4B74
:1012AC006A4A1B88D2F820239A4223D201F03CF8D8
:1012BC00674B684AD3F82033283B138033685B684C
:1012CC0003F10A02B2F57A7F24BFA3F2DE332B605E
:1012DC00236838BF2A6043F020032360BDE8F88FF1
:1012EC00DF06D7D4506829688842F7D143F0100341
:1012FC002360CCE700F0ECFFDAE752682B689A42E7
:10130C00ECD1554A55491388D1F82003DFF84481B4
:10131C00DFF83C91524F0A3B98428A46934657D28B
:10132C00D9F82023B8F800303988A2EB030EA1F1CC
:10133C00140086454AD20B449B1A642B8CBF0F2099
:10134C00012001F0F1F80123B8F80020D9F820139E
:10135C00914203D20F2001F0E7F80123BBF80020E3
:10136C00DAF820130A32914203D9012001F006F970
:10137C000123D9F82023B8F80010511A3A881432F6
:10138C00914227D9012001F0F9F833685B6803F129
:10139C000A02B2F57A7F2ABFA3F2DE332A602B60F1
:1013AC002A4BD3F82033B3F5587F37D82368B8F8D5
:1013BC00002043F0C0032360D9F820339B1A193B5B
:1013CC00284A9BB213803B80BDE8F88F0023BBE713
:1013DC000023C3E7002BD8D123685B06E0D4336825
:1013EC005B6803F10A02B2F57A7F38BF2A601E4AA5
:1013FC0024BFA3F2DE332B6013780133DBB2632BF3
:10140C001370CDD940F6FF70FFF788FC0B4A1368B8
:10141C0023F4006343F040031360C1E740F27532DC
:10142C0093427FF65BAF236823F0400355E700BF80
:10143C00E4140020A0110020D8140020540E002029
:10144C00640E00205C0E0020600E0020A81100200D
:10145C001C0B0020F8140020620E0020C004002099
:10146C00A4110020140B0020E80700204FF090433B
:10147C005A6918B142F080025A61704722F080021A
:10148C00FAE700002DE9F84F404C01F047F82368CB
:10149C0013F01105A04676D15E050FD52846FFF74F
:1014AC003DFC00F06DFF2846FFF7E0FF236859066E
:1014BC0069D523F040032360BDE8F88F5A0659D54F
:1014CC0013F0800F324F334E4CD1334D334C2B88AD
:1014DC00D4F82023DFF8C8A0DFF8C8B0DFF8C89034
:1014EC000A3B9A4215D2DAF82033BBF800209A1A3C
:1014FC00B9F80030143B9A4202D2012001F014F8E2
:10150C00BBF80030DAF820239A4202D2012001F015
:10151C000BF82B88D4F820230A339A4202D90120E5
:10152C0001F02CF8BBF80030DAF82023D21AB9F805
:10153C00003014339A4202D9012001F01FF8D8F878
:10154C00003043F08003C8F800303B685B6803F15F
:10155C006402B2F57A7F2ABFA3F5617332603360FF
:10156C00BDE8F88F3A685168326891420BD123F08C
:10157C008003A0E723F080030128236003D0BDE89B
:10158C00F84F00F0FDBEBDE8F88F00BF540E0020F0
:10159C00D814002094110020620E0020C0040020FA
:1015AC001C0B0020F8140020A4110020F0B5194ADF
:1015BC00194C1A4E0146002330274FF00A0E072B08
:1015CC000CD11749174A0B700023106033701C465E
:1015DC00D8B2072816D104B13070F0BD9142B1FBDE
:1015EC00F2F503F1010388BF05F1300CEDB28CBFAD
:1015FC0084F800C0277002FB1511DBB2B2FBFEF2BF
:10160C000134DCE7D418C818247944700133012460
:10161C00DEE700BF40420F0060030020500E0020A8
:10162C00101500205C030020F0B50B780778BB4246
:10163C004FF0000309D10B4C1A4623701E460123B0
:10164C00D5B2AF4203D806B125701846F0BD861846
:10165C008D1876786D780132AE4218BF00230126C2
:10166C00EEE700BF500E00200D49002330B51A469E
:10167C000B6004460132656844F8045BD2B2C72A99
:10168C002B44F7D1074C2270D0F82423C0F81C232C
:10169C0013440B60C822B3FBF2F3C0F8203330BD07
:1016AC00E0140020500E002038B5204C23689A0717
:1016BC001AD51F48FFF7D8FF1E48FFF7D5FF1E4865
:1016CC00FFF7D2FF236823F00603236023681B0770
:1016DC001CD51A48FFF7C8FF1948FFF7C5FF236848
:1016EC0023F00803236038BD13F0040F154A07D10B
:1016FC0001231360FFF79CFA236843F00403E4E72B
:10170C001268042AE2D123F00403DEE70E4D0F4CDD
:10171C002B685A6823689A42E5D00D4B01221A6057
:10172C00FFF796FA2B685B68DCE700BF540E0020CD
:10173C001C0B0020A8110020C0040020640E002007
:10174C00EC070020480E0020D8140020180B0020B5
:10175C00D4140020074A136843F002031360064AAE
:10176C00136801331360054A536823F00C0353606C
:10177C00704700BF540E00200815002000000450D4
:10178C00074A136843F008031360064A13680133D1
:10179C001360054A536823F060035360704700BF21
:1017AC00540E002008150020000004502C4A136829
:1017BC00013310B5136000293BD12A4C2368022B4E
:1017CC002BD0032B2FD0012B26D127490A680132AD
:1017DC000A60264AC2F8240301332360244B1B6899
:1017EC00642B08D9234B1B68642B81BF224A1368D6
:1017FC0023F0100313601C4B1B68642B0CD91F4B7C
:10180C001B68642B08D91E4B1B68642B81BF1A4ABA
:10181C00136823F00103136010BD18490A680132E4
:10182C000A60184AD6E716490A6801320A60164A55
:10183C00D0E7164A1368012B02D0022B0AD010BD38
:10184C000B4C2168013121601149C1F8240301338B
:10185C001360C3E7074C2168013121600D49F4E79F
:10186C00DC140020480E0020341500201C0B002036
:10187C0098110020580E0020540E0020F014002067
:10188C004C0E0020C0040020A8110020D41400200D
:10189C00640E0020EC070020064A012321B1516997
:1018AC0083400B43536170475169834021EA030322
:1018BC00F8E700BF00040048013808B5032811D828
:1018CC00DFE800F0020A0C0E074800F0EDFE0748B6
:1018DC00BDE8084000F0E8BE0548F6E70548F4E727
:1018EC000548F2E70548F0E729010020E700002051
:1018FC004A0100206B0100208C010020890300208C
:10190C004C490B6813F0400F70B50C467ED04A4E14
:10191C00D6F82023B2F5C87F03D843F480630B605C
:10192C0070BD40F6B4108242F7D8B2F5347FF4D9CA
:10193C0040F6A5108242F0D8D80568D440F2B531F3
:10194C008A4206D843F480733C49236002F1640355
:10195C000B802368D90559D513F400715FD1374D2D
:10196C002B889A4224D29A1A354B322A1A601FD9E4
:10197C00344A13881E2B88BF193B4FF0020094BFCA
:10198C0011801380FFF798FFD6F820332B802E4B55
:10199C002E4A1B685B6803F2EE21B1F57A7F24BFF7
:1019AC00FA3B1360236838BF116043F40073236063
:1019BC00D6F820332A88934228D99B1A204A322BF6
:1019CC00136023D922491F4A09881388A1F11400F6
:1019DC00834238BF19334FF001002CBF11801380A4
:1019EC00FFF76AFFD6F820332B80174B174A1B687A
:1019FC005B6803F2EE21B1F57A7F24BFFA3B1360EA
:101A0C00236838BF116043F40073236070BD40F24B
:101A1C00F2318A4284BF23F48073236099E70A4A27
:101A2C0012685168094A12689142EFD123F400738D
:101A3C00EBE700BF540E0020640E00200C150020B4
:101A4C00E8140020A4110020D814002090110020CC
:101A5C00140B002008B50378042B18D14378642BA1
:101A6C0015D18378632B12D1C378303BDBB2092BB1
:101A7C000DD800793038C0B2092808D803EB83039D
:101A8C0000EB4300C0B200F09DFD012008BD00201A
:101A9C0008BD000010B50378062B32D14378692BB2
:101AAC002FD18378732B2CD1C378303BDAB2092A2F
:101ABC0027D80479303CE2B2092A22D84279303A4C
:101ACC00D2B2092A1DD881793039C9B2092918D85E
:101ADC00642044434FF47A7000FB03430B440A2107
:101AEC0011FB023340F6F7029A42074928BF1A4607
:101AFC000A80064A1268D20501D4054A13800120D7
:101B0C0010BD002010BD00BF140B0020540E00208F
:101B1C00A411002010B50378062B2CD14378762B1A
:101B2C0029D18378732B26D1C378303BDAB2092ABA
:101B3C0021D80479303CE2B2092A1CD84279303AD7
:101B4C00D2B2092A17D881793039C9B2092912D8E9
:101B5C00642044434FF47A7000FB03430B440A2186
:101B6C0011FB023340F69941044A8B428CBF118021
:101B7C001380012010BD002010BD00BF620E00209C
:101B8C0010B50378062B2CD14378652B29D183789B
:101B9C00762B26D1C378303BDAB2092A21D80479C6
:101BAC00303CE2B2092A1CD84279303AD2B2092A26
:101BBC0017D881793039C9B2092912D86420444325
:101BCC004FF47A7000FB03430B440A2111FB0233E0
:101BDC0040F69941044A8B428CBF1180138001203E
:101BEC0010BD002010BD00BF600E0020034A044849
:101BFC00136823F00403136000F056BD540E00204C
:101C0C003903002038B51048104D114C00F04CFD34
:101C1C00104BD3F82003FFF7C9FC284600F044FD15
:101C2C00204600F041FD0C4800F03EFD0B4BD3F874
:101C3C002003FFF7BBFC284600F036FD2046BDE82C
:101C4C00384000F031BD00BF84000020101500208A
:101C5C00E7000020640E0020A5000020EC07002007
:101C6C0010B5234CE06AFFF7A1FC224800F01CFDE4
:101C7C00214800F019FD606BFFF798FC1D4800F03F
:101C8C0013FD1D4800F010FDA06BFFF78FFC1948E9
:101C9C0000F00AFD184800F007FDE06BFFF786FC2A
:101CAC00144800F001FD144800F0FEFC206CFFF716
:101CBC007DFC104800F0F8FC0F4800F0F5FC00F03B
:101CCC002DFC0138032811D8DFE800F0020A0C0EB5
:101CDC000A4800F0E9FC0848BDE8104000F0E4BCFC
:101CEC000748F6E70748F4E70748F2E70748F0E744
:101CFC00002C014010150020E700002018030020E4
:101D0C00680300202100002042000020290100204F
:101D1C00F8B51F4F1F4E204D204C384600F0C4FC28
:101D2C001F4BD6F820031B88C01AFFF73FFC284630
:101D3C0000F0BAFC204600F0B7FC384600F0B4FCCA
:101D4C00D6F82003FFF732FC284600F0ADFC204605
:101D5C0000F0AAFC134800F0A7FC134BD3F82003A7
:101D6C00FFF724FC284600F09FFC204600F09CFC6A
:101D7C000E4800F099FC0E4BD3F82003FFF716FC2D
:101D8C00284600F091FC2046BDE8F84000F08CBCE1
:101D9C00630000201C0B002010150020E700002021
:101DAC00F8140020C6000020C0040020A50000206C
:101DBC00A811002070B51B4E1B4D33681B4C1868C6
:101DCC00FFF7F4FB284600F06FFC204600F06CFC9B
:101DDC0033685868FFF7EAFB284600F065FC20469C
:101DEC0000F062FC33689868FFF7E0FB284600F0CF
:101DFC005BFC204600F058FC3368D868FFF7D6FB34
:101E0C00284600F051FC204600F04EFC336818695F
:101E1C00FFF7CCFB284600F047FC2046BDE870409D
:101E2C0000F042BCD814002010150020E700002060
:101E3C0038B51548154D164C00F036FC154B186886
:101E4C00FFF7B4FB284600F02FFC204600F02CFCDA
:101E5C00114800F029FC114B1868FFF7A7FB284626
:101E6C0000F022FC204600F01FFC0D4800F01CFC8A
:101E7C000C4B1868FFF79AFB284600F015FC20461F
:101E8C00BDE8384000F010BC6300002010150020A5
:101E9C00E700002034150020C6000020F0140020BC
:101EAC00A50000204C0E002038B50C4B0C4D1868CA
:101EBC000C4CFFF77BFB284600F0F6FB204600F0AD
:101ECC00F3FB094B1868FFF771FB284600F0ECFB9D
:101EDC002046BDE8384000F0E7BB00BF540E0020A0
:101EEC0010150020E7000020480E002038B5114BDB
:101EFC00114D1868114CFFF759FB284600F0D4FB24
:101F0C00204600F0D1FB0E4B1868FFF74FFB28461C
:101F1C0000F0CAFB204600F0C7FB0A4B186BFFF71A
:101F2C0045FB284600F0C0FB2046BDE8384000F0D9
:101F3C00BBBB00BFDC14002010150020E700002004
:101F4C00081500200000045038B50F480F4D104CF8
:101F5C0000F0AAFB0F4B1868FFF728FB284600F08F
:101F6C00A3FB204600F0A0FB0B4800F09DFB0B4BA5
:101F7C001868FFF71BFB284600F096FB2046BDE8CF
:101F8C00384000F091BB00BF8400002010150020E9
:101F9C00E700002098110020A5000020580E00201A
:101FAC0008B5064B1868FFF701FB054800F07CFBF1
:101FBC000448BDE8084000F077BB00BFE4140020E3
:101FCC0010150020E700002008B5064B186BFFF732
:101FDC00EDFA054800F068FB0448BDE8084000F045
:101FEC0063BB00BF0074004010150020E700002008
:101FFC0010B504467D4800F057FB7D492046FFF79D
:10200C0013FB08B1FFF72CFE7A492046FFF70CFBB7
:10201C0008B1FFF77DFE78492046FFF705FB08B1B4
:10202C00FFF7C8FE75492046FFF7FEFA08B1FFF727
:10203C00FFFE73492046FFF7F7FA08B1FFF784FF5C
:10204C0070492046FFF7F0FA08B1FFF72DFF6E49F3
:10205C002046FFF7E9FA08B1FFF7A2FF6B492046CB
:10206C00FFF7E2FA08B1FFF7C1FD69492046FFF717
:10207C00DBFA08B1FFF73AFF66492046FFF7D4FABE
:10208C0008B1FFF7BFFD64492046FFF7CDFA28B130
:10209C00012000F049FA614800F006FB6049204637
:1020AC00FFF7C2FA20B100F013F95C4800F0FCFA1B
:1020BC005C492046FFF7B8FA20B100F035F95748D3
:1020CC0000F0F2FA58492046FFF7AEFA20B100F0C2
:1020DC0057F9524800F0E8FA54492046FFF7A4FAA1
:1020EC0020B100F0F5F94D4800F0DEFA2046FFF77C
:1020FC00B1FC10B1494800F0D7FA2046FFF7CAFCF2
:10210C0010B1464800F0D0FA2046FFF703FD10B19D
:10211C00424800F0C9FA2046FFF732FD10B13F48A3
:10212C0000F0C2FA42492046FFF77EFA28B1C820D7
:10213C00FEF7C4FD394800F0B7FA3E492046FFF7D8
:10214C0073FA28B1C820FEF7D3FD344800F0ACFA7E
:10215C0039492046FFF768FA28B10020FEF7DEFD6A
:10216C002E4800F0A1FA35492046FFF75DFA30B150
:10217C0040F6FF70FEF7D2FD284800F095FA304982
:10218C002046FFF751FA08B1FFF71EFF2D492046F4
:10219C00FFF74AFA38B12C4A2048136843F0400341
:1021AC00136000F081FA29492046FFF73DFA38B157
:1021BC00254A1A48136823F04003136000F074FAA0
:1021CC0023492046FFF730FA40B1224B224AD3F87C
:1021DC0020331248283B138000F066FA034800F0C5
:1021EC0063FA1E48BDE8104000F05EBAE70000201C
:1021FC002E0400204F0400200D04002000000020BD
:10220C00CB030020F7020020AA030020D6020020F6
:10221C0008010020EC030020730200203903002089
:10222C004200002021000020180300206803002039
:10223C0052020020CE010020EF01002010020020ED
:10224C0031020020B5020020540E00209402002020
:10225C00AD0100201C0B0020F81400208903002085
:10226C0008B500F085FA064B1870430707D500F047
:10227C0073FA044B1860BDE80840FFF7B9BE08BDFF
:10228C00FC140020381500200F49D1F8883043F495
:10229C007003C1F888300D4B1A68002042F001021F
:1022AC001A6098601A6822F0A85222F410221A6060
:1022BC004FF48052DA601A6822F480221A60986116
:1022CC004FF000638B60704700ED00E0001002409F
:1022DC00124B04221A70124B1A68124BDA639A6969
:1022EC0000229A61996940F6080001439961996945
:1022FC0041F040019961996941F480419961D96932
:10230C00DA61DA690243DA61DA6942F4A042DA612D
:10231C00DA6942F06002DA61704700BF44150020B0
:10232C0050150020002C0140124B03221A70124B46
:10233C001A68124B5A639A6900229A61996940F69D
:10234C00080001439961996941F4A0419961996927
:10235C0041F070019961D969DA61DA690243DA6195
:10236C00DA6942F48042DA61DA6942F04002DA61F9
:10237C00704700BF4415002050150020002C014070
:10238C00104B01221A70104B9A6900229A619969BC
:10239C0040F6080001439961996941F480419961C3
:1023AC00996941F040019961D969DA61DA690243AE
:1023BC00DA61DA6942F48042DA61DA6942F04002A9
:1023CC00DA61704744150020002C01403A4A70B580
:1023DC004BF29873394D1360B3FBF0F0384B286017
:1023EC001A6E384C42F400621A66DA6C42F0010242
:1023FC00DA644FF0904300261A6822F440321A60D7
:10240C001A6842F400321A601A6822F440221A60E8
:10241C001A6842F400221A601A6822F440121A60F8
:10242C001A6842F400121A601A6822F440021A6008
:10243C001A6842F400021A605A6A42F001025A62A7
:10244C005A6A42F010025A625A6A42F480725A6214
:10245C005A6A42F480525A62236A2662FFF790FF4E
:10246C002B68E3626422B3FBF2F3174A0133136067
:10247C00164B1E70236A43F001032362236A43F058
:10248C0010032362236A43F480732362236A43F4A8
:10249C0080532362A26940F608010A43A261E369F2
:1024AC000B43E361636C43F400436364236843F0C0
:1024BC000103236070BD00BF541500204815002097
:1024CC0000100240002C0140401500203C1500205B
:1024DC00104B02221A70104B9A6900229A6199696A
:1024EC0040F6080001439961996941F050019961E6
:1024FC00996941F4A0419961D969DA61DA690243B9
:10250C00DA61DA6942F04002DA61DA6942F4A04237
:10251C00DA61704744150020002C0140014B1878FB
:10252C00704700BF441500200E4B0F491A68104429
:10253C000E4A18601268013A904228BF1A600C4A81
:10254C001B681268B3FBF2F20A700A4A1278032A6B
:10255C0002D1094A53637047042A04BF064AD36365
:10256C00704700BF501500203C1500204815002076
:10257C004015002044150020002C01400C4B0D4947
:10258C001A68824294BF0022121A1A600A4A1B6807
:10259C001268B3FBF2F20A70084A1278032A02D1CD
:1025AC00074A53637047042A04BF054AD363704734
:1025BC00501500203C15002040150020441500202B
:1025CC00002C0140431E622B0DD8074B1870074B93
:1025DC001B685843064B1860064B5863D8635A69FE
:1025EC0042F001025A6170473C1500204015002052
:1025FC0050150020002C0140244B1A6E42F48042EE
:10260C0010B51A66DA6C42F00202DA64204B1A68D2
:10261C0022F440521A601A6842F400521A601A6886
:10262C0022F440421A601A6842F400421A601A6A94
:10263C0042F0E0621A621A6A42F0E0421A62154BEA
:10264C001A6842F02C021A600021DA68D960DA6844
:10265C0042F4CF7242F00102DA600F4A20201024BB
:10266C00C2F8840182F8254350601A6842F00102D6
:10267C001A6011221A85094B094A1970094B1970F5
:10268C00137843F00503137010BD00BF0010024017
:10269C00000400480038014000E100E06015002013
:1026AC0058150020611500200A4A002330B513701C
:1026BC000578094C19469D4202D801B1137030BD02
:1026CC0010F8011F2185E1690906FCD50133DBB245
:1026DC000121F0E760150020003801401948838C77
:1026EC00DBB2A3F120025E2AF0B50DD816490A78A8
:1026FC008C18013263709BB20A700385114A136AFD
:10270C0043F020031362F0BD0D2BF7D10E4A0F4995
:10271C0015780F4C00230B701E46DFB20133581E88
:10272C00C0B285420AD806B10F7000231370094A53
:10273C002570137843F004031370DFE7D05CE0548A
:10274C000126EAE70038014090150020B115002061
:10275C006815002058150020034A0448137823F00C
:10276C0004031370704700BF581500206815002033
:10277C00014B1878704700BF58150020DFF834D093
:10278C00002103E00C4B5B58435004310B480C4BBD
:10279C0042189A42F6D30B4A02E0002342F8043B5B
:1027AC00094B9A42F9D3FFF76FFD00F011F8FEF7D1
:1027BC005FFBFEE7000001208428000800000020D9
:1027CC007404002074040020B4150020FEE70000FF
:1027DC0070B50D4E0D4CA41BA4100025A54209D1BB
:1027EC000B4E0C4C00F018F8A41BA4100025A542AD
:1027FC0005D170BD56F8253098470135EEE756F8EF
:10280C00253098470135F2E77C2800087C28000821
:10281C007C28000880280008F8B500BFF8BC08BC6C
:10282C009E467047F8B500BFF8BC08BC9E46704782
:10283C000000000000000000010203040607080964
:10284C00A0860100400D0300801A060000350C0024
:10285C0040420F0080841E0000093D0000127A00E7
:10286C000024F40000366E010048E801006CDC0224
:04287C00B10100089E
:042880008D010008BE
:102884000462616E6B0000000000000000000000A4
:102894000000000000000000000000000000000034
:1028A4000005626F6F7374000000000000000000F8
:1028B4000000000000000000000000000000000014
:1028C4000000046275636B0000000000000000005B
:1028D40000000000000000000000000000000000F4
:1028E40000000003433A2000000000000000000044
:1028F40000000000000000000000000000000000D4
:102904000000000003453A20000000000000000021
:1029140000000000000000000000000000000000B3
:10292400000000000003493A2000000000000000FD
:102934000000000000000000000000000000000093
:10294400000000000000034F3A20000000000000D7
:102954000000000000000000000000000000000073
:1029640000000000000000020A0D0000000000004A
:102974000000000000000000000000000000000053
:10298400000000000000000004636F6E7600000089
:102994000000000000000000000000000000000033
:1029A400000000000000000000036370310000001C
:1029B4000000000000000000000000000000000013
:1029C40000000000000000000000036370320000FB
:1029D40000000000000000000000000000000000F3
:1029E40000000000000000000000000363703300DA
:1029F40000000000000000000000000000000000D3
:102A040000000000000000000000000003637034B8
:102A140000000000000000000000000000000000B2
:102A240000000000000000000000000000046373C8
:102A340072730000000000000000000000000000AD
:102A44000000000000000000000000000000056419
:102A54006163646E000000000000000000000000DC
:102A6400000000000000000000000000000000055D
:102A74006461636D6E00000000000000000000004F
:102A84000000000000000000000000000000000042
:102A9400056461636D780000000000000000000020
:102AA4000000000000000000000000000000000022
:102AB400000664616372707400000000000000008E
:102AC4000000000000000000000000000000000002
:102AD40000000564616375700000000000000000E0
:102AE40000000000000000000000000000000000E2
:102AF4000000000364632B000000000000000000DD
:102B040000000000000000000000000000000000C1
:102B1400000000000664727664697300000000001F
:102B240000000000000000000000000000000000A1
:102B3400000000000005647276656E00000000006D
:102B44000000000000000000000000000000000081
:102B540000000000000005666C636C720000000059
:102B64000000000000000000000000000000000061
:102B74000000000000000004666C616700000000B3
:102B84000000000000000000000000000000000041
:102B94000000000000000000046C6F636B00000084
:102BA4000000000000000000000000000000000021
:102BB40000000000000000000001240000000000EC
:102BC4000000000000000000000000000000000001
:102BD40000000000000000000000000000000000F1
:102BE40030303030303030000470617373000000D6
:102BF40000000000000000000000000000000000D1
:102C04000000000000000000000B444556405354EF
:102C14004D33323A200000000000000000000000A4
:102C240000000000000000000000047374757000D0
:102C34000000000000000000000000000000000090
:102C44000000000000000000000000057462616ED6
:102C54006B00000000000000000000000000000005
:102C64000000000000000000000000000474656D16
:102C740070000000000000000000000000000000E0
:102C8400000000000000000000000000000474695F
:102C94006D6500000000000000000000000000005E
:102CA40000000000000000000000000000000474A8
:102CB400696D310000000000000000000000000009
:102CC40000000000000000000000000000000004FC
:102CD400766F6C740000000000000000000000002B
:102CE40000000000000000000000000000000000E0
:042CF40000093D0096
:04000005080027893F
:00000001FF
