:020000040800F2
:10000000000001202D220008F90F0008FB0F000856
:10001000FD0F0008FF0F000801100008000000009D
:1000200000000000000000000000000003100008B5
:100030000510000800000000071000080910000863
:100040007D2200087D2200087D2200087D22000814
:100050007D2200087D2200087D2200087D22000804
:100060007D2200087D2200087D2200087D220008F4
:100070007D2200087D2200087D2200087D220008E4
:100080007D2200087D220008690F00087D220008FB
:100090007D2200087D2200087D2200087D220008C4
:1000A0007D2200087D2200087D2200087D220008B4
:1000B0007D22000800000000000000007D220008F2
:1000C0007D22000800000000000000007D220008E2
:1000D00000000000290F00087D2200080000000039
:1000E0007D2200087D2200080000000000000000C2
:1000F0000000000000000000000000000000000000
:100100000000000000000000000000007D22000848
:1001100000000000000000007D2200087D22000891
:100120007D2200087D2200087D2200087D22000833
:100130007D22000800000000000000000000000018
:100140007D2200084D0F00087D2200087D22000856
:100150007D2200087D2200087D2200087D22000803
:100160007D2200087D2200087D220008000000009A
:100170007D2200087D220008000000000000000031
:0C0180007D2200087D2200087D2200087E
:10018C0010B5054C237833B9044B13B10448AFF3C5
:10019C0000800123237010BD8C03002000000000A0
:1001AC00C822000808B5034B1BB103490348AFF341
:1001BC00008008BD0000000090030020C822000849
:1001CC0010B5084B044618684FF47A73B0FBF3F083
:1001DC0000F06AF8002221464FF0FF3000F030F8B2
:1001EC00002010BD8803002008B5032000F016F88D
:1001FC000020FFF7E5FF00F04BFE002008BD0000DB
:10020C00024A136801331360704700BFA803002033
:10021C00014B1868704700BFA8030020074AD36839
:10022C0023F4E0631B041B0C43F0BF63000243F494
:10023C00003300F4E0600343D360704700ED00E04E
:10024C00174B30B5DC68C4F30224C4F10703251D39
:10025C00042B28BF0423062D4FF0010505FA03F3E8
:10026C0003F1FF338CBF033C00241940A14005FA75
:10027C0004F4013C2240002842EA01024FEA021237
:10028C00AFBF00F1604000F00F00064BD2B2A5BF2B
:10029C0000F56140D2B21A5480F8002330BD00BF83
:1002AC0000ED00E014ED00E00138B0F1807F0AD2DF
:1002BC00064B074A5860F02182F8231000200722D1
:1002CC0098601A6070470120704700BF10E000E092
:1002DC0000ED00E0044B1A6804280CBF42F0040245
:1002EC0022F004021A60704710E000E0704708B575
:1002FC00FFF7FCFF08BD0000024B186800F4C0605B
:10030C00704700BF00700040164B1A68B0F5007FB4
:10031C0002F4C0621AD1B2F5007F13D01A681249E8
:10032C0022F4C06242F400721A60104A1268B2FBE6
:10033C00F1F132224A4312B15969490504D45B697F
:10034C005B050DD400207047013AF4E7B2F5806FDD
:10035C001FBF1A6822F4C06242F480621A60F1E78F
:10036C00032070470070004040420F0088030020BB
:10037C0037B51E4DAB6DDA00044618D5FFF7BCFF40
:10038C00B0F5007F23D1802C29D9A02C8CBF022062
:10039C000120174A136823F0070303431360136803
:1003AC0003F00703181A18BF012003B030BDAB6D62
:1003BC0043F08053AB65AB6D03F080530193019B0D
:1003CC00FFF79AFFAB6D23F08053AB65D8E7802C19
:1003DC0007D808D0A4F1700358425841D9E700203F
:1003EC00D7E70320D5E70220D3E700BF0010024077
:1003FC00002002402F4B9A6812F00C0F10B509D058
:10040C009A6802F00C020C2A2DD1DA6802F0030271
:10041C00012A28D11A682849120755BFD3F894200D
:10042C001A68C2F30322C2F3031251F8222099680E
:10043C0011F00C0F0CBF10460020996801F00C0154
:10044C000C2930D1DC68D868C0F30210411C04F0D0
:10045C000300022819D0032826D0B2FBF1F2D86889
:10046C00C0F3062017E09A6802F00C02042A07D0A9
:10047C009A6802F00C02082A04D110480022DCE72A
:10048C000F48FBE700200246D7E7DA680C48C2F3B6
:10049C000622B0FBF1F0DB68C3F341630133504338
:1004AC005B00B0FBF3F010BDDA680448C2F306221F
:1004BC00EFE700BF00100240F022000800127A00A3
:1004CC000024F40003682DE9F3410546D80639D51C
:1004DC00AB4CA36813F00C0F62D12368990703D5BA
:1004EC00AB690BB901207FE02368286A1A0756BF55
:1004FC00D4F8943023681B0903F0F00383423AD2FA
:10050C00FFF736FF0028EDD1236843F00803236082
:10051C0023682A6A23F0F003134323606368EA69B3
:10052C0023F47F4343EA02236360FFF763FFA3686E
:10053C00944AC3F30313D35CD840934B1860002048
:10054C00FFF73EFE2B68D80761D42B68990700F1A2
:10055C00A9802B681A0700F1E7802B685B0700F174
:10056C0015812B689A0600F17C81AA6A002A40F05A
:10057C00A381002038E0236843F00803236023683C
:10058C0023F0F003034323606368EA6923F47F4399
:10059C0043EA02236360FFF7EBFE0028C5D0A1E716
:1005AC00AB6923B3236843F001032360FFF730FEEC
:1005BC00064623689B0711D5236843F00803236084
:1005CC0023682A6A23F0F003134323606368EA6903
:1005DC0023F47F4343EA02236360B3E7FFF718FE7B
:1005EC00801B0228E5D9032002B0BDE8F081236806
:1005FC0023F001032360FFF70BFE064623689F07D9
:10060C00A0D5FFF705FE801B0228F7D9EBE75C4C61
:10061C00A36803F00C03082B09D0A36803F00C03A8
:10062C000C2B0BD1E36803F00303032B06D12368D7
:10063C009A038AD56B68002B87D153E76B68B3F5A7
:10064C00803F10D1236843F480332360FFF7E0FD33
:10065C00064623689B033FF578AFFFF7D9FD801B57
:10066C006428F6D9BFE7B3F5A02F04D1236843F46F
:10067C0080232360E6E7226822F48032226022681D
:10068C0022F480222260002BE0D1FFF7C1FD064648
:10069C0023689F037FF559AFFFF7BAFD801B6428D1
:1006AC00F6D9A0E7364CA36803F00C03042B09D051
:1006BC00A36803F00C030C2B13D1E36803F00303C2
:1006CC00022B0ED123685E0503D5EB68002B3FF49B
:1006DC0009AF63682A6923F0F85343EA0263636045
:1006EC0037E7EB687BB1236843F480732360FFF733
:1006FC008FFD064623685805EBD4FFF789FD801B58
:10070C000228F7D96FE7236823F480732360FFF77F
:10071C007FFD0646236859057FF51BAFFFF778FD73
:10072C00801B0228F6D95EE76B69154C9BB1D4F897
:10073C00943043F00103C4F89430FFF769FD06468A
:10074C00D4F894309F073FF508AFFFF761FD801B8D
:10075C000228F5D947E7D4F8943023F00103C4F804
:10076C009430FFF755FD0646D4F8943098077FF582
:10077C00F4AEFFF74DFD801B0228F5D933E700BF1F
:10078C0000100240E022000888030020794CA36D81
:10079C00D90027D4A36D43F08053A365A36D03F058
:1007AC0080530193019B0127734E3368DA051BD5E7
:1007BC00AB68012B29D1D4F8903043F00103C4F875
:1007CC009030FFF725FD41F288380646D4F890307A
:1007DC00980740D5002F3FF4C4AEA36D23F080538F
:1007EC00A365BEE60027DFE7336843F4807333600C
:1007FC00FFF70EFD80463368DB05D9D4FFF708FD03
:10080C00A0EB08000228F6D9EDE6052B06D1D4F8AA
:10081C00903043F00403C4F89030CCE7D4F8902027
:10082C0022F00102C4F89020D4F8902022F00402A7
:10083C00C4F89020002BC4D1FFF7EAFC41F28838B1
:10084C000646D4F890309907C4D5FFF7E1FC801B1D
:10085C004045F6D9C7E6FFF7DBFC801B4045B5D910
:10086C00C1E66B6A434C9BB1D4F8983043F001035A
:10087C00C4F89830FFF7CCFC0646D4F898309B07A8
:10088C003FF573AEFFF7C4FC801B0228F5D9AAE62E
:10089C00D4F8983023F00103C4F89830FFF7B8FC73
:1008AC000646D4F898309F077FF55FAEFFF7B0FC93
:1008BC00801B0228F5D996E62E4CA36803F00C0396
:1008CC000C2B3FF40FAE2368022A23F080732360B5
:1008DC0036D1FFF79DFC0646236898012AD4AB6BF2
:1008EC006A6BDB0643EA0223EA6A13432A6B013A7A
:1008FC0043EA0213EA6B5208013A43EA42532A6C68
:10090C005208013A43EA4263E360236843F0807380
:10091C002360E36843F08073E360FFF779FC0546DE
:10092C00236899013FF525AEFFF772FC401B0228A6
:10093C00F6D958E6FFF76CFC801B0228CCD952E69E
:10094C0023681A015EBFE36823F00303E360E368E6
:10095C0023F0887323F48033E360FFF759FC0546DA
:10096C0023689B017FF505AEFFF752FC401B022864
:10097C00F6D938E60010024000700040564A136861
:10098C0003F007038B422DE9F04105460E462BD3AD
:10099C002B68D90735D429688A0700F183804E4A21
:1009AC00136803F007039E42C0F0848011F0040F1B
:1009BC004A4C40F08A800B0706D5A3682A6923F4B9
:1009CC00605343EAC203A360FFF714FDA368444AD3
:1009DC00C3F30313D35CD840424B18600020FFF7DD
:1009EC00EFFB0020BDE8F081136823F007030B43F5
:1009FC001360136803F007039942C9D00120BDE8C6
:100A0C00F0816A68354C032A23681CD113F0007FEF
:100A1C00F4D0A36823F003031343A360FFF7F8FBA0
:100A2C006B68032B074641F2883818D1A36803F092
:100A3C000C030C2BAFD0FFF7EBFBC01B4045F5D9DB
:100A4C000320BDE8F081022A02D113F4003FDFE756
:100A5C0012B913F0020FDBE713F4806FD8E7022B07
:100A6C000AD1A36803F00C03082B94D0FFF7D0FB3A
:100A7C00C01B4045F5D9E3E773B9A36813F00C0F1D
:100A8C0089D0FFF7C5FBC01B4045F6D9D8E7FFF767
:100A9C00BFFBC01B4045D3D8A36803F00C03042B49
:100AAC00F5D178E70D4AA868936823F0F003034367
:100ABC00936074E7136823F00703334313601368E0
:100ACC0003F007039E4299D170E7A368EA6823F408
:100ADC00E0631343A3606EE7002002400010024065
:100AEC00E022000888030020014B1868704700BF03
:100AFC0088030020474BDA6C42F40052DA64DA6C5B
:100B0C0042F00302DA64444B1A6842F003021A60A2
:100B1C001A6842F00C021A604FF09042136843F4CA
:100B2C00405313603D4B9A68900064D43C4A9368E0
:100B3C0043F480339360394B9A68D10060D5374BBE
:100B4C001A46996811F03F0F99685ED141F0004147
:100B5C0099609368002BFCDB324B00211960936881
:100B6C0043F0010393602D4B1A68D207FCD51A6829
:100B7C0042F001021A605A6842F00C025A601A6B79
:100B8C0000221A63196B41F470711963196B41F4EB
:100B9C0080011963596B41F007015963196B41F0DE
:100BAC0004011963D96CDA64D96C41F40031D9644D
:100BBC00D96C41F43061D964D96C41F00101D9642C
:100BCC00596941F0126141F4922141F4127141F0E2
:100BDC00010159619869144901439961D96841F43B
:100BEC008041D960114B4FF48021C3F8801183F8F8
:100BFC001223196070479A6822F000529A6092E7AB
:100C0C009A6842F080529A6096E741F03001996000
:100C1C0097E700BF00100240000400480000045099
:100C2C0000030450AC0300204992240100E100E0D1
:100C3C00064B1A6842F00C021A605A6842F00C0219
:100C4C005A609A6842F004029A607047000004509F
:100C5C00064B1A6842F040021A605A6842F0400291
:100C6C005A609A6842F008029A607047000004507B
:100C7C0038B5174C4FF47A7301210420236000F02F
:100C8C0081FC144A936D43F0005393654FF09042EE
:100C9C000025136843F4406313600F4BDA6B42F486
:100CAC008032DA631A6842F480321A601A6A1D6262
:100CBC0021681A6A42EA01421A620121032000F0FB
:100CCC0061FC29460420BDE8384000F05BBC00BF45
:100CDC00B00300200010024000740040064A136864
:100CEC001844064B10601A6A00221A621A6A42EA09
:100CFC0000401862704700BFB00300200074004031
:100D0C00084B1A68101A04BF01221A60064A18BF51
:100D1C001860116A00211162116A1B6841EA0343D1
:100D2C0013627047B003002000740040114A936DA9
:100D3C0043F000439365104B1A6942F001021A61AB
:100D4C009A6842F002029A60C0229A610B4A022110
:100D5C002020C2F8881182F841039160084A0021D2
:100D6C00116051609160D16011611A6942F0040206
:100D7C001A61704700100240007C004000E100E066
:100D8C00B4030020164B1A680132F92A1A6004D9F0
:100D9C005A6801325A6000221A605A68B2F57A7F9A
:100DAC0004D39A6801329A6000225A609A683B2AEE
:100DBC0004D9DA680132DA6000229A60DA683B2AD8
:100DCC0004D91A6901321A610022DA601A69172AE9
:100DDC0004D95A6901325A6100221A61704700BF66
:100DEC00B403002000487047B403002010B596B03F
:100DFC001023059301230B93B022002305A80C9319
:100E0C000D920F93FFF75EFB00B1FEE70F230190ED
:100E1C00029003900490022168460093FFF7AEFD08
:100E2C0000B1FEE74FF40070FFF76EFA044600B114
:100E3C00FEE7FFF759FE4FF47A73B0FBF3F0FFF7C0
:100E4C0033FA0420FFF746FA224621464FF0FF30D2
:100E5C00FFF7F6F916B010BD08B5FFF7C5F9FFF7A7
:100E6C00C5FF00F0D3F801F019F9FFF75FFFFFF7AA
:100E7C0041FE3C2000F0D0FFFFF7FAFE00F0F8F83E
:100E8C0000F012FF00F086FA00F060F9F8E70000BD
:100E9C00214B07B51A6E42F001021A661A6E02F067
:100EAC0001020092009A9A6D42F080529A659B6DF5
:100EBC0003F0805301930320019BFFF7AFF900224D
:100ECC0011466FF00B00FFF7BBF9002211466FF0D3
:100EDC000A00FFF7B5F9002211466FF00900FFF781
:100EEC00AFF9002211466FF00400FFF7A9F90022B8
:100EFC0011466FF00300FFF7A3F9002211466FF0C3
:100F0C000100FFF79DF9002211464FF0FF30FFF76B
:100F1C0097F903B05DF804FB0010024010B5064CC5
:100F2C00064AE36913609B0601D501F029F9236A8F
:100F3C004FF0FF33236210BD00380140D003002076
:100F4C0008B5FFF71FFF044A53686FEA53236FEA93
:100F5C004323536008BD00BF007C004038B5204DD2
:100F6C00204C2B68236059070AD5286C1E4B002196
:100F7C00188080B200F090FA2B6843F004032B60C9
:100F8C0023681A0706D5164A136843F00803136042
:100F9C0000F056FA23685B0619D5114C124DD4F8A3
:100FAC0080002880012180B200F076FAD4F8840009
:100FBC002880012180B200F06FFA00F057FA236804
:100FCC0043F0400323600021032000F0DBFA044AC5
:100FDC0013686FEAD3236FEAC323136038BD00BFD5
:100FEC0000000450D0030020CE0300207047FEE721
:100FFC00FEE7FEE7FEE770477047704708B5FFF75E
:10100C00FFF8BDE80840FFF772B90000164AD36C30
:10101C0043F00303D364154B1A6822F0C0021A6024
:10102C001A6842F040021A601A6822F440721A6080
:10103C001A6842F480721A604FF09042116821F0E5
:10104C0040411160116841F080411160596921F0F3
:10105C0008015961596921F010015961536923F450
:10106C0000435361704700BF001002400004004869
:10107C00234A24482449F8B500231360234A244DFD
:10108C001360244A1F4613701C46DEB2642E2DD109
:10109C0007B11670C5F82043C0F82043C1F82043AF
:1010AC00FFF7A0FE1C4B18601C4B1C601C4B1C60FB
:1010BC001C4B31221A601C4B01221A601B4B1C80EA
:1010CC001B4B4FF4FA721A801A4B28221A801A4BB7
:1010DC004FF434721A80194BB3F90020184B1A8054
:1010EC00184BB3F90020184B1A80F8BD45F8234073
:1010FC0040F8234041F8234001270133C5E700BFE6
:10110C00CC130020A4100020D4030020500D00208C
:10111C00280A00205C0D0020D4130020F0130020BE
:10112C00240A0020600D0020540D0020E81300203C
:10113C00680D0020A010002094100020A875FF1F3F
:10114C00F4130020CA75FF1FEA1300202DE9F84F95
:10115C0000F016FF474A136813F0110F144640F0C5
:10116C00868059067AD59A0608D5434A4349D2F85F
:10117C00202323F02003283A0A802360012813D16E
:10118C003F4D032000F064FFD5F8201340F20A52C3
:10119C00914201D900F0C0FDD5F8202340F209534B
:1011AC009A4201D800F0ECFD2368DFF8E480354F5B
:1011BC0013F0800F47D1344E344D3388D5F82023AB
:1011CC00DFF8B8B0DFF8B0A0DFF8C8900A3B9A425D
:1011DC0013D2DAF82033BBF800209A1AB9F8003091
:1011EC00033B9A4201D200F0D1FEBBF80030DAF892
:1011FC0020239A4201D200F0C9FE3388D5F820236F
:10120C000A339A4201D900F0F3FEBBF80030DAF849
:10121C002023D21AB9F8003003339A4201D900F0D6
:10122C00E7FE236843F080032360D8F800305B6846
:10123C0003F1FA02B2F57A7F2ABFA3F2EE233A60E9
:10124C003B60BDE8F88FD8F8002051683A689142AD
:10125C000DD123F080032360BDE8F88F23F08003C9
:10126C000128136003D0BDE8F84F00F0AFBDBDE816
:10127C00F88F00BF600D0020280A0020E813002022
:10128C00A410002098100020680D0020D40300202A
:10129C00D4130020A0100020F0B5194A194C1A4E96
:1012AC000146002330274FF00A0E072B0CD11749AB
:1012BC00174A0B700023106033701C46D8B20728F5
:1012CC0016D104B13070F0BD9142B1FBF2F503F1CF
:1012DC00010388BF05F1300CEDB28CBF84F800C05F
:1012EC00277002FB1511DBB2B2FBFEF20134DCE716
:1012FC00D418C8182479447001330124DEE700BFE8
:10130C0040420F00980200205C0D0020FC130020CE
:10131C0094020020F0B50B780778BB424FF0000325
:10132C0009D10B4C1A4623701E460123D5B2AF428D
:10133C0003D806B125701846F0BD86188D1876783E
:10134C006D780132AE4218BF00230126EEE700BFD4
:10135C005C0D00200D49002330B51A460B60044685
:10136C000132656844F8045BD2B2C72A2B44F7D12A
:10137C00074C2270D0F82423C0F81C2313440B60B4
:10138C00C822B3FBF2F3C0F8203330BDDC130020CD
:10139C005C0D002038B5204C23689A071AD51F48DD
:1013AC00FFF7D8FF1E48FFF7D5FF1E48FFF7D2FF07
:1013BC00236823F00603236023681B071CD51A48F7
:1013CC00FFF7C8FF1948FFF7C5FF236823F0080390
:1013DC00236038BD13F0040F154A07D101231360A5
:1013EC00FFF726FC236843F00403E4E71268042AA1
:1013FC00E2D123F00403DEE70E4D0F4C2B685A6844
:10140C0023689A42E5D00D4B01221A60FFF720FCAD
:10141C002B685B68DCE700BF600D0020280A002009
:10142C00A4100020D40300206C0D0020FC0600202A
:10143C00540D0020D4130020240A0020D0130020C7
:10144C00074A136843F002031360064A136801331A
:10145C001360054A536823F00C035360704700BFB8
:10146C00600D0020F813002000000450074A136898
:10147C0043F008031360064A136801331360054AEE
:10148C00536823F060035360704700BF600D002069
:10149C00F8130020000004502C4A1368013310B5D7
:1014AC00136000293BD12A4C2368022B2BD0032B31
:1014BC002FD0012B26D127490A6801320A60264A0F
:1014CC00C2F8240301332360244B1B68642B08D916
:1014DC00234B1B68642B81BF224A136823F0100333
:1014EC0013601C4B1B68642B0CD91F4B1B68642BA3
:1014FC0008D91E4B1B68642B81BF1A4A136823F052
:10150C000103136010BD18490A6801320A60184AB9
:10151C00D6E716490A6801320A60164AD0E7164A1D
:10152C001368012B02D0022B0AD010BD0B4C216882
:10153C00013121601149C1F8240301331360C3E761
:10154C00074C2168013121600D49F4E7D8130020C4
:10155C00540D002020140020280A00209C1000208C
:10156C00640D0020600D0020E0130020580D0020B9
:10157C00D4030020A4100020D01300206C0D0020F8
:10158C00FC060020064A012321B1516983400B431C
:10159C00536170475169834021EA0303F8E700BFA8
:1015AC000004004808B50378042B18D14378642B49
:1015BC0015D18378632B12D1C378303BDBB2092B66
:1015CC000DD800793038C0B2092808D803EB830352
:1015DC0000EB4300C0B200F03BFD012008BD002031
:1015EC0008BD000010B50378062B2CD14378692B6D
:1015FC0029D18378732B26D1C378303BDAB2092AF0
:10160C0021D80479303CE2B2092A1CD84279303A0C
:10161C00D2B2092A17D881793039C9B2092912D81E
:10162C00642044434FF47A7000FB03430B440A21BB
:10163C0011FB023340F6F701044A8B428CBF118038
:10164C001380012010BD002010BD00BFA010002091
:10165C0010B50378062B2CD14378762B29D18378BF
:10166C00732B26D1C378303BDAB2092A21D80479FE
:10167C00303CE2B2092A1CD84279303AD2B2092A5B
:10168C0017D881793039C9B2092912D8642044435A
:10169C004FF47A7000FB03430B440A2111FB023315
:1016AC0040F69941044A8B428CBF11801380012073
:1016BC0010BD002010BD00BF680D0020034A044877
:1016CC00136823F00403136000F040BD600D00208C
:1016DC007302002038B51048104D114C00F036FD47
:1016EC00104BD3F82003FFF7D7FD284600F02EFD52
:1016FC00204600F02BFD0C4800F028FD0B4BD3F8D6
:10170C002003FFF7C9FD284600F020FD2046BDE868
:10171C00384000F01BBD00BF84000020FC130020EB
:10172C00E70000206C0D0020A5000020FC06002026
:10173C0070B5264E264D274CF06AFFF7ADFD2846B6
:10174C0000F004FD204600F001FD706BFFF7A4FDD6
:10175C00284600F0FBFC204600F0F8FCB06BFFF7CD
:10176C009BFD284600F0F2FC204600F0EFFCB0692F
:10177C00FFF792FD284600F0E9FC204600F0E6FC5D
:10178C00F069FFF789FD284600F0E0FC204600F0E8
:10179C00DDFC306AFFF780FD284600F0D7FC2046C0
:1017AC0000F0D4FC3068FFF777FD284600F0CEFC43
:1017BC00204600F0CBFC706AFFF76EFD284600F067
:1017CC00C5FC2046BDE8704000F0C0BC002C0140B8
:1017DC00FC130020E7000020F8B51F4F1F4E204DD2
:1017EC00204C384600F0B2FC1F4BD6F820031B8867
:1017FC00C01AFFF751FD284600F0A8FC204600F067
:10180C00A5FC384600F0A2FCD6F82003FFF744FDF7
:10181C00284600F09BFC204600F098FC134800F092
:10182C0095FC134BD3F82003FFF736FD284600F048
:10183C008DFC204600F08AFC0E4800F087FC0E4B15
:10184C00D3F82003FFF728FD284600F07FFC204644
:10185C00BDE8F84000F07ABC63000020280A0020A4
:10186C00FC130020E7000020E8130020C600002035
:10187C00D4030020A5000020A410002070B51B4E3E
:10188C001B4D33681B4C1868FFF706FD284600F00B
:10189C005DFC204600F05AFC33685868FFF7FCFCEE
:1018AC00284600F053FC204600F050FC3368986842
:1018BC00FFF7F2FC284600F049FC204600F046FCFD
:1018CC003368D868FFF7E8FC284600F03FFC204658
:1018DC0000F03CFC33681869FFF7DEFC284600F08A
:1018EC0035FC2046BDE8704000F030BCD41300201D
:1018FC00FC130020E700002038B51548154D164C98
:10190C0000F024FC154B1868FFF7C6FC284600F0C5
:10191C001DFC204600F01AFC114800F017FC114B7E
:10192C001868FFF7B9FC284600F010FC204600F0C0
:10193C000DFC0D4800F00AFC0C4B1868FFF7ACFCD2
:10194C00284600F003FC2046BDE8384000F0FEBB02
:10195C0063000020FC130020E7000020201400206E
:10196C00C6000020E0130020A5000020580D002028
:10197C0038B50C4B0C4D18680C4CFFF78DFC2846F9
:10198C0000F0E4FB204600F0E1FB094B1868FFF780
:10199C0083FC284600F0DAFB2046BDE8384000F016
:1019AC00D5BB00BF600D0020FC130020E700002019
:1019BC00540D002038B5114B114D1868114CFFF720
:1019CC006BFC284600F0C2FB204600F0BFFB0E4B20
:1019DC001868FFF761FC284600F0B8FB204600F0C1
:1019EC00B5FB0A4B186BFFF757FC284600F0AEFB13
:1019FC002046BDE8384000F0A9BB00BFD81300203A
:101A0C00FC130020E7000020F81300200000045015
:101A1C0038B50F480F4D104C00F098FB0F4B186861
:101A2C00FFF73AFC284600F091FB204600F08EFBB5
:101A3C000B4800F08BFB0B4B1868FFF72DFC28466E
:101A4C0000F084FB2046BDE8384000F07FBB00BFAF
:101A5C0084000020FC130020E70000209C100020D4
:101A6C00A5000020640D002008B5064B186BFFF78D
:101A7C0013FC054800F06AFB0448BDE8084000F080
:101A8C0065BB00BF00740040FC130020E700002081
:101A9C0010B504466A4800F059FB6A492046FFF726
:101AAC0039FC08B1FFF744FE67492046FFF732FCCA
:101ABC0008B1FFF791FE65492046FFF72BFC08B1F2
:101ACC00FFF7DCFE62492046FFF724FC08B1FFF764
:101ADC0013FF60492046FFF71DFC08B1FFF798FF84
:101AEC005D492046FFF716FC08B1FFF741FF5B4943
:101AFC002046FFF70FFC08B1FFF7E0FD58492046E0
:101B0C00FFF708FC08B1FFF755FF56492046FFF7D1
:101B1C0001FC08B1FFF7DEFD53492046FFF7FAFB45
:101B2C0020B100F033FA514800F010FB5049204628
:101B3C00FFF7F0FB20B100F0EFF84C4800F006FB8B
:101B4C004C492046FFF7E6FB20B100F019F9474855
:101B5C0000F0FCFA48492046FFF7DCFB20B100F00E
:101B6C0035F9424800F0F2FA44492046FFF7D2FB1F
:101B7C0020B100F0DFF93D4800F0E8FA2046FFF70D
:101B8C0011FD10B1394800F0E1FA2046FFF72AFDAB
:101B9C0010B1364800F0DAFA2046FFF759FD10B1C3
:101BAC00324800F0D3FA36492046FFF7B3FB28B190
:101BBC00C820FFF793F82D4800F0C8FA31492046A9
:101BCC00FFF7A8FB28B1C820FFF79AF8274800F0C8
:101BDC00BDFA2D492046FFF79DFB08B1FFF744FFE6
:101BEC002A492046FFF796FB38B1294A1F4813684B
:101BFC0043F04003136000F0A9FA26492046FFF792
:101C0C0089FB38B1224A1948136823F0400313604A
:101C1C0000F09CFA20492046FFF77CFB40B11F4B9B
:101C2C001F4AD3F820331148283B138000F08EFA5A
:101C3C00034800F08BFA1B48BDE8104000F086BA50
:101C4C00E700002045030020660300202403002049
:101C5C0000000020E20200203102002010020020CF
:101C6C000801002003030020AD01002073020020B6
:101C7C00420000202100002052020020A00200207F
:101C8C008C0100204A0100206B010020EF01002094
:101C9C00600D0020CE01002029010020280A002020
:101CAC00E8130020C102002008B500F0B3FA064B7F
:101CBC001870430707D500F0A1FA044B1860BDE873
:101CCC000840FFF7E5BE08BDEC13002024140020EB
:101CDC000F49D1F8883043F47003C1F888300D4BAC
:101CEC001A68002042F001021A6098601A6822F00B
:101CFC00A85222F410221A604FF48052DA601A684B
:101D0C0022F480221A6098614FF000638B60704758
:101D1C0000ED00E000100240154B04221A70154B28
:101D2C00154A1968154B1964126802EB82020A44B1
:101D3C00DA639A6900229A61996940F608000143B6
:101D4C009961996941F4A0419961996941F05001F7
:101D5C009961D969DA61DA690243DA61DA6942F4C4
:101D6C00C042DA61DA6942F06002DA61704700BFA2
:101D7C0030140020381400202C140020002C0140BA
:101D8C00104B03221A70104B9A6900229A619969C0
:101D9C0040F6080001439961996941F4C041996189
:101DAC00996941F060019961D969DA61DA69024394
:101DBC00DA61DA6942F4A042DA61DA6942F050027F
:101DCC00DA61704730140020002C0140104B0122C6
:101DDC001A70104B9A6900229A61996940F60800B2
:101DEC0001439961996941F480419961996941F084
:101DFC0050019961D969DA61DA690243DA61DA6909
:101E0C0042F48042DA61DA6942F05002DA617047DA
:101E1C0030140020002C014070B5404A404D414C1C
:101E2C004BF2987313604000B3FBF0F32B603E4B06
:101E3C001A6E42F400621A66DA6C42F00102DA643D
:101E4C004FF0904300261A6822F440321A601A6848
:101E5C0042F400321A601A6822F440221A601A689E
:101E6C0042F400221A601A6822F440121A601A68AE
:101E7C0042F400121A601A6822F440021A601A68BE
:101E8C0042F400021A605A6A42F001025A625A6A1B
:101E9C0042F010025A625A6A42F480725A625A6ACA
:101EAC0042F480525A62236A2662FFF78FFF2B6836
:101EBC00E3626422B3FBF2F31C4A013313601C4B44
:101ECC001E70236A43F001032362236A43F010035C
:101EDC002362236A43F480732362236A43F480539E
:101EEC002362236A43F400732362236A43F400538E
:101EFC002362A26940F608010A43A261E3690B431D
:101F0C00E361636C43F400436364236843F0600350
:101F1C002360236843F00103236070BD3C14002050
:101F2C0034140020002C0140001002402C1400201E
:101F3C0028140020104B02221A70104B9A690022B0
:101F4C009A61996940F6080001439961996941F4D5
:101F5C00A0419961996941F050019961D969DA619F
:101F6C00DA690243DA61DA6942F4A042DA61DA69C9
:101F7C0042F05002DA61704730140020002C01400E
:101F8C00014B1878704700BF30140020124B134AD5
:101F9C001968134B186870B5156800EB80034C1E5C
:101FAC006E1CE41AA6420F4C166008BF156012682E
:101FBC00B2FBF0F020700C480078032805D18A1A87
:101FCC000A49D31A4B638A6370BD042801BF0749C1
:101FDC009B18CB630A6470BD3414002038140020A5
:101FEC002C1400202814002030140020002C014058
:101FFC00114B12491A68013A08BF01221A601A687B
:10200C000F4B1B68B2FBF3F008700E4909780329DB
:10201C0009D10D49096803EB83038A1A0B49D31ABA
:10202C004B638A637047042905D1084903EB83038A
:10203C001344CB630A647047381400202814002022
:10204C002C1400203014002034140020002C0140EB
:10205C00831E612B10B516D80B4B0C4A18700C4B09
:10206C001B68584310600B4A03EB830311680A4A40
:10207C000344CC1A091A546391631064D3635369F3
:10208C0043F00103536110BD2814002038140020C4
:10209C002C14002034140020002C0140244B1A6E08
:1020AC0042F4804210B51A66DA6C42F00202DA642D
:1020BC00204B1A6822F440521A601A6842F40052FB
:1020CC001A601A6822F440421A601A6842F40042FC
:1020DC001A601A6A42F0E0621A621A6A42F0E0422E
:1020EC001A62154B1A6842F02C021A600021DA6849
:1020FC00D960DA6842F4CF7242F00102DA600F4A1A
:10210C0020201024C2F8840182F8254350601A68FC
:10211C0042F001021A6011221A85094B094A197002
:10212C00094B1970137843F00503137010BD00BFF1
:10213C0000100240000400480038014000E100E0BB
:10214C004814002040140020491400200A4A00239F
:10215C0030B513700578094C19469D4202D801B16F
:10216C00137030BD10F8011F2185E1690906FCD5FB
:10217C000133DBB20121F0E74814002000380140A4
:10218C001948838CDBB2A3F120025E2AF0B50DD87E
:10219C0016490A788C18013263709BB20A70038559
:1021AC00114A136A43F020031362F0BD0D2BF7D1D3
:1021BC000E4A0F4915780F4C00230B701E46DFB2E8
:1021CC000133581EC0B285420AD806B10F700023E5
:1021DC001370094A2570137843F004031370DFE77A
:1021EC00D05CE0540126EAE7003801407814002066
:1021FC00991400205014002040140020034A044875
:10220C00137823F004031370704700BF40140020B0
:10221C0050140020014B1878704700BF4014002068
:10222C00DFF834D0002103E00C4B5B5843500431F1
:10223C000B480C4B42189A42F6D30B4A02E000238F
:10224C0042F8043B094B9A42F9D3FFF741FD00F0E9
:10225C0011F8FEF701FEFEE700000120282300081C
:10226C00000000208C0300208C0300209C14002014
:10227C00FEE7000070B50D4E0D4CA41BA4100025FC
:10228C00A54209D10B4E0C4C00F018F8A41BA4105D
:10229C000025A54205D170BD56F82530984701356B
:1022AC00EEE756F8253098470135F2E72023000871
:1022BC00202300082023000824230008F8B500BFC1
:1022CC00F8BC08BC9E467047F8B500BFF8BC08BC0B
:0422DC009E46704763
:1022E00000000000000000000102030406070809C6
:1022F000A0860100400D0300801A060000350C0086
:1023000040420F0080841E0000093D0000127A0048
:102310000024F40000366E010048E801006CDC0285
:04232000B1010008FF
:042324008D0100081F
:102328000462616E6B000000000000000000000005
:102338000000000000000000000000000000000095
:102348000005626F6F737400000000000000000059
:102358000000000000000000000000000000000075
:102368000000046275636B000000000000000000BC
:102378000000000000000000000000000000000055
:1023880000000003433A20000000000000000000A5
:102398000000000000000000000000000000000035
:1023A8000000000003453A20000000000000000083
:1023B8000000000000000000000000000000000015
:1023C800000000000003493A20000000000000005F
:1023D80000000000000000000000000000000000F5
:1023E800000000000000034F3A2000000000000039
:1023F80000000000000000000000000000000000D5
:1024080000000000000000020A0D000000000000AB
:1024180000000000000000000000000000000000B4
:10242800000000000000000004636F6E76000000EA
:102438000000000000000000000000000000000094
:1024480000000000000000000004637372730000C5
:102458000000000000000000000000000000000074
:102468000000000000000000000005646163646E65
:102478000000000000000000000000000000000054
:1024880000000000000000000000000664616372A4
:102498007074000000000000000000000000000050
:1024A80000000000000000000000000005646163F7
:1024B800757000000000000000000000000000002F
:1024C800000000000000000000000000000364633A
:1024D8002B000000000000000000000000000000C9
:1024E800000000000000000000000000000006647A
:1024F80072766469730000000000000000000000AC
:1025080000000000000000000000000000000005BE
:10251800647276656E000000000000000000000094
:1025280000000000000000000000000000000000A3
:1025380005666C636C72000000000000000000007B
:102548000000000000000000000000000000000083
:102558000004666C616700000000000000000000D5
:102568000000000000000000000000000000000063
:102578000000046C6F636B000000000000000000A6
:102588000000000000000000000000000000000043
:10259800000000012400000000000000000000000E
:1025A8000000000000000000000000000000000023
:1025B80000000000000000003030303030303000C3
:1025C8000470617373000000000000000000000048
:1025D80000000000000000000000000000000000F3
:1025E800000B4445564053544D33323A2000000006
:1025F80000000000000000000000000000000000D3
:102608000000057462616E6B0000000000000000AD
:1026180000000000000000000000000000000000B2
:102628000000000474656D700000000000000000E8
:102638000000000000000000000000000000000092
:10264800000000000474696D6500000000000000CF
:102658000000000000000000000000000000000072
:1026680000000000000474696D31000000000000E3
:102678000000000000000000000000000000000052
:1026880000000000000004766F6C74000000000079
:102698000000000000000000000000000000000032
:0C26A800000000000000000000093D00E0
:040000050800222DA0
:00000001FF
