:020000040800F2
:1000000000000120BD27000831100008331000084F
:1000100035100008371000083910000800000000F3
:100020000000000000000000000000003B1000087D
:100030003D100008000000003F10000841100008BB
:100040000D2800080D2800080D2800080D280008BC
:100050000D2800080D2800080D2800080D280008AC
:100060000D2800080D2800080D2800080D2800089C
:100070000D2800080D2800080D2800080D2800088C
:100080000D2800080D280008A10F00080D28000801
:100090000D2800080D2800080D2800080D2800086C
:1000A0000D2800080D2800080D2800080D2800085C
:1000B0000D28000800000000000000000D280008C6
:1000C0000D28000800000000000000000D280008B6
:1000D00000000000610F00080D280008000000006B
:1000E0000D2800080D280008000000000000000096
:1000F0000000000000000000000000000000000000
:100100000000000000000000000000000D280008B2
:1001100000000000000000000D2800080D28000865
:100120000D2800080D2800080D2800080D280008DB
:100130000D28000800000000000000000000000082
:100140000D280008850F00080D2800080D2800085C
:100150000D2800080D2800080D2800080D280008AB
:100160000D2800080D2800080D28000800000000D8
:100170000D2800080D280008000000000000000005
:0C0180000D2800080D2800080D280008BC
:10018C0010B5054C237833B9044B13B10448AFF3C5
:10019C0000800123237010BD10040020000000001B
:1001AC005828000808B5034B1BB103490348AFF3AB
:1001BC00008008BD0000000014040020582800082E
:1001CC0010B5084B044618684FF47A73B0FBF3F083
:1001DC0000F06AF8002221464FF0FF3000F030F8B2
:1001EC00002010BD0C04002008B5032000F016F808
:1001FC000020FFF7E5FF00F067FE002008BD0000BF
:10020C00024A136801331360704700BF2C040020AE
:10021C00014B1868704700BF2C040020074AD368B4
:10022C0023F4E0631B041B0C43F0BF63000243F494
:10023C00003300F4E0600343D360704700ED00E04E
:10024C00174B30B5DC68C4F30224C4F10703251D39
:10025C00042B28BF0423062D4FF0010505FA03F3E8
:10026C0003F1FF338CBF033C00241940A14005FA75
:10027C0004F4013C2240002842EA01024FEA021237
:10028C00AFBF00F1604000F00F00064BD2B2A5BF2B
:10029C0000F56140D2B21A5480F8002330BD00BF83
:1002AC0000ED00E014ED00E00138B0F1807F0AD2DF
:1002BC00064B074A5860F02182F8231000200722D1
:1002CC0098601A6070470120704700BF10E000E092
:1002DC0000ED00E0044B1A6804280CBF42F0040245
:1002EC0022F004021A60704710E000E0704708B575
:1002FC00FFF7FCFF08BD0000024B186800F4C0605B
:10030C00704700BF00700040164B1A68B0F5007FB4
:10031C0002F4C0621AD1B2F5007F13D01A681249E8
:10032C0022F4C06242F400721A60104A1268B2FBE6
:10033C00F1F132224A4312B15969490504D45B697F
:10034C005B050DD400207047013AF4E7B2F5806FDD
:10035C001FBF1A6822F4C06242F480621A60F1E78F
:10036C00032070470070004040420F000C04002036
:10037C0037B51E4DAB6DDA00044618D5FFF7BCFF40
:10038C00B0F5007F23D1802C29D9A02C8CBF022062
:10039C000120174A136823F0070303431360136803
:1003AC0003F00703181A18BF012003B030BDAB6D62
:1003BC0043F08053AB65AB6D03F080530193019B0D
:1003CC00FFF79AFFAB6D23F08053AB65D8E7802C19
:1003DC0007D808D0A4F1700358425841D9E700203F
:1003EC00D7E70320D5E70220D3E700BF0010024077
:1003FC00002002402F4B9A6812F00C0F10B509D058
:10040C009A6802F00C020C2A2DD1DA6802F0030271
:10041C00012A28D11A682849120755BFD3F894200D
:10042C001A68C2F30322C2F3031251F8222099680E
:10043C0011F00C0F0CBF10460020996801F00C0154
:10044C000C2930D1DC68D868C0F30210411C04F0D0
:10045C000300022819D0032826D0B2FBF1F2D86889
:10046C00C0F3062017E09A6802F00C02042A07D0A9
:10047C009A6802F00C02082A04D110480022DCE72A
:10048C000F48FBE700200246D7E7DA680C48C2F3B6
:10049C000622B0FBF1F0DB68C3F341630133504338
:1004AC005B00B0FBF3F010BDDA680448C2F306221F
:1004BC00EFE700BF001002408028000800127A000D
:1004CC000024F40003682DE9F3410546D80639D51C
:1004DC00AB4CA36813F00C0F62D12368990703D5BA
:1004EC00AB690BB901207FE02368286A1A0756BF55
:1004FC00D4F8943023681B0903F0F00383423AD2FA
:10050C00FFF736FF0028EDD1236843F00803236082
:10051C0023682A6A23F0F003134323606368EA69B3
:10052C0023F47F4343EA02236360FFF763FFA3686E
:10053C00944AC3F30313D35CD840934B1860002048
:10054C00FFF73EFE2B68D80761D42B68990700F1A2
:10055C00A9802B681A0700F1E7802B685B0700F174
:10056C0015812B689A0600F17C81AA6A002A40F05A
:10057C00A381002038E0236843F00803236023683C
:10058C0023F0F003034323606368EA6923F47F4399
:10059C0043EA02236360FFF7EBFE0028C5D0A1E716
:1005AC00AB6923B3236843F001032360FFF730FEEC
:1005BC00064623689B0711D5236843F00803236084
:1005CC0023682A6A23F0F003134323606368EA6903
:1005DC0023F47F4343EA02236360B3E7FFF718FE7B
:1005EC00801B0228E5D9032002B0BDE8F081236806
:1005FC0023F001032360FFF70BFE064623689F07D9
:10060C00A0D5FFF705FE801B0228F7D9EBE75C4C61
:10061C00A36803F00C03082B09D0A36803F00C03A8
:10062C000C2B0BD1E36803F00303032B06D12368D7
:10063C009A038AD56B68002B87D153E76B68B3F5A7
:10064C00803F10D1236843F480332360FFF7E0FD33
:10065C00064623689B033FF578AFFFF7D9FD801B57
:10066C006428F6D9BFE7B3F5A02F04D1236843F46F
:10067C0080232360E6E7226822F48032226022681D
:10068C0022F480222260002BE0D1FFF7C1FD064648
:10069C0023689F037FF559AFFFF7BAFD801B6428D1
:1006AC00F6D9A0E7364CA36803F00C03042B09D051
:1006BC00A36803F00C030C2B13D1E36803F00303C2
:1006CC00022B0ED123685E0503D5EB68002B3FF49B
:1006DC0009AF63682A6923F0F85343EA0263636045
:1006EC0037E7EB687BB1236843F480732360FFF733
:1006FC008FFD064623685805EBD4FFF789FD801B58
:10070C000228F7D96FE7236823F480732360FFF77F
:10071C007FFD0646236859057FF51BAFFFF778FD73
:10072C00801B0228F6D95EE76B69154C9BB1D4F897
:10073C00943043F00103C4F89430FFF769FD06468A
:10074C00D4F894309F073FF508AFFFF761FD801B8D
:10075C000228F5D947E7D4F8943023F00103C4F804
:10076C009430FFF755FD0646D4F8943098077FF582
:10077C00F4AEFFF74DFD801B0228F5D933E700BF1F
:10078C0000100240702800080C040020794CA36D66
:10079C00D90027D4A36D43F08053A365A36D03F058
:1007AC0080530193019B0127734E3368DA051BD5E7
:1007BC00AB68012B29D1D4F8903043F00103C4F875
:1007CC009030FFF725FD41F288380646D4F890307A
:1007DC00980740D5002F3FF4C4AEA36D23F080538F
:1007EC00A365BEE60027DFE7336843F4807333600C
:1007FC00FFF70EFD80463368DB05D9D4FFF708FD03
:10080C00A0EB08000228F6D9EDE6052B06D1D4F8AA
:10081C00903043F00403C4F89030CCE7D4F8902027
:10082C0022F00102C4F89020D4F8902022F00402A7
:10083C00C4F89020002BC4D1FFF7EAFC41F28838B1
:10084C000646D4F890309907C4D5FFF7E1FC801B1D
:10085C004045F6D9C7E6FFF7DBFC801B4045B5D910
:10086C00C1E66B6A434C9BB1D4F8983043F001035A
:10087C00C4F89830FFF7CCFC0646D4F898309B07A8
:10088C003FF573AEFFF7C4FC801B0228F5D9AAE62E
:10089C00D4F8983023F00103C4F89830FFF7B8FC73
:1008AC000646D4F898309F077FF55FAEFFF7B0FC93
:1008BC00801B0228F5D996E62E4CA36803F00C0396
:1008CC000C2B3FF40FAE2368022A23F080732360B5
:1008DC0036D1FFF79DFC0646236898012AD4AB6BF2
:1008EC006A6BDB0643EA0223EA6A13432A6B013A7A
:1008FC0043EA0213EA6B5208013A43EA42532A6C68
:10090C005208013A43EA4263E360236843F0807380
:10091C002360E36843F08073E360FFF779FC0546DE
:10092C00236899013FF525AEFFF772FC401B0228A6
:10093C00F6D958E6FFF76CFC801B0228CCD952E69E
:10094C0023681A015EBFE36823F00303E360E368E6
:10095C0023F0887323F48033E360FFF759FC0546DA
:10096C0023689B017FF505AEFFF752FC401B022864
:10097C00F6D938E60010024000700040564A136861
:10098C0003F007038B422DE9F04105460E462BD3AD
:10099C002B68D90735D429688A0700F183804E4A21
:1009AC00136803F007039E42C0F0848011F0040F1B
:1009BC004A4C40F08A800B0706D5A3682A6923F4B9
:1009CC00605343EAC203A360FFF714FDA368444AD3
:1009DC00C3F30313D35CD840424B18600020FFF7DD
:1009EC00EFFB0020BDE8F081136823F007030B43F5
:1009FC001360136803F007039942C9D00120BDE8C6
:100A0C00F0816A68354C032A23681CD113F0007FEF
:100A1C00F4D0A36823F003031343A360FFF7F8FBA0
:100A2C006B68032B074641F2883818D1A36803F092
:100A3C000C030C2BAFD0FFF7EBFBC01B4045F5D9DB
:100A4C000320BDE8F081022A02D113F4003FDFE756
:100A5C0012B913F0020FDBE713F4806FD8E7022B07
:100A6C000AD1A36803F00C03082B94D0FFF7D0FB3A
:100A7C00C01B4045F5D9E3E773B9A36813F00C0F1D
:100A8C0089D0FFF7C5FBC01B4045F6D9D8E7FFF767
:100A9C00BFFBC01B4045D3D8A36803F00C03042B49
:100AAC00F5D178E70D4AA868936823F0F003034367
:100ABC00936074E7136823F00703334313601368E0
:100ACC0003F007039E4299D170E7A368EA6823F408
:100ADC00E0631343A3606EE7002002400010024065
:100AEC00702800080C040020014B1868704700BFE8
:100AFC000C040020474BDA6C42F40052DA64DA6CD6
:100B0C0042F00302DA64444B1A6842F003021A60A2
:100B1C001A6842F00C021A604FF09042136843F4CA
:100B2C00405313603D4B9A68900064D43C4A9368E0
:100B3C0043F480339360394B9A68D10060D5374BBE
:100B4C001A46996811F03F0F99685ED141F0004147
:100B5C0099609368002BFCDB324B00211960936881
:100B6C0043F0010393602D4B1A68D207FCD51A6829
:100B7C0042F001021A605A6842F00C025A601A6B79
:100B8C0000221A63196B41F470711963196B41F4EB
:100B9C0080011963596B41F007015963196B41F0DE
:100BAC0004011963D96CDA64D96C41F4C031D9648D
:100BBC00D96C41F43061D964D96C41F00101D9642C
:100BCC00596941F0126141F4922141F4127141F0E2
:100BDC00010159619869144901439961D96841F43B
:100BEC008041D960114B4FF48021C3F8801183F8F8
:100BFC001223196070479A6822F000529A6092E7AB
:100C0C009A6842F080529A6096E741F03001996000
:100C1C0097E700BF00100240000400480000045099
:100C2C0000030450300400204992240100E100E04C
:100C3C00064B1A6842F00C021A605A6842F00C0219
:100C4C005A609A6842F004029A607047000004509F
:100C5C00064B1A6842F040021A605A6842F0400291
:100C6C005A609A6842F008029A607047000004507B
:100C7C000F4B4FF47A721A600E4A936D43F0005387
:100C8C0093654FF09042136843F4406313600A4B32
:100C9C00DA6B42F48032DA631A6842F480321A60FA
:100CAC001A6A00221A621A6A42F07A721A62704741
:100CBC003404002000100240007400400A4B1A68F3
:100CCC001044B0F5805F24BF40F6FF721A60074AEB
:100CDC0038BF1860116A00211162116A1B6841EA61
:100CEC0003431362704700BF3404002000740040BB
:100CFC00084B1A68101A04BF01221A60064A18BF62
:100D0C001860116A00211162116A1B6841EA0343E1
:100D1C0013627047340400200074004040F6FF73E7
:100D2C00984228BF1846054B1860054B1A6A0022DA
:100D3C001A621A6A42EA00401862704734040020B2
:100D4C0000740040114A936D43F000439365104BBF
:100D5C001A6942F001021A619A6842F002029A6022
:100D6C00C0229A610B4A02212020C2F8881182F815
:100D7C0041039160084A0021116051609160D1607B
:100D8C0011611A6942F004021A61704700100240A6
:100D9C00007C004000E100E038040020164B1A688B
:100DAC000132F92A1A6004D95A6801325A600022B9
:100DBC001A605A68B2F57A7F04D39A6801329A6045
:100DCC0000225A609A683B2A04D9DA680132DA6048
:100DDC0000229A60DA683B2A04D91A6901321A6136
:100DEC000022DA601A69172A04D95A6901325A6149
:100DFC0000221A61704700BF380400200048704779
:100E0C003804002010B596B01023059301230B93E2
:100E1C00B022002305A80C930D920F93FFF752FB01
:100E2C0000B1FEE70F230190029003900490022181
:100E3C0068460093FFF7A2FD00B1FEE74FF4007087
:100E4C00FFF762FA044600B1FEE7FFF74DFE4FF4E0
:100E5C007A73B0FBF3F0FFF727FA0420FFF73AFAA6
:100E6C00224621464FF0FF30FFF7EAF916B010BDCD
:100E7C0008B5FFF7B9F9FFF7C5FF00F0E3F801F08B
:100E8C00D5FBFFF75FFFFFF735FE782001F0B8FACE
:100E9C00FFF7EEFE00F014F90A4C00F0ABF92060FD
:100EAC0030B101F0F7F900F0E1FC00F04DFAF4E795
:100EBC0001F0F0F900F0DAFC00F0A4F900F0A4FB6A
:100ECC00EBE700BF50040020214B07B51A6E42F02F
:100EDC0001021A661A6E02F001020092009A9A6DD3
:100EEC0042F080529A659B6D03F08053019303206E
:100EFC00019BFFF793F9002211466FF00B00FFF7EF
:100F0C009FF9002211466FF00A00FFF799F90022B1
:100F1C0011466FF00900FFF793F9002211466FF0AC
:100F2C000400FFF78DF9002211466FF00300FFF764
:100F3C0087F9002211466FF00100FFF781F90022BA
:100F4C0011464FF0FF30FFF77BF903B05DF804FB5F
:100F5C000010024010B5064C064AE36913609B066C
:100F6C0001D501F0D5FB236A4FF0FF33236210BD8E
:100F7C00003801405804002008B5FFF70FFF044A61
:100F8C0053686FEA53236FEA4323536008BD00BFD5
:100F9C00007C004038B5204D204C2B68236059074D
:100FAC000AD5286C1E4B0021188080B200F0E0FCA2
:100FBC002B6843F004032B6023681A0706D5164AE6
:100FCC00136843F00803136000F0A6FC23685B066B
:100FDC0019D5114C124DD4F880002880012180B213
:100FEC0000F0C6FCD4F884002880012180B200F007
:100FFC00BFFC00F0A7FC236843F0400323600021F2
:10100C00032000F02BFD044A13686FEAD3236FEA28
:10101C00C323136038BD00BF0000045058040020E7
:10102C00560400207047FEE7FEE7FEE7FEE7704738
:10103C007047704708B5FFF7E3F8BDE80840FFF7C5
:10104C0056B900001C4AD36C43F00303D3641B4A0B
:10105C00136823F0C0031360136843F0400313605C
:10106C00136823F440731360136843F480731360A4
:10107C004FF09043196821F040411960196841F014
:10108C0080411960196821F440411960196841F4D4
:10109C0080411960516921F008015161516921F0B9
:1010AC00100151615A6922F400425A615A6942F0A6
:1010BC0080025A61704700BF0010024000040048D3
:1010CC00314A32483249F8B500231360314A324D67
:1010DC001360324A1F4613701C46DEB2642E49D18F
:1010EC0007B11670C5F82043C0F82043C1F820435F
:1010FC00FFF784FE2A4B18602A4B1C602A4B1C609D
:10110C002A4B40F631021A60294B1C60294B0122F4
:10111C001A60294B1C80294B40F61C421A80284A25
:10112C004FF4FA731380274A1380274A1380274BF6
:10113C004FF434721A80264B40F6B8321A80254B85
:10114C001C80254B1C70254B40F6FF721A80244BDB
:10115C0040F2FF721A80234BB3F90020224B1A8005
:10116C00224BB3F90020224B00201A80BDE8F84036
:10117C00FFF7D4BD45F8234040F8234041F8234005
:10118C0001270133A9E700BF6C1400204411002093
:10119C005C040020E00D0020B80A0020EC0D0020BB
:1011AC0074140020A4140020B40A0020F00D0020B8
:1011BC0080140020E40D002094140020FE0D00206B
:1011CC0040110020B00A00209814002028110020A3
:1011DC00FC0D00202A110020840700208814002018
:1011EC00B2140020A875FF1FA8140020CA75FF1F99
:1011FC0096140020024B1868C0F3C020704700BF43
:10120C00F00D00204748036813F0400F70B50146FD
:10121C0075D0454AD2F82023B2F5C87F03D843F4E1
:10122C008063036070BD40F6B414A242F7D8B2F5E7
:10123C00347FF4D940F6A514A242F0D8DD055FD472
:10124C0040F2B530824206D843F4807337480B60C5
:10125C0002F1640303800B6823F400730B600B68CA
:10126C00DC054CD5980552D430480488A2421CD2D7
:10127C00A41A2F4D322C2C6017D92E4D02802C889D
:10128C001E2C94BF2824193C2C802B4C2B4D2468ED
:10129C00646804F2EE26B6F57A7F28BFFA3C43F474
:1012AC00007334BF2E602C600B6003889A4226D9E1
:1012BC00D31A1F4C322B236021D91E4B204D1C8876
:1012CC002D8802801934A4B21C80AC421D4C88BFFE
:1012DC001D801D882488194AA54288BF1C80164B86
:1012EC001B685B6803F2EE20B0F57A7F24BFFA3BF3
:1012FC0013600B6838BF106043F400730B6070BD53
:10130C0040F2F2308242AAD923F44073A6E70A4A8B
:10131C0012685068094A12689042F0D123F40073A5
:10132C00ECE700BFF00D0020000E0020B0140020F0
:10133C008414002040110020741400202C11002073
:10134C00B00A0020981400202DE9F84F964D974FC5
:10135C002A68974E12F001012C4610D1954B19704A
:10136C00954B1A88954B1A8033689B683B60944B5D
:10137C001888FFF7D3FC01232B60BDE8F88F316888
:10138C003B68D1F808C09C4521D08E48036813F007
:10139C00100E03D0C7F800C0BDE8F88F8A4FD7F8FD
:1013AC002073C82F03D940F2DC4C67450CD9874A0F
:1013BC00C5F800E023F4006343F4806303601388F2
:1013CC0001331380BDE8F88F42F006022A602368CF
:1013DC0003F00602062A3DD113F0080F7C4D3BD1D9
:1013EC004FF0904043F00803426942F080024261A2
:1013FC0023604B6803F5FA72B2F57A7F2ABFA3F526
:10140C00FA732A602B602368D80623D59A0630D449
:10141C00032001F0F1F86F4B6F4A1B88D2F82023A0
:10142C009A4223D200F09AFF6C4B6D4AD3F82033CA
:10143C00283B138033685B6803F10A02B2F57A7FAC
:10144C0024BFA3F2DE332B60236838BF2A6043F03D
:10145C0020032360BDE8F88FDF06D7D448682A68DC
:10146C009042F7D143F010032360CCE700F04AFF21
:10147C00DAE74A682B689A42ECD15A4A5A491388DF
:10148C00D1F820034D4FDFF85881DFF850910A3B1B
:10149C0098428A46934657D2D9F82023B8F80030A0
:1014AC003988A2EB030EA1F1140086454AD20B44F5
:1014BC009B1A642B8CBF0F20012001F04FF80123E5
:1014CC00B8F80020D9F82013914203D20F2001F074
:1014DC0045F80123BBF80020DAF820130A329142B8
:1014EC0003D9012001F064F80123D9F82023B8F8BE
:1014FC000010511A3A881432914227D9012001F078
:10150C0057F833685B6803F10A02B2F57A7F2ABF99
:10151C00A3F2DE332A602B602F4BD3F82033B3F5C4
:10152C00587F37D82368B8F8002043F0C0032360F5
:10153C00D9F820339B1A193B1F4A9BB213803B806E
:10154C00BDE8F88F0023BBE70023C3E7002BD8D1FD
:10155C0023685B06E0D433685B6803F10A02B2F5DA
:10156C007A7F38BF2A60134A24BFA3F2DE332B6084
:10157C0013780133DBB2632B1370CDD91B4B188856
:10158C00FFF7CCFB0F4A136823F4006343F04003CE
:10159C001360C1E740F2753293427FF65BAF23686C
:1015AC0023F0400355E700BF801400203C110020BD
:1015BC007414002084070020B00A00204011002081
:1015CC00B2140020F00D0020000E00202A11002083
:1015DC00F80D0020FC0D002044110020B80A00205A
:1015EC0094140020FE0D00205C04002088140020C0
:1015FC004FF090435A6918B142F080025A6170471B
:10160C0022F08002FAE700002DE9F84F00F0A0FF6D
:10161C004B4A136813F01105144640F08F805E0599
:10162C0024D52846FFF77AFB00F0C4FE2846FFF7C6
:10163C00DFFF2368580644BF23F040032360414B6F
:10164C001B88092B7AD8404A4049136801338B42D6
:10165C00136073D923683E4823F48063002143F45C
:10166C000063016023601160BDE8F88F59065CD5FA
:10167C0013F0800FDFF8E880364F4BD1364E374DE4
:10168C003388D5F82023DFF8DCA0DFF8DCB0DFF8F6
:10169C00DC900A3B9A4215D2DAF82033BBF80020D2
:1016AC009A1AB9F80030143B9A4202D2012000F089
:1016BC0055FFBBF80030DAF820239A4202D2012001
:1016CC0000F04CFF3388D5F820230A339A4202D914
:1016DC00012000F06DFFBBF80030DAF82023D21A9D
:1016EC00B9F8003014339A4202D9012000F060FF9F
:1016FC00236843F080032360D8F800305B6803F163
:10170C006402B2F57A7F2ABFA3F561733A603B603D
:10171C00BDE8F88FD8F800104868396888420DD1B8
:10172C0023F080031360BDE8F88F23F080030128B9
:10173C00136003D0BDE8F84F00F03CBEBDE8F88F55
:10174C00F00D00202A1100209C1400203F0D0300F6
:10175C008014002030110020FE0D00205C040020BD
:10176C0074140020B80A00209414002040110020AA
:10177C00F0B5194A194C1A4E0146002330274FF088
:10178C000A0E072B0CD11749174A0B700023106057
:10179C0033701C46D8B2072816D104B13070F0BD96
:1017AC009142B1FBF2F503F1010388BF05F1300C56
:1017BC00EDB28CBF84F800C0277002FB1511DBB2B0
:1017CC00B2FBFEF20134DCE7D418C818247944705B
:1017DC0001330124DEE700BF40420F00FC02002071
:1017EC00EC0D0020B4140020F8020020F0B50B78AA
:1017FC000778BB424FF0000309D10B4C1A462370FB
:10180C001E460123D5B2AF4203D806B12570184647
:10181C00F0BD86188D1876786D780132AE4218BFFF
:10182C0000230126EEE700BFEC0D00200D4900233C
:10183C0030B51A460B6004460132656844F8045B07
:10184C00D2B2C72A2B44F7D1074C2270D0F82423EC
:10185C00C0F81C2313440B60C822B3FBF2F3C0F88E
:10186C00203330BD7C140020EC0D002038B5204C0A
:10187C0023689A071AD51F48FFF7D8FF1E48FFF7B1
:10188C00D5FF1E48FFF7D2FF236823F00603236021
:10189C0023681B071CD51A48FFF7C8FF1948FFF728
:1018AC00C5FF236823F00803236038BD13F0040F31
:1018BC00154A07D101231360FFF7BAF9236843F0E7
:1018CC000403E4E71268042AE2D123F00403DEE700
:1018DC000E4D0F4C2B685A6823689A42E5D00D4B7D
:1018EC0001221A60FFF7B4F92B685B68DCE700BFD4
:1018FC00F00D0020B80A0020441100205C040020E8
:10190C00000E002088070020E40D00207414002035
:10191C00B40A002070140020074A136843F0020335
:10192C001360064A136801331360054A536823F0A9
:10193C000C035360704700BFF00D0020AC14002066
:10194C0000000450074A136843F008031360064A6A
:10195C00136801331360054A536823F06003536026
:10196C00704700BFF00D0020AC14002000000450A4
:10197C002C4A1368013310B5136000293BD12A4C53
:10198C002368022B2BD0032B2FD0012B26D12749D8
:10199C000A6801320A60264AC2F824030133236024
:1019AC00244B1B68642B08D9234B1B68642B81BF09
:1019BC00224A136823F0100313601C4B1B68642B22
:1019CC000CD91F4B1B68642B08D91E4B1B68642B4E
:1019DC0081BF1A4A136823F00103136010BD184924
:1019EC000A6801320A60184AD6E716490A680132B9
:1019FC000A60164AD0E7164A1368012B02D0022B54
:101A0C000AD010BD0B4C2168013121601149C1F87D
:101A1C00240301331360C3E7074C216801312160B3
:101A2C000D49F4E778140020E40D0020D8140020B0
:101A3C00B80A002034110020F40D0020F00D002015
:101A4C008C140020E80D00205C04002044110020C0
:101A5C0070140020000E002088070020064A012385
:101A6C0021B1516983400B435361704751698340E5
:101A7C0021EA0303F8E700BF0004004808B5037827
:101A8C00042B18D14378642B15D18378632B12D196
:101A9C00C378303BDBB2092B0DD800793038C0B29B
:101AAC00092808D803EB830300EB4300C0B200F015
:101ABC00A3FD012008BD002008BD000010B503786F
:101ACC00062B32D14378692B2FD18378732B2CD1F1
:101ADC00C378303BDAB2092A27D80479303CE2B219
:101AEC00092A22D84279303AD2B2092A1DD88179F2
:101AFC003039C9B2092918D8642044434FF47A709C
:101B0C0000FB03430B440A2111FB023340F6F7029E
:101B1C009A42074928BF1A460A80064A1268D2051B
:101B2C0001D4054A1380012010BD002010BD00BF58
:101B3C00B00A0020F00D00204011002010B50378F1
:101B4C00062B2CD14378762B29D18378732B26D175
:101B5C00C378303BDAB2092A21D80479303CE2B29E
:101B6C00092A1CD84279303AD2B2092A17D881797D
:101B7C003039C9B2092912D8642044434FF47A7021
:101B8C0000FB03430B440A2111FB023340F699413D
:101B9C00044A8B428CBF11801380012010BD0020A1
:101BAC0010BD00BFFE0D002010B50378062B2CD104
:101BBC004378652B29D18378762B26D1C378303B9B
:101BCC00DAB2092A21D80479303CE2B2092A1CD8AD
:101BDC004279303AD2B2092A17D881793039C9B250
:101BEC00092912D8642044434FF47A7000FB034354
:101BFC000B440A2111FB023340F69941044A8B42F3
:101C0C008CBF11801380012010BD002010BD00BFBF
:101C1C00FC0D0020034A0448136823F004031360EE
:101C2C0000F05CBDF00D0020D602002038B5104845
:101C3C00104D114C00F052FD104BD3F82003FFF760
:101C4C0097FD284600F04AFD204600F047FD0C4861
:101C5C0000F044FD0B4BD3F82003FFF789FD284619
:101C6C0000F03CFD2046BDE8384000F037BD00BF19
:101C7C0084000020B4140020E7000020000E002097
:101C8C00A50000208807002010B5234CE06AFFF760
:101C9C006FFD224800F022FD214800F01FFD606B13
:101CAC00FFF766FD1D4800F019FD1D4800F016FDFC
:101CBC00A06BFFF75DFD194800F010FD184800F00F
:101CCC000DFDE06BFFF754FD144800F007FD1448C0
:101CDC0000F004FD206CFFF74BFD104800F0FEFCFB
:101CEC000F4800F0FBFC00F033FC0138032811D83E
:101CFC00DFE800F0020A0C0E0A4800F0EFFC08487E
:101D0C00BDE8104000F0EABC0748F6E70748F4E7E6
:101D1C000748F2E70748F0E7002C0140B414002014
:101D2C00E7000020B5020020040300202100002061
:101D3C004200002029010020F8B51F4F1F4E204DF6
:101D4C00204C384600F0CAFC1F4BD6F820031B88E9
:101D5C00C01AFFF70DFD284600F0C0FC204600F02D
:101D6C00BDFC384600F0BAFCD6F82003FFF700FDA6
:101D7C00284600F0B3FC204600F0B0FC134800F0FD
:101D8C00ADFC134BD3F82003FFF7F2FC284600F010
:101D9C00A5FC204600F0A2FC0E4800F09FFC0E4B68
:101DAC00D3F82003FFF7E4FC284600F097FC20460C
:101DBC00BDE8F84000F092BC63000020B80A002097
:101DCC00B4140020E700002094140020C60000206A
:101DDC005C040020A50000204411002070B51B4EAF
:101DEC001B4D33681B4C1868FFF7C2FC284600F0EB
:101DFC0075FC204600F072FC33685868FFF7B8FC9D
:101E0C00284600F06BFC204600F068FC33689868AC
:101E1C00FFF7AEFC284600F061FC204600F05EFCAB
:101E2C003368D868FFF7A4FC284600F057FC20461E
:101E3C0000F054FC33681869FFF79AFC284600F050
:101E4C004DFC2046BDE8704000F048BC74140020E6
:101E5C00B4140020E700002038B51548154D164C79
:101E6C0000F03CFC154B1868FFF782FC284600F08C
:101E7C0035FC204600F032FC114800F02FFC114BD1
:101E8C001868FFF775FC284600F028FC204600F087
:101E9C0025FC0D4800F022FC0C4B1868FFF768FC81
:101EAC00284600F01BFC2046BDE8384000F016BC6C
:101EBC0063000020B4140020E7000020D814002098
:101ECC00C60000208C140020A5000020E80D002086
:101EDC0038B50C4B0C4D18680C4CFFF749FC2846D8
:101EEC0000F0FCFB204600F0F9FB094B1868FFF7EB
:101EFC003FFC284600F0F2FB2046BDE8384000F0DD
:101F0C00EDBB00BFF00D0020B4140020E700002052
:101F1C00E40D002038B5114B114D1868114CFFF72A
:101F2C0027FC284600F0DAFB204600F0D7FB0E4BCE
:101F3C001868FFF71DFC284600F0D0FB204600F087
:101F4C00CDFB0A4B186BFFF713FC284600F0C6FBC1
:101F5C002046BDE8384000F0C1BB00BF781400201B
:101F6C00B4140020E7000020AC1400200000045042
:101F7C0038B50F480F4D104C00F0B0FB0F4B1868E4
:101F8C00FFF7F6FB284600F0A9FB204600F0A6FB65
:101F9C000B4800F0A3FB0B4B1868FFF7E9FB284636
:101FAC0000F09CFB2046BDE8384000F097BB00BF1A
:101FBC0084000020B4140020E7000020341100201D
:101FCC00A5000020F40D002008B5064B1868FFF79B
:101FDC00CFFB054800F082FB0448BDE8084000F048
:101FEC007DBB00BF80140020B4140020E70000204B
:101FFC0008B5064B186BFFF7BBFB054800F06EFBF2
:10200C000448BDE8084000F069BB00BF0074004004
:10201C00B4140020E700002010B504467F4800F0FF
:10202C005DFB7F492046FFF7E1FB08B1FFF72CFE73
:10203C007C492046FFF7DAFB08B1FFF77DFE7A49B1
:10204C002046FFF7D3FB08B1FFF7C8FE77492046BF
:10205C00FFF7CCFB08B1FFF7FFFE75492046FFF7F1
:10206C00C5FB08B1FFF784FF72492046FFF7BEFBA2
:10207C0008B1FFF72DFF70492046FFF7B7FB08B1F9
:10208C00FFF7A2FF6D492046FFF7B0FB08B1FFF741
:10209C00C1FD6B492046FFF7A9FB08B1FFF73AFFDA
:1020AC0068492046FFF7A2FB08B1FFF7BFFD664960
:1020BC002046FFF79BFB28B1012000F04FFA634844
:1020CC0000F00CFB62492046FFF790FB20B100F0BA
:1020DC0019F95E4800F002FB5E492046FFF786FBCB
:1020EC0020B100F03BF9594800F0F8FA5A49204663
:1020FC00FFF77CFB20B100F05DF9544800F0EEFADC
:10210C0056492046FFF772FB20B100F0FBF94F480F
:10211C0000F0E4FA2046FFF7B1FC10B14B4800F098
:10212C00DDFA2046FFF7CAFC10B1484800F0D6FA99
:10213C002046FFF703FD10B1444800F0CFFA2046CB
:10214C00FFF732FD10B1414800F0C8FA444920466F
:10215C00FFF74CFB28B1C820FEF7B0FD3B4800F060
:10216C00BDFA40492046FFF741FB28B1C820FEF7D5
:10217C00BFFD364800F0B2FA3B492046FFF736FB6C
:10218C0028B10020FEF7CAFD304800F0A7FA374905
:10219C002046FFF72BFB30B140F6FF70FEF7BEFD7B
:1021AC002A4800F09BFA32492046FFF71FFB08B182
:1021BC00FFF71EFF2F492046FFF718FB50B12E4B9F
:1021CC00224800221A602D4A136843F400631360FE
:1021DC0000F084FA2A492046FFF708FB38B1274A59
:1021EC001A48136823F04003136000F077FA25496E
:1021FC002046FFF7FBFA40B1234B244AD3F8203397
:10220C001248283B138000F069FA044800F066FA83
:10221C001F48BDE8104000F061BA00BFE700002085
:10222C00CA030020EB030020A903002000000020BB
:10223C006703002094020020460300207302002054
:10224C00080100208803002010020020D602002084
:10225C004200002021000020B502002004030020D1
:10226C00EF0100206B0100208C010020AD0100204B
:10227C00CE0100205202002080140020F00D00201E
:10228C00310200204A010020B80A002094140020DA
:10229C002503002008B500F085FA064B187043079B
:1022AC0007D500F073FA044B1860BDE80840FFF73F
:1022BC00B3BE08BDA0140020DC1400200F49D1F8D7
:1022CC00883043F47003C1F888300D4B1A68002035
:1022DC0042F001021A6098601A6822F0A85222F4A7
:1022EC0010221A604FF48052DA601A6822F48022AD
:1022FC001A6098614FF000638B60704700ED00E04E
:10230C0000100240124B04221A70124B1A68124B26
:10231C00DA639A6900229A61996940F608000143D0
:10232C009961996941F040019961996941F4804141
:10233C009961D969DA61DA690243DA61DA6942F4DE
:10234C00A042DA61DA6942F06002DA61704700BFDC
:10235C00E8140020F4140020002C0140124B03223E
:10236C001A70124B1A68124B5A639A6900229A61BE
:10237C00996940F6080001439961996941F4A041BB
:10238C009961996941F070019961D969DA61DA69E9
:10239C000243DA61DA6942F48042DA61DA6942F0C6
:1023AC004002DA61704700BFE8140020F4140020EA
:1023BC00002C0140104B01221A70104B9A6900221C
:1023CC009A61996940F6080001439961996941F451
:1023DC0080419961996941F040019961D969DA614B
:1023EC00DA690243DA61DA6942F48042DA61DA6965
:1023FC0042F04002DA617047E8140020002C0140E2
:10240C003A4A70B54BF29873394D1360B3FBF0F048
:10241C00384B28601A6E384C42F400621A66DA6C3B
:10242C0042F00102DA644FF0904300261A6822F45D
:10243C0040321A601A6842F400321A601A6822F4A8
:10244C0040221A601A6842F400221A601A6822F4B8
:10245C0040121A601A6842F400121A601A6822F4C8
:10246C0040021A601A6842F400021A605A6A42F07A
:10247C0001025A625A6A42F010025A625A6A42F4D3
:10248C0080725A625A6A42F480525A62236A2662F5
:10249C00FFF790FF2B68E3626422B3FBF2F3174A59
:1024AC0001331360164B1E70236A43F00103236241
:1024BC00236A43F010032362236A43F4807323627C
:1024CC00236A43F480532362A26940F608010A434D
:1024DC00A261E3690B43E361636C43F400436364FF
:1024EC00236843F00103236070BD00BFF814002083
:1024FC00EC14002000100240002C0140E4140020D9
:10250C00E0140020104B02221A70104B9A69002222
:10251C009A61996940F6080001439961996941F003
:10252C0050019961996941F4A0419961D969DA61C5
:10253C00DA690243DA61DA6942F04002DA61DA6997
:10254C0042F4A042DA617047E8140020002C0140EC
:10255C00014B1878704700BFE81400200E4B0F4950
:10256C001A6810440E4A18601268013A904228BF4B
:10257C001A600C4A1B681268B3FBF2F20A700A4A22
:10258C001278032A02D1094A53637047042A04BF04
:10259C00064AD363704700BFF4140020E0140020F7
:1025AC00EC140020E4140020E8140020002C01405E
:1025BC000C4B0D491A68824294BF0022121A1A6001
:1025CC000A4A1B681268B3FBF2F20A70084A1278C6
:1025DC00032A02D1074A53637047042A04BF054AF1
:1025EC00D3637047F4140020E0140020E41400209E
:1025FC00E8140020002C0140431E622B0DD8074B21
:10260C001870074B1B685843064B1860064B5863F1
:10261C00D8635A6942F001025A617047E0140020F5
:10262C00E4140020F4140020002C0140244B1A6EFA
:10263C0042F4804210B51A66DA6C42F00202DA6497
:10264C00204B1A6822F440521A601A6842F4005265
:10265C001A601A6822F440421A601A6842F4004266
:10266C001A601A6A42F0E0621A621A6A42F0E04298
:10267C001A62154B1A6842F02C021A600021DA68B3
:10268C00D960DA6842F4CF7242F00102DA600F4A84
:10269C0020201024C2F8840182F8254350601A6867
:1026AC0042F001021A6011221A85094B094A19706D
:1026BC00094B1970137843F00503137010BD00BF5C
:1026CC0000100240000400480038014000E100E026
:1026DC0004150020FC140020051500200A4A0023D4
:1026EC0030B513700578094C19469D4202D801B1DA
:1026FC00137030BD10F8011F2185E1690906FCD566
:10270C000133DBB20121F0E7041500200038014051
:10271C001948838CDBB2A3F120025E2AF0B50DD8E8
:10272C0016490A788C18013263709BB20A700385C3
:10273C00114A136A43F020031362F0BD0D2BF7D13D
:10274C000E4A0F4915780F4C00230B701E46DFB252
:10275C000133581EC0B285420AD806B10F7000234F
:10276C001370094A2570137843F004031370DFE7E4
:10277C00D05CE0540126EAE7003801403415002013
:10278C00551500200C150020FC140020034A0448A9
:10279C00137823F004031370704700BFFC1400205F
:1027AC000C150020014B1878704700BFFC1400205A
:1027BC00DFF834D0002103E00C4B5B58435004315C
:1027CC000B480C4B42189A42F6D30B4A02E00023FA
:1027DC0042F8043B094B9A42F9D3FFF76FFD00F026
:1027EC0011F8FEF745FBFEE700000120B8280008B1
:1027FC0000000020100400201004002058150020B8
:10280C00FEE7000070B50D4E0D4CA41BA410002566
:10281C00A54209D10B4E0C4C00F018F8A41BA410C7
:10282C000025A54205D170BD56F8253098470135D5
:10283C00EEE756F8253098470135F2E7B028000846
:10284C00B0280008B0280008B4280008F8B500BF6C
:10285C00F8BC08BC9E467047F8B500BFF8BC08BC75
:04286C009E467047CD
:102870000000000000000000010203040607080930
:10288000A0860100400D0300801A060000350C00F0
:1028900040420F0080841E0000093D0000127A00B3
:1028A0000024F40000366E010048E801006CDC02F0
:0428B000B10100086A
:0428B4008D0100088A
:1028B8000462616E6B000000000000000000000070
:1028C8000000000000000000000000000000000000
:1028D8000005626F6F7374000000000000000000C4
:1028E80000000000000000000000000000000000E0
:1028F8000000046275636B00000000000000000027
:1029080000000000000000000000000000000000BF
:1029180000000003433A200000000000000000000F
:10292800000000000000000000000000000000009F
:102938000000000003453A200000000000000000ED
:10294800000000000000000000000000000000007F
:10295800000000000003493A2000000000000000C9
:10296800000000000000000000000000000000005F
:10297800000000000000034F3A20000000000000A3
:10298800000000000000000000000000000000003F
:1029980000000000000000020A0D00000000000016
:1029A800000000000000000000000000000000001F
:1029B800000000000000000004636F6E7600000055
:1029C80000000000000000000000000000000000FF
:1029D80000000000000000000003637031000000E8
:1029E80000000000000000000000000000000000DF
:1029F8000000000000000000000004637372730010
:102A080000000000000000000000000000000000BE
:102A1800000000000000000000000005646163641D
:102A28006E00000000000000000000000000000030
:102A38000000000000000000000000000564616361
:102A48006D6E0000000000000000000000000000A3
:102A580000000000000000000000000000056461A4
:102A6800636D780000000000000000000000000016
:102A780000000000000000000000000000000664E4
:102A88006163727074000000000000000000000024
:102A98000000000000000000000000000000000529
:102AA8006461637570000000000000000000000011
:102AB800000000000000000000000000000000000E
:102AC8000364632B00000000000000000000000009
:102AD80000000000000000000000000000000000EE
:102AE800000664727664697300000000000000004C
:102AF80000000000000000000000000000000000CE
:102B0800000005647276656E000000000000000099
:102B180000000000000000000000000000000000AD
:102B280000000005666C636C720000000000000085
:102B3800000000000000000000000000000000008D
:102B48000000000004666C616700000000000000DF
:102B5800000000000000000000000000000000006D
:102B68000000000000046C6F636B000000000000B0
:102B7800000000000000000000000000000000004D
:102B88000000000000000124000000000000000018
:102B9800000000000000000000000000000000002D
:102BA800000000000000000000000000303030305D
:102BB80030303000047061737300000000000000C2
:102BC80000000000000000000000000000000000FD
:102BD80000000000000B4445564053544D33323A30
:102BE80020000000000000000000000000000000BD
:102BF80000000000000004737475700000000000FD
:102C080000000000000000000000000000000000BC
:102C180000000000000000057462616E6B00000097
:102C2800000000000000000000000000000000009C
:102C380000000000000000000474656D70000000D2
:102C4800000000000000000000000000000000007C
:102C58000000000000000000000474696D650000B9
:102C6800000000000000000000000000000000005C
:102C7800000000000000000000000474696D3100CD
:102C8800000000000000000000000000000000003C
:102C9800000000000000000000000004766F6C7463
:102CA800000000000000000000000000000000001C
:102CB80000000000000000000000000000093D00C6
:04000005080027BD0B
:00000001FF
