:020000040800F2
:1000000000000120152A0008C1100008C3100008D4
:10001000C5100008C7100008C91000080000000043
:10002000000000000000000000000000CB100008ED
:10003000CD10000800000000CF100008D11000080B
:10004000652A0008652A0008652A0008652A000854
:10005000652A0008652A0008652A0008652A000844
:10006000652A0008652A0008652A0008652A000834
:10007000652A0008652A0008652A0008652A000824
:10008000652A0008652A00081D100008652A000876
:10009000652A0008652A0008652A0008652A000804
:1000A000652A0008652A0008652A0008652A0008F4
:1000B000652A00080000000000000000652A000812
:1000C000652A00080000000000000000652A000802
:1000D00000000000DD0F0008652A00080000000095
:1000E000652A0008652A00080000000000000000E2
:1000F0000000000000000000000000000000000000
:10010000000000000000000000000000652A000858
:100110000000000000000000652A0008652A0008B1
:10012000652A0008652A0008652A0008652A000873
:10013000652A000800000000000000000000000028
:10014000652A000801100008652A0008652A0008D1
:10015000652A0008652A0008652A0008652A000843
:10016000652A0008652A0008652A000800000000CA
:10017000652A0008652A0008000000000000000051
:0C018000652A0008652A0008652A0008AE
:10018C0010B5054C237833B9044B13B10448AFF3C5
:10019C0000800123237010BD040800200000000023
:1001AC00B02A000808B5034B1BB103490348AFF351
:1001BC00008008BD0000000008080020B02A0008DC
:1001CC0010B5084B044618684FF47A73B0FBF3F083
:1001DC0000F06AF8002221464FF0FF3000F030F8B2
:1001EC00002010BD0008002008B5032000F016F810
:1001FC000020FFF7E5FF00F0A5FE002008BD000081
:10020C00024A136801331360704700BF20080020B6
:10021C00014B1868704700BF20080020074AD368BC
:10022C0023F4E0631B041B0C43F0BF63000243F494
:10023C00003300F4E0600343D360704700ED00E04E
:10024C00174B30B5DC68C4F30224C4F10703251D39
:10025C00042B28BF0423062D4FF0010505FA03F3E8
:10026C0003F1FF338CBF033C00241940A14005FA75
:10027C0004F4013C2240002842EA01024FEA021237
:10028C00AFBF00F1604000F00F00064BD2B2A5BF2B
:10029C0000F56140D2B21A5480F8002330BD00BF83
:1002AC0000ED00E014ED00E00138B0F1807F0AD2DF
:1002BC00064B074A5860F02182F8231000200722D1
:1002CC0098601A6070470120704700BF10E000E092
:1002DC0000ED00E0044B1A6804280CBF42F0040245
:1002EC0022F004021A60704710E000E0704708B575
:1002FC00FFF7FCFF08BD0000024B186800F4C0605B
:10030C00704700BF00700040164B1A68B0F5007FB4
:10031C0002F4C0621AD1B2F5007F13D01A681249E8
:10032C0022F4C06242F400721A60104A1268B2FBE6
:10033C00F1F132224A4312B15969490504D45B697F
:10034C005B050DD400207047013AF4E7B2F5806FDD
:10035C001FBF1A6822F4C06242F480621A60F1E78F
:10036C00032070470070004040420F00000800203E
:10037C0037B51E4DAB6DDA00044618D5FFF7BCFF40
:10038C00B0F5007F23D1802C29D9A02C8CBF022062
:10039C000120174A136823F0070303431360136803
:1003AC0003F00703181A18BF012003B030BDAB6D62
:1003BC0043F08053AB65AB6D03F080530193019B0D
:1003CC00FFF79AFFAB6D23F08053AB65D8E7802C19
:1003DC0007D808D0A4F1700358425841D9E700203F
:1003EC00D7E70320D5E70220D3E700BF0010024077
:1003FC00002002402F4B9A6812F00C0F10B509D058
:10040C009A6802F00C020C2A2DD1DA6802F0030271
:10041C00012A28D11A682849120755BFD3F894200D
:10042C001A68C2F30322C2F3031251F8222099680E
:10043C0011F00C0F0CBF10460020996801F00C0154
:10044C000C2930D1DC68D868C0F30210411C04F0D0
:10045C000300022819D0032826D0B2FBF1F2D86889
:10046C00C0F3062017E09A6802F00C02042A07D0A9
:10047C009A6802F00C02082A04D110480022DCE72A
:10048C000F48FBE700200246D7E7DA680C48C2F3B6
:10049C000622B0FBF1F0DB68C3F341630133504338
:1004AC005B00B0FBF3F010BDDA680448C2F306221F
:1004BC00EFE700BF00100240D82A000800127A00B3
:1004CC000024F40003682DE9F3410546D80639D51C
:1004DC00AB4CA36813F00C0F62D12368990703D5BA
:1004EC00AB690BB901207FE02368286A1A0756BF55
:1004FC00D4F8943023681B0903F0F00383423AD2FA
:10050C00FFF736FF0028EDD1236843F00803236082
:10051C0023682A6A23F0F003134323606368EA69B3
:10052C0023F47F4343EA02236360FFF763FFA3686E
:10053C00944AC3F30313D35CD840934B1860002048
:10054C00FFF73EFE2B68D80761D42B68990700F1A2
:10055C00A9802B681A0700F1E7802B685B0700F174
:10056C0015812B689A0600F17C81AA6A002A40F05A
:10057C00A381002038E0236843F00803236023683C
:10058C0023F0F003034323606368EA6923F47F4399
:10059C0043EA02236360FFF7EBFE0028C5D0A1E716
:1005AC00AB6923B3236843F001032360FFF730FEEC
:1005BC00064623689B0711D5236843F00803236084
:1005CC0023682A6A23F0F003134323606368EA6903
:1005DC0023F47F4343EA02236360B3E7FFF718FE7B
:1005EC00801B0228E5D9032002B0BDE8F081236806
:1005FC0023F001032360FFF70BFE064623689F07D9
:10060C00A0D5FFF705FE801B0228F7D9EBE75C4C61
:10061C00A36803F00C03082B09D0A36803F00C03A8
:10062C000C2B0BD1E36803F00303032B06D12368D7
:10063C009A038AD56B68002B87D153E76B68B3F5A7
:10064C00803F10D1236843F480332360FFF7E0FD33
:10065C00064623689B033FF578AFFFF7D9FD801B57
:10066C006428F6D9BFE7B3F5A02F04D1236843F46F
:10067C0080232360E6E7226822F48032226022681D
:10068C0022F480222260002BE0D1FFF7C1FD064648
:10069C0023689F037FF559AFFFF7BAFD801B6428D1
:1006AC00F6D9A0E7364CA36803F00C03042B09D051
:1006BC00A36803F00C030C2B13D1E36803F00303C2
:1006CC00022B0ED123685E0503D5EB68002B3FF49B
:1006DC0009AF63682A6923F0F85343EA0263636045
:1006EC0037E7EB687BB1236843F480732360FFF733
:1006FC008FFD064623685805EBD4FFF789FD801B58
:10070C000228F7D96FE7236823F480732360FFF77F
:10071C007FFD0646236859057FF51BAFFFF778FD73
:10072C00801B0228F6D95EE76B69154C9BB1D4F897
:10073C00943043F00103C4F89430FFF769FD06468A
:10074C00D4F894309F073FF508AFFFF761FD801B8D
:10075C000228F5D947E7D4F8943023F00103C4F804
:10076C009430FFF755FD0646D4F8943098077FF582
:10077C00F4AEFFF74DFD801B0228F5D933E700BF1F
:10078C0000100240C82A000800080020794CA36D14
:10079C00D90027D4A36D43F08053A365A36D03F058
:1007AC0080530193019B0127734E3368DA051BD5E7
:1007BC00AB68012B29D1D4F8903043F00103C4F875
:1007CC009030FFF725FD41F288380646D4F890307A
:1007DC00980740D5002F3FF4C4AEA36D23F080538F
:1007EC00A365BEE60027DFE7336843F4807333600C
:1007FC00FFF70EFD80463368DB05D9D4FFF708FD03
:10080C00A0EB08000228F6D9EDE6052B06D1D4F8AA
:10081C00903043F00403C4F89030CCE7D4F8902027
:10082C0022F00102C4F89020D4F8902022F00402A7
:10083C00C4F89020002BC4D1FFF7EAFC41F28838B1
:10084C000646D4F890309907C4D5FFF7E1FC801B1D
:10085C004045F6D9C7E6FFF7DBFC801B4045B5D910
:10086C00C1E66B6A434C9BB1D4F8983043F001035A
:10087C00C4F89830FFF7CCFC0646D4F898309B07A8
:10088C003FF573AEFFF7C4FC801B0228F5D9AAE62E
:10089C00D4F8983023F00103C4F89830FFF7B8FC73
:1008AC000646D4F898309F077FF55FAEFFF7B0FC93
:1008BC00801B0228F5D996E62E4CA36803F00C0396
:1008CC000C2B3FF40FAE2368022A23F080732360B5
:1008DC0036D1FFF79DFC0646236898012AD4AB6BF2
:1008EC006A6BDB0643EA0223EA6A13432A6B013A7A
:1008FC0043EA0213EA6B5208013A43EA42532A6C68
:10090C005208013A43EA4263E360236843F0807380
:10091C002360E36843F08073E360FFF779FC0546DE
:10092C00236899013FF525AEFFF772FC401B0228A6
:10093C00F6D958E6FFF76CFC801B0228CCD952E69E
:10094C0023681A015EBFE36823F00303E360E368E6
:10095C0023F0887323F48033E360FFF759FC0546DA
:10096C0023689B017FF505AEFFF752FC401B022864
:10097C00F6D938E60010024000700040564A136861
:10098C0003F007038B422DE9F04105460E462BD3AD
:10099C002B68D90735D429688A0700F183804E4A21
:1009AC00136803F007039E42C0F0848011F0040F1B
:1009BC004A4C40F08A800B0706D5A3682A6923F4B9
:1009CC00605343EAC203A360FFF714FDA368444AD3
:1009DC00C3F30313D35CD840424B18600020FFF7DD
:1009EC00EFFB0020BDE8F081136823F007030B43F5
:1009FC001360136803F007039942C9D00120BDE8C6
:100A0C00F0816A68354C032A23681CD113F0007FEF
:100A1C00F4D0A36823F003031343A360FFF7F8FBA0
:100A2C006B68032B074641F2883818D1A36803F092
:100A3C000C030C2BAFD0FFF7EBFBC01B4045F5D9DB
:100A4C000320BDE8F081022A02D113F4003FDFE756
:100A5C0012B913F0020FDBE713F4806FD8E7022B07
:100A6C000AD1A36803F00C03082B94D0FFF7D0FB3A
:100A7C00C01B4045F5D9E3E773B9A36813F00C0F1D
:100A8C0089D0FFF7C5FBC01B4045F6D9D8E7FFF767
:100A9C00BFFBC01B4045D3D8A36803F00C03042B49
:100AAC00F5D178E70D4AA868936823F0F003034367
:100ABC00936074E7136823F00703334313601368E0
:100ACC0003F007039E4299D170E7A368EA6823F408
:100ADC00E0631343A3606EE7002002400010024065
:100AEC00C82A000800080020014B1868704700BF96
:100AFC0000080020524BDA6C42F40052DA64DA6CD3
:100B0C0042F00302DA644F4B1A6842F003021A6097
:100B1C001A6842F00C021A604FF090431A6842F4C3
:100B2C0040521A601A6842F030021A601A6842F099
:100B3C000C021A601A6842F0C0021A601A6842F479
:100B4C0040721A60404B9A6890006AD43F4A93688E
:100B5C0043F4803393603C4B9A68D10066D53A4B92
:100B6C001A46996811F03F0F996864D141F0004121
:100B7C0099609368002BFCDB354B0021196093685E
:100B8C0043F001039360304B1A68D207FCD51A6806
:100B9C0042F001021A605A6842F00C025A601A6B59
:100BAC0000221A63196B41F470711963196B41F4CB
:100BBC0080011963596B41F4E0715963196B41F071
:100BCC0005011963D96CDA64D96C41F01051D96400
:100BDC00D96C41F40001D964D96C41F4C031D964A9
:100BEC00D96C41F43061D964D96C41F00301D964FA
:100BFC0059695A6199699A61586916490143596151
:100C0C009869154901439961D96841F48041D960CB
:100C1C00124B4FF48021C3F8801183F81223196012
:100C2C0070479A6822F000529A608CE79A6842F0FA
:100C3C0080529A6090E741F03001996091E700BFD3
:100C4C00001002400004004800000450000304504F
:100C5C00240800206DDBB62D6DDBB60500E100E04D
:100C6C00064B1A6842F00C021A605A6842F00C02E9
:100C7C005A609A6842F004029A607047000004506F
:100C8C00064B1A6842F040021A605A6842F0400261
:100C9C005A609A6842F008029A607047000004504B
:100CAC000F4B4FF47A721A600E4A936D43F0005357
:100CBC0093654FF09042136843F4406313600A4B02
:100CCC00DA6B42F48032DA631A6842F480321A60CA
:100CDC001A6A00221A621A6A42F07A721A62704711
:100CEC002C0800200010024000740040064B0749FD
:100CFC0040F2FF701860064B1A6A114019621A6AAA
:100D0C0002431A62704700BF280800200000FF0F42
:100D1C0000740040074A1368182B09D94B3B136029
:100D2C00054A0649106A01401162116A0B431362AD
:100D3C00704700BF28080020007400400000FF0F1F
:100D4C00084A136840F6E1718B4209D84B331360A3
:100D5C00054A0649106A01401162116A0B4313627D
:100D6C00704700BF28080020007400400000FF0FEF
:100D7C0040F6FF73984228BF1846064B1860064B86
:100D8C001A6AC2F30B021A621A6A42EA004018622B
:100D9C00704700BF2C08002000740040124A936D6D
:100DAC0043F000439365114B1A6942F001021A613A
:100DBC009A6842F002029A604FF4A0729A610C4A4F
:100DCC0002212020C2F8881182F841039160094A5F
:100DDC000021116051609160D16011611A6942F07B
:100DEC0004021A61704700BF00100240007C0040F2
:100DFC0000E100E030080020164B1A680132F92A95
:100E0C001A6004D95A6801325A6000221A605A6872
:100E1C00B2F57A7F04D39A6801329A6000225A6044
:100E2C009A683B2A04D9DA680132DA6000229A60A7
:100E3C00DA683B2A04D91A6901321A610022DA6095
:100E4C001A69172A04D95A6901325A6100221A61A7
:100E5C00704700BF30080020004870473008002061
:100E6C0010B596B00122102305930B92002310921B
:100E7C004F220C931292802320220D931192022365
:100E8C00072205A80F93139214931593FFF71AFBDF
:100E9C0000B1FEE70F22032302900390049004217B
:100EAC0068468DE80C00FFF769FD00B1FEE74FF4D2
:100EBC000070FFF729FA044600B1FEE7FFF714FEB5
:100ECC004FF47A73B0FBF3F0FFF7EEF90420FFF761
:100EDC0001FA224621464FF0FF30FFF7B1F916B068
:100EEC0010BD000008B5FFF77FF9FFF7B9FF00F060
:100EFC00ADFBFFF753FF732001F01AFC01F0C2FCAD
:100F0C00FFF7F8FD00F0E6F8FFF7CAFE002000F04E
:100F1C0091FB0B4C00F0AEF9206030B101F074FB8A
:100F2C0000F0C6FC01F0C2F9F4E701F06DFB00F033
:100F3C00BFFC00F09FFB00F029FA00F0DBFAE9E7B8
:100F4C0048080020214B07B51A6E42F001021A66C0
:100F5C001A6E02F001020092009A9A6D42F08052D1
:100F6C009A659B6D03F0805301930320019BFFF75F
:100F7C0055F9002211466FF00B00FFF761F90022C2
:100F8C0011466FF00A00FFF75BF9002211466FF073
:100F9C000900FFF755F9002211466FF00400FFF726
:100FAC004FF9002211466FF00300FFF749F90022B8
:100FBC0011466FF00100FFF743F9002211464FF084
:100FCC00FF30FFF73DF903B05DF804FB0010024061
:100FDC0010B5064C064AE36913609B0601D501F077
:100FEC00C3FC236A4FF0FF33236210BD003801406D
:100FFC005008002008B5FFF7FFFE044A53686FEA5B
:10100C0053236FEA4323536008BD00BF007C0040AC
:10101C0038B5254D254C2B68236059070AD5286C0B
:10102C00234B0021188080B200F0CEFC2B6843F0DB
:10103C0004032B6023681A0706D51B4A136843F078
:10104C000803136000F0A4FC23685B0623D5164C40
:10105C00174DD4F880002880012180B200F0B4FC38
:10106C00D4F884002880012180B200F0ADFCD4F8C3
:10107C0088002880012180B200F0A6FCD4F88C00F6
:10108C002880012180B200F09FFC00F08FFC2368C7
:10109C0043F040032360044A13686FEAD3236FEADA
:1010AC00C323136038BD00BF00000450500800205B
:1010BC004C0800207047FEE7FEE7FEE7FEE77047AE
:1010CC007047704708B5FFF79BF8BDE80840FFF77D
:1010DC000EB90000434ADFF894C1434843492DE957
:1010EC00F84300231360424ADFF884E11360414A5D
:1010FC00414F424E424D137099461C465FFA83F89D
:10110C00B8F10F0F5BD1B9F1000F01D082F800805C
:10111C00CCF83C40CEF83C40CC63FC63F463EC630D
:10112C00C463FFF799FE374B1860374B1C60374B85
:10113C001C60374B31221A60364B1C60364B012237
:10114C001A60364B1C80364B40F698021A80354A92
:10115C004FF4E1731380344A1380344A1380344AB9
:10116C001380344B4FF434721A80334B4FF47A7231
:10117C001A80324B1C80324B1C70324B40F6FF7283
:10118C001A80314B40F2FF721A80304B42681C605F
:10119C002F4B1C602F4B1C602F4B1C602F4B1A606D
:1011AC002F4B19221A602F4B00201C70FFF7E0FD0B
:1011BC002D4AD36C43F00303D364BDE8F8834CF899
:1011CC0023404EF8234047F8234046F8234045F887
:1011DC00234040F8234041F823404FF001090133EC
:1011EC008CE700BF440A00205C090020640A002040
:1011FC003009002040090020540800209C080020E1
:10120C00A4090020500A0020D80A0020E40800207D
:10121C0048090020A80A002038090020C00A002034
:10122C00A2090020FE090020E0080020C40A0020CA
:10123C00EA0A0020E8090020A0090020EA090020A1
:10124C0098080020B40A0020E80A0020CC0A0020EC
:10125C004409002034090020B00A00202C09002089
:10126C00D00A0020FC09002000100240E8080020F1
:10127C00000A0020024B1868C0F3C020704700BF62
:10128C0048090020394B3A481A6812F4807F70B52F
:10129C005AD1C16B40F25954A14205D842F4807224
:1012AC001A60344A643111801A6822F400721A6090
:1012BC001A68D40547D591054ED42E49C06B0C88BD
:1012CC00A0421CD2241A2C4D322C2C6017D92B4D39
:1012DC0008802C881E2C94BF2824193C2C80284C68
:1012EC00284D2468646804F2EE26B6F57A7F28BF90
:1012FC00FA3C42F4007234BF2E602C601A600A88EB
:10130C00904220D9821A1C4C322A22601BD91B4CC9
:10131C001D4D22882D880880193292B2AA42228053
:10132C00174A1849126888BF2580526802F2EE20CD
:10133C00B0F57A7F24BFFA3A0A601A6838BF0860A1
:10134C0042F400721A6070BDC46B40F296518C422C
:10135C00AED922F44072AAE70949096848680949DC
:10136C0009688842EFD122F40072EBE748090020AB
:10137C005C09002052090020AC0A0020EA0A002077
:10138C00500A0020F8090020E00800205049F8B568
:10139C000B6813F0100F0C4640F082805F067FD56F
:1013AC005E0303D5BDE8F840FFF76CBF494EF26B06
:1013BC00B2F5C87F07D8484A43F480630B601388A2
:1013CC0001331380F8BD40F6B4108242F3D8B2F565
:1013DC00347FF0D940F6A5108242ECD8DD0560D4FC
:1013EC0040F259518A4206D843F480733B4923603A
:1013FC0002F164030B80236823F4007323602368D9
:10140C00D8054DD5990558D4344D2B889A421DD208
:10141C009A1A334B322A1A6018D9324A13881E2B67
:10142C0046D828231380F36B2B802F4B2F4A1B6835
:10143C005B6803F2EE21B1F57A7F24BFFA3B1360AF
:10144C00236838BF116043F400732360F36B2A8860
:10145C00934225D99B1A224A322B136020D9214F53
:10146C003B8819333B80FFF76BFC214B3A881B8878
:10147C009A4202D93B80FFF74DFCF36B2B801A4B41
:10148C001A4A1B685B6803F2EE21B1F57A7F24BF20
:10149C00FA3B1360236838BF116043F40073236078
:1014AC00F8BD40F296518A42A9D923F44073A5E7BE
:1014BC00193B1380FFF72EFCB5E70B4A12685168F5
:1014CC000A4A12689142EBD123F40073E7E700BF9C
:1014DC0048090020A4090020EA0900205209002034
:1014EC00AC0A0020EA0A0020500A0020F80900206B
:1014FC00E0080020464BDA6B464BB2F5966FF0B520
:10150C00454C464D6BD2C2F5A26004304B26B0FB65
:10151C00F6F106FB1101424801602888411A21802E
:10152C00196841F48031196019684E045DD4B2F524
:10153C00487F06D241F480413A48196002F16401B7
:10154C000180196821F40041196019684C045DD5BB
:10155C00080451D433480488A2421CD2A41A304E39
:10156C00322C346017D9304E028034881E2C94BF34
:10157C002824193C34802D4C2D4E2468646804F2C8
:10158C00EE27B7F57A7F28BFFA3C41F4004134BF0F
:10159C0037603460196001888A4237D9511A204C5F
:1015AC003229216032D9204C0280204A21881268CD
:1015BC002D885268193189B202F2EE20A94221809D
:1015CC001B4988BF2580B0F57A7F24BFFA3A0A60A0
:1015DC001A6838BF086042F400421A60F0BD2988CE
:1015EC002180196821F480319DE740F2A2308242BB
:1015FC00ABD921F44041A7E70C4A126850680C4A59
:10160C001268904204BF21F400411960F0BD00BF84
:10161C009C0800204809002050090020E008002008
:10162C00AC0A0020580A0020EA0A0020500A0020C8
:10163C005C0A00204FF090435A6918B142F08002C6
:10164C005A61704722F08002FAE70000084AD36C16
:10165C0043F00303D3644FF0904300201A6822F444
:10166C0040421A601A6842F480421A60FFF7E2BFE7
:10167C00001002402DE9F84F01F0B4F84B4A136802
:10168C0013F01105144640F08F8013F4A05F24D0A2
:10169C002846FFF76DFB01F02DF82846FFF7CAFF2F
:1016AC002368580644BF23F040032360404B1B883B
:1016BC00092B79D83F4A4049136801338B42136098
:1016CC0072D923683D4823F4A053002143F40063EE
:1016DC00016023601160BDE8F88F59065BD513F0EB
:1016EC00800FDFF8E880364F4AD1364E364D3388BE
:1016FC00EA6BDFF8DCA0DFF8DCB0DFF8DC900A3B4B
:10170C009A4215D2DAF83C30BBF800209A1AB9F894
:10171C0000300F3B9A4202D2012001F069F8BBF86D
:10172C000030DAF83C209A4202D2012001F060F835
:10173C003388EA6B0A339A4202D9012001F07CF813
:10174C00BBF80030DAF83C20D21AB9F800300F336D
:10175C009A4202D9012001F06FF8236843F080030C
:10176C002360D8F800305B6803F27712B2F57A7F09
:10177C0025BF6FF41C729B183A603B60BDE8F88F74
:10178C00D8F800104868396888420DD123F08003DE
:10179C001360BDE8F88F23F080030128136003D099
:1017AC00BDE8F84F00F0A6BFBDE8F88F480900204F
:1017BC00EA090020C80A00203F0D0300A80A0020F7
:1017CC00EC090020A209002054080020500A002037
:1017DC00E8080020C00A0020FE090020124A134924
:1017EC00F0B50A25124C02F8015B002323701E464B
:1017FC0030270A2B02D106B12370F0BD8842B0FB12
:10180C00F1F603F1010388BF06F1300EF6B201FBCD
:10181C0016008CBF82F800E01770B1FBF5F1DBB25B
:10182C0001320126E5E700BFEC0A002000CA9A3B12
:10183C0040090020F0B50B780778BB424FF000034D
:10184C0009D10B4C1A4623701E460123D5B2AF4268
:10185C0003D806B125701846F0BD86188D18767819
:10186C006D780132AE4218BF00230126EEE700BFAF
:10187C00400900200C49002330B51A460B60044681
:10188C000132656844F8045BD2B20E2A2B44F7D1BE
:10189C00064C2270026C826313440B600F22B3FB64
:1018AC00F2F3C36330BD00BF600A00204009002082
:1018BC0070B52A4C236899070DD52948FFF7DAFF34
:1018CC002848FFF7D7FF2848FFF7D4FF236823F0F9
:1018DC000603236017E042F204021342234A07D1A5
:1018EC0001231360FFF7BCF9236843F00403F0E70E
:1018FC001268032A02D923F00403EAE71C4A92680F
:10190C0012F00C0FF7D023681A0712D51948FFF7FD
:10191C00B1FF1948FFF7AEFF1848FFF7ABFF1848A7
:10192C00FFF7A8FF236823F4005323F00803236078
:10193C0070BD144E144D326851682A689142F7D02C
:10194C005B07F5D4114B01221A60FFF799F9336844
:10195C005B682B60236843F40053E8E748090020D8
:10196C00E8080020000A0020540800203809002054
:10197C0000000450A40900209C0800205C090020F1
:10198C00640A0020500A0020E4080020480A0020C5
:10199C00044A136843F002031360034A13680133CB
:1019AC001360704748090020E00A0020044A1368BD
:1019BC0043F008031360034A136801331360704744
:1019CC0048090020E00A00205D4A1368013310B575
:1019DC001360002940F08F805A4C2368022B7ED074
:1019EC00032B00F08280012B40F0A98056490A6835
:1019FC0001320A60554A106401332360544C236849
:101A0C00D80741D4514B534ADB6BB3F5967F05D2C3
:101A1C0011888B4202D2A3F11901118012889B1AF2
:101A2C004D4A12880F3293422ED94C4BDB6BB3F5D7
:101A3C007A7F11D200F05EFE2368190541BF23F4B2
:101A4C00006343F480532360454B55BF43F48053EC
:101A5C004FF4807223601A60424BDA6B40F26B7366
:101A6C009A4211D800F046FE23681A0541BF23F4B0
:101A7C00006343F480532360394B55BF43F48053C8
:101A8C004FF4807223601A60374B1B68642B07D9A4
:101A9C00364B1B68642B82BF236823F01003236032
:101AAC00294B1B68B3F57A7F49D9314B1B68B3F5C9
:101ABC007A7F44D92F4B1B68B3F57A7F3FD92549E0
:101ACC0023680A8823F001032360002A37D11F4AB8
:101ADC00D26B43F40063193A0A80236010BD244989
:101AEC000A6801320A601D4A85E722490A680132F8
:101AFC000A601C4A7FE7204B1A68511E03291ED826
:101B0C00DFE801F0020B1117174C2168013121603D
:101B1C001A49086401321A6070E7144C21680131CB
:101B2C0021601749F5E7174C2168013121601649EE
:101B3C00EFE7164C2168013121601549E9E710BD2A
:101B4C00540A002038090020100B0020E80800205F
:101B5C0048090020C00A0020FE090020540800207B
:101B6C00A80A0020000A0020F00900204C090020DF
:101B7C00B80A00203C090020480A0020A4090020D3
:101B8C009C080020E40A0020640A00204C0A002073
:101B9C005C09002010B5184C184800F0CBFEE06B27
:101BAC00FFF71CFE164800F0C5FE164800F0C2FEFA
:101BBC00E06AFFF713FE124800F0BCFE124800F07A
:101BCC00B9FE124800F0B6FE00F00CFE01280DD153
:101BDC000F4800F0AFFE0C4800F0ACFE0D4800F0D2
:101BEC00A9FE0948BDE8104000F0A4BE04280CBFB3
:101BFC0009480A48EDE700BF002C01400F06002001
:101C0C00EC0A0020CE01002029010020E60400206F
:101C1C00C504002007050020C6000020EF010020AD
:101C2C0070B55448544D554C554E00F083FE554BF1
:101C3C001868FFF7D3FD284600F07CFE204600F024
:101C4C0079FE514800F076FE504B1868FFF7C6FD40
:101C5C00284600F06FFE204600F06CFE4C4800F069
:101C6C0069FE4C4B1868FFF7B9FD284600F062FE80
:101C7C00204600F05FFE484800F05CFE474B1868B9
:101C8C00FFF7ACFD284600F055FE204600F052FE52
:101C9C00434800F04FFE434B1868FFF79FFD284662
:101CAC0000F048FE204600F045FE3F4800F042FEA2
:101CBC003E4B1868FFF792FD284600F03BFE20468D
:101CCC0000F038FE3A4800F035FE3A4B1868FFF742
:101CDC0085FD284600F02EFE204600F02BFE3648EF
:101CEC0000F028FE354B1868FFF778FD284600F009
:101CFC0021FE204600F01EFE314800F01BFE314B49
:101D0C001868FFF76BFD284600F014FE204600F023
:101D1C0011FE2D4800F00EFE2C4B1868FFF75EFDEF
:101D2C00284600F007FE204600F004FE284800F08C
:101D3C0001FE306BFFF752FD284600F0FBFD2046FC
:101D4C0000F0F8FD234800F0F5FD706BFFF746FD41
:101D5C00284600F0EFFD204600F0ECFD204600F098
:101D6C00E9FD1D4800F0E6FD2046BDE8704000F09E
:101D7C00E1BD00BF4A010020EC0A0020290100202F
:101D8C0000000450540A0020A40400203C09002048
:101D9C006A050020B80A0020AD010020100B0020BD
:101DAC00FF0300204C09002052020020F009002003
:101DBC00830400204C0A0020F7020020E40A0020D3
:101DCC008C0100203809002039030020480A00202B
:101DDC0093060020B406002007050020F8B56E48D5
:101DEC006E4D6F4C6F4F704E00F0A4FD6F4BD86B67
:101DFC00FFF7F4FC284600F09DFD204600F09AFD0C
:101E0C006B4800F097FD6B4B1888FFF7E7FC2846F2
:101E1C0000F090FD204600F08DFD674800F08AFD33
:101E2C00664BD86BFFF7DAFC284600F083FD2046A2
:101E3C0000F080FD204600F07DFD614800F07AFD49
:101E4C00F86BFFF7CBFC284600F074FD204600F041
:101E5C0071FD5C4800F06EFD3388F86BC01AFFF71B
:101E6C00BDFC284600F066FD204600F063FD564898
:101E7C0000F060FD3088FFF7B1FC284600F05AFDF9
:101E8C00204600F057FD514800F054FD504B188887
:101E9C00FFF7A4FC284600F04DFD204600F04AFD5B
:101EAC004C4800F047FD4C4B1888FFF797FC284630
:101EBC0000F040FD204600F03DFD484800F03AFDA2
:101ECC00474B1888FFF78AFC284600F033FD204664
:101EDC0000F030FD434800F02DFD434B1888FFF710
:101EEC007DFC284600F026FD204600F023FD3F48EF
:101EFC0000F020FD3E4B1888FFF770FC284600F0E0
:101F0C0019FD204600F016FD204600F013FD20467A
:101F1C0000F010FD204600F00DFD364800F00AFDE3
:101F2C00354BD86BFFF75AFC284600F003FD2046D2
:101F3C0000F000FD314800F0FDFC314BD86BFFF791
:101F4C004DFC284600F0F6FC204600F0F3FC2D4832
:101F5C0000F0F0FC2C4BD86BFFF740FC284600F04F
:101F6C00E9FC204600F0E6FC284800F0E3FC284B96
:101F7C00D86BFFF733FC284600F0DCFC204600F061
:101F8C00D9FC204600F0D6FC224800F0D3FC2046B9
:101F9C00BDE8F84000F0CEBC49050020EC0A00205A
:101FAC0029010020E8080020C00A00205408002065
:101FBC008B050020A209002062040020000A0020EA
:101FCC0051060020280500206B0100200000002095
:101FDC00FE09002018030020E00800200801002062
:101FEC00500900207A070020EA0A00209B070020F5
:101FFC00C40A0020200400209C080020730200204A
:10200C00A4090020410400205C090020D602002015
:10201C00640A00200705002010B5884C884800F0A1
:10202C0089FC2368D9074CBF8648874800F082FC9E
:10203C00864800F07FFC864800F07CFC23689A07F9
:10204C004CBF8048804800F075FC804800F072FC62
:10205C00804800F06FFC23685B074CBF79487A48D6
:10206C0000F068FC794800F065FC7B4800F062FCED
:10207C00236818074CBF7348734800F05BFC734827
:10208C0000F058FC754800F055FC2368D9064CBF8D
:10209C006C486D4800F04EFC6C4800F04BFC7048EE
:1020AC0000F048FC23689A064CBF6648664800F06E
:1020BC0041FC664800F03EFC6A4800F03BFC23689B
:1020CC005B064CBF5F48604800F034FC5F4800F092
:1020DC0031FC654800F02EFC2368D8054CBF5948EC
:1020EC00594800F027FC594800F024FC5F4800F0E8
:1020FC0021FC236859044CBF5248534800F01AFC89
:10210C00524800F017FC5A4800F014FC23689A055A
:10211C004CBF4C484C4800F00DFC4C4800F00AFCFD
:10212C00544800F007FC23681B044CBF4548464844
:10213C0000F000FC454800F0FDFB4F4800F0FAFBB6
:10214C00236858054CBF3F483F4800F0F3FB3F481D
:10215C0000F0F0FB494800F0EDFB2368D9044CBFBC
:10216C003848394800F0E6FB384800F0E3FB4448B7
:10217C0000F0E0FB434B1888FFF730FB424800F0BF
:10218C00D9FB324800F0D6FB404800F0D3FB236863
:10219C001A054CBF2B482C4800F0CCFB2B4800F008
:1021AC00C9FB3B4800F0C6FB23689B044CBF254889
:1021BC00254800F0BFFB254800F0BCFB354800F07B
:1021CC00B9FB2368D8034CBF1E481F4800F0B2FB74
:1021DC001E4800F0AFFB304800F0ACFB23682F4CDE
:1021EC0099034CBF1748184800F0A4FB174800F09F
:1021FC00A1FB2B4800F09EFB226852064CBF1148F5
:10220C00114800F097FB114800F094FB254800F0B2
:10221C0091FB23685B034CBF0A480B4800F08AFB18
:10222C000A4800F087FB094800F084FB1E4800F0C8
:10223C0081FB0648BDE8104000F07CBB480900203B
:10224C00630000205907002094020020290100207F
:10225C008400002042000020A5000020F60600208B
:10226C00CD050020AC050020310200209C0300208D
:10227C00100200207B0300201707002030060020EE
:10228C00DD070020EA090020EC0A0020D50600201A
:10229C00DE030020E7000020BD030020A80A002078
:1022AC005A03002072060020070500202DE9F84F84
:1022BC00A54CA64E2368A64813F0010218D1A54BD5
:1022CC001A70A54BA54A1B881380A54A1380336846
:1022DC009B68DA1C3B2A84BF393B0360A14B98BF37
:1022EC0002601888FEF744FD01232360BDE8F88FD7
:1022FC00316802688D6895422ED1012B2CD19A4AF7
:10230C001368DF0607D5AB1C3B2B8ABF3A3D036035
:10231C000560BDE8F88F9548C06BC82853D90325D4
:10232C00256040F2DC45A84251D8236843F00403F1
:10233C00236013685D050FD58D48642505708D48A5
:10234C00C06BC72847D823F4805343F48023136011
:10235C00236843F006032360236803F00602062A71
:10236C00C4D113F0080F844D40D14FF0904043F08E
:10237C000803426942F08002426123604B6803F516
:10238C00FA72B2F57A7F2ABFA3F5FA732A602B6032
:10239C002368DA06AAD59F0633D4012000F06CFA24
:1023AC0000F08AF933685B6803F14B02B2F57A7F6F
:1023BC0022BF6FF467769B192B60236838BF2A60A5
:1023CC0043F0200391E743F480631360ADE743F4DB
:1023DC0080631360ADE723F400631360674A1388CE
:1023EC000021013321601380BDE8F88FD806D2D4C8
:1023FC0048682A6890427FF479AF43F01003236059
:10240C00C6E74A682B689A427FF470AF5C4A5D4F0E
:10241C001388F96BDFF84481DFF878A1DFF878B125
:10242C000A3B9942914661D2DAF83C20BBF8003065
:10243C00B8F80010A2EB030EA1F10F00864553D2A1
:10244C000B449B1A7D2B8CBF0520012000F0D0F98A
:10245C000123BBF80010DAF83C208A4203D2012099
:10246C0000F0C6F90123BBF80020DAF83C10891AF9
:10247C00B8F800200F32914203D9012000F0DCF9AA
:10248C000123B9F80020F96B0A32914230D90120AE
:10249C0000F0D2F933685B6803F14B02B2F57A7F36
:1024AC0025BF6FF467701B182A602B60364DE96BE3
:1024BC0040F2153291420DD82368274E43F0C003E9
:1024CC0023600A204FF4C873338000F0B5F93388C9
:1024DC00A8F80030EA6B40F22A339A427FF606AF36
:1024EC00236823F0400300E70023B2E70023BAE798
:1024FC00002BCFD123685906D8D433685B6803F11D
:10250C004B02B2F57A7F26BF6FF467729B182A6074
:10251C00104A28BF2B6013780133DBB2632B137086
:10252C00C4D91A4B1888FEF723FC0F4A18491368B4
:10253C0023F40063002043F0400308601360FFF7AE
:10254C006BFDFEF7D3FBB1E7A80A0020500A002070
:10255C005809002098080020E0080020FE090020FF
:10256C00EA0A0020E80A002048090020A4090020FB
:10257C00400900205C09002054090020EA090020D1
:10258C00A209002054080020000A0020B40A0020F0
:10259C00F0090020E8080020C00A002010B504460D
:1025AC00134800F0C7F913492046FFF743F908B167
:1025BC00FFF732FD10492046FFF73CF908B1FFF751
:1025CC000DFC0E492046FFF735F908B1FFF7E2FA8A
:1025DC000B492046FFF72EF908B1FFF721FB044801
:1025EC0000F0A8F90748BDE8104000F0A3B900BFFF
:1025FC0029010020B5020020BC070020380700206C
:10260C0021000020EE05002008B500F0F7F9064B7C
:10261C001870430707D500F0E5F9044B1860BDE8C6
:10262C000840FFF7BBBF08BDD40A0020140B0020E4
:10263C000F49D1F8883043F47003C1F888300D4B42
:10264C001A68002042F001021A6098601A6822F0A1
:10265C00A85222F410221A604FF48052DA601A68E1
:10266C0022F480221A6098614FF000638B607047EF
:10267C0000ED00E000100240074B1870074B1B6880
:10268C005843074B1860074B5863D8635A6942F09C
:10269C0001025A61704700BF180B00201C0B002070
:1026AC002C0B0020002C01404FF09042536943F456
:1026BC00006353617047000008B50B4B04221A707D
:1026CC00FFF7F2FF094B1A68094BDA63DA6900224B
:1026DC00DA61DA6942F4006242F00802DA61DA691E
:1026EC0042F06002DA6108BD200B00202C0B0020A8
:1026FC00002C014008B50B4B0020DA69D861DA696F
:10270C0042F04002DA615A6942F001025A61064B0A
:10271C000A221A60FFF7C8FFFFF7AEFF034B012236
:10272C001A7008BD002C0140280B0020200B002043
:10273C00254A264938B5264B264C1360B3FBF0F0DE
:10274C00254B20601A6E42F400621A66DA6C42F075
:10275C000102DA644FF0904300251A6822F440120B
:10276C001A601A6842F400121A601A6822F44002C5
:10277C001A601A6842F480021A605A6A42F4807233
:10278C005A620B6A0D62FFF7B5FF2368CB626422B5
:10279C00B3FBF2F3114A01331360114B1D700B6A3A
:1027AC0043F480730B628A6940F6080002438A6125
:1027BC00CB690343CB614B6C43F400434B640B6814
:1027CC0043F001030B6038BD300B0020002C01409E
:1027DC0080380100240B0020001002401C0B00204C
:1027EC00180B0020014B1878704700BF200B0020FD
:1027FC000B4B0C491A6810440B4A186012680A3AC1
:10280C00904228BF1A601A68084B1B68B2FBF3F39E
:10281C000B70074B1B78042B04BF064BDA63704715
:10282C002C0B0020180B0020240B00201C0B00206C
:10283C00200B0020002C01400A4B0B491A688242E5
:10284C0094BF0022121A1A601A68084B1B68B2FB5C
:10285C00F3F30B70064B1B78042B04BF054BDA63A8
:10286C00704700BF2C0B0020180B00201C0B002005
:10287C00200B0020002C0140632801D8FFF7FCBE80
:10288C0070470000244B1A6E42F4804210B51A6651
:10289C00DA6C42F00202DA64204B1A6822F44052DD
:1028AC001A601A6842F400521A601A6822F4404204
:1028BC001A601A6842F400421A601A6A42F0E06226
:1028CC001A621A6A42F0E0421A62154B1A6842F018
:1028DC002C021A600021DA68D960DA6842F42D7291
:1028EC0042F00202DA600F4A20201024C2F8840160
:1028FC0082F8254350601A6842F001021A601122D6
:10290C001A85094B094A1970094B1970137843F051
:10291C000503137010BD00BF0010024000040048F6
:10292C000038014000E100E03C0B0020340B00209B
:10293C003D0B00200A4A002330B513700578094C72
:10294C0019469D4202D801B1137030BD10F8011F19
:10295C002185E1690906FCD50133DBB20121F0E7E1
:10296C003C0B0020003801401948838CDBB2A3F1EA
:10297C0020025E2AF0B50DD816490A788C1801325F
:10298C0063709BB20A700385114A136A43F02003EB
:10299C001362F0BD0D2BF7D10E4A0F4915780F4C71
:1029AC0000230B701E46DFB20133581EC0B28542A5
:1029BC000AD806B10F7000231370094A25701378DA
:1029CC0043F004031370DFE7D05CE0540126EAE720
:1029DC00003801406C0B00208D0B0020440B0020B4
:1029EC00340B0020034A0448137823F004031370BB
:1029FC00704700BF340B0020440B0020014B1878AB
:102A0C00704700BF340B0020DFF834D0002103E006
:102A1C000C4B5B58435004310B480C4B42189A42F8
:102A2C00F6D30B4A02E0002342F8043B094B9A42CE
:102A3C00F9D3FFF7FDFD00F011F8FEF753FAFEE7AE
:102A4C0000000120102B00080000002004080020CA
:102A5C0004080020900B0020FEE7000070B50D4E1E
:102A6C000D4CA41BA4100025A54209D10B4E0C4CF7
:102A7C0000F018F8A41BA4100025A54205D170BDC8
:102A8C0056F8253098470135EEE756F8253098472B
:102A9C000135F2E7082B0008082B0008082B00086A
:102AAC000C2B0008F8B500BFF8BC08BC9E4670475C
:0C2ABC00F8B500BFF8BC08BC9E4670478F
:102AC80000000000000000000102030406070809D6
:102AD800A0860100400D0300801A060000350C0096
:102AE80040420F0080841E0000093D0000127A0059
:102AF8000024F40000366E010048E801006CDC0296
:042B0800B10100080F
:042B0C008D0100082F
:102B10000641432D493A200000000000000000005B
:102B200000000000000000000000000000000000A5
:102B3000000361646300000000000000000000006A
:102B40000000000000000000000000000000000085
:102B500000000941444320434F4E563A0000000014
:102B60000000000000000000000000000000000065
:102B70000000000941444320494E49543A000000F6
:102B80000000000000000000000000000000000045
:102B900000000000094156472042414E4B3A0000D8
:102BA0000000000000000000000000000000000025
:102BB0000000000000094156472054454D503A009E
:102BC0000000000000000000000000000000000005
:102BD000000000000000044255434B0000000000CC
:102BE00000000000000000000000000000000000E5
:102BF000000000000000000A43524E5420434F4D95
:102C0000503A00000000000000000000000000003A
:102C100000000000000000000643432D493A200058
:102C200000000000000000000000000000000000A4
:102C3000000000000000000000020A0D000000007B
:102C40000000000000000000000000000000000084
:102C5000000000000000000000000A434F4E562014
:102C6000434E543A20000000000000000000000025
:102C7000000000000000000000000006434F462D49
:102C8000493A2000000000000000000000000000A1
:102C900000000000000000000000000009434F4E4B
:102CA000562043483A2000000000000000000000C9
:102CB0000000000000000000000000000008435376
:102CC00020434E543A2000000000000000000000A5
:102CD0000000000000000000000000000000012FC4
:102CE00000000000000000000000000000000000E4
:102CF00000000000000000000000000000000005CF
:102D00004552524F52000000000000000000000039
:102D100000000000000000000000000000000000B3
:102D20000C4558205448524D204143543A0000006D
:102D30000000000000000000000000000000000093
:102D4000000C4558205448524D20434F4E3A000045
:102D50000000000000000000000000000000000073
:102D600000000945585420434E543A20000000000A
:102D70000000000000000000000000000000000053
:102D80000000000945582054454D503A20000000ED
:102D90000000000000000000000000000000000033
:102DA000000000000566616C736500000000000013
:102DB0000000000000000000000000000000000013
:102DC000000000000003666C6700000000000000C7
:102DD00000000000000000000000000000000000F3
:102DE0000000000000000A48495057205349473A64
:102DF00020000000000000000000000000000000B3
:102E0000000000000000000948505320434E543A8F
:102E10002000000000000000000000000000000092
:102E200000000000000000000648532D493A200031
:102E30000000000000000000000000000000000092
:102E40000000000000000000000A49434F4E5620D9
:102E500043483A200000000000000000000000008D
:102E6000000000000000000000000E494E205057F6
:102E700052204552524F523A00000000000000001C
:102E800000000000000000000000000C494E20542B
:102E900048524D204143543A000000000000000019
:102EA0000000000000000000000000000C494E205F
:102EB0005448524D20434F4E3A000000000000009D
:102EC000000000000000000000000000000E494E5D
:102ED000205448524D204552524F523A00000000B3
:102EE0000000000000000000000000000000094990
:102EF0004E4A20434F4E563A0000000000000000AA
:102F000000000000000000000000000000000009B8
:102F1000494E5420434E543A200000000000000067
:102F200000000000000000000000000000000000A1
:102F300009494E2054454D503A2000000000000041
:102F40000000000000000000000000000000000081
:102F5000000A494E544C205349473A2000000000D3
:102F60000000000000000000000000000000000061
:102F700000000649502D563A2000000000000000D5
:102F80000000000000000000000000000000000041
:102F90000000000949545320434E543A20000000D9
:102FA0000000000000000000000000000000000021
:102FB0000000000008495620434E543A200000000B
:102FC0000000000000000000000000000000000001
:102FD0000000000000044C4F434B000000000000C4
:102FE00000000000000000000000000000000000E1
:102FF000000000000000064D4F44453A200000004C
:1030000000000000000000000000000000000000C0
:10301000000000000000000124000000000000008B
:1030200000000000000000000000000000000000A0
:103030000000000000000000064F502D493A20001B
:103040000000000000000000000000000000000080
:10305000000000000000000000064F502D563A20EE
:103060000000000000000000000000000000000060
:1030700000000000000000000000084F5620434EF2
:10308000543A200000000000000000000000000092
:103090000000000000000000000000064F562D5602
:1030A0003A200000000000000000000000000000C6
:1030B00000000000000000000000000008504D4922
:1030C0004320454E3A0000000000000000000000D0
:1030D000000000000000000000000000000A504D49
:1030E000494320494E49543A0000000000000000C6
:1030F00000000000000000000000000000000B4283
:10310000524B4053544D33323A200000000000002F
:1031100000000000000000000000000000000005AA
:1031200050574D3A20000000000000000000000051
:10313000000000000000000000000000000000008F
:103140000F504F574552205752204552524F523A36
:10315000000000000000000000000000000000006F
:103160000006524F502D493A200000000000000098
:10317000000000000000000000000000000000004F
:10318000000006534C4156453A0000000000000084
:10319000000000000000000000000000000000002F
:1031A0000000000653515220313A00000000000098
:1031B000000000000000000000000000000000000F
:1031C000000000000653515220323A000000000077
:1031D00000000000000000000000000000000000EF
:1031E00000000000000953544152542055503A0049
:1031F00000000000000000000000000000000000CF
:103200000000000000000A54454D5020494E49542A
:103210003A00000000000000000000000000000074
:10322000000000000000000E5448524D205752206C
:103230004552524F523A00000000000000000000CA
:10324000000000000000000003746D720000000028
:10325000000000000000000000000000000000006E
:10326000000000000000000000047472756500009A
:10327000000000000000000000000000000000004E
:10328000000000000000000000000654532D493AE1
:10329000200000000000000000000000000000000E
:1032A00000000000000000000000000655532D49FA
:1032B0003A200000000000000000000000000000B4
:1032C00000000000000000000000000003766C74A5
:1032D00000000000000000000000000000000000EE
:1032E000000000000000000000000000000E575227
:1032F000204552524F5220434E543A2000000000C5
:1033000000000000000000000000000000000000BD
:0433100000093D0073
:0400000508002A15B0
:00000001FF
