:020000040800F2
:100000000000012051290008611000086310000859
:100010006510000867100008691000080000000063
:100020000000000000000000000000006B1000084D
:100030006D100008000000006F100008711000082B
:10004000A1290008A1290008A1290008A129000868
:10005000A1290008A1290008A1290008A129000858
:10006000A1290008A1290008A1290008A129000848
:10007000A1290008A1290008A1290008A129000838
:10008000A1290008A1290008D90F0008A12900080A
:10009000A1290008A1290008A1290008A129000818
:1000A000A1290008A1290008A1290008A129000808
:1000B000A12900080000000000000000A12900089C
:1000C000A12900080000000000000000A12900088C
:1000D00000000000990F0008A1290008000000009E
:1000E000A1290008A129000800000000000000006C
:1000F0000000000000000000000000000000000000
:10010000000000000000000000000000A12900081D
:100110000000000000000000A1290008A12900083B
:10012000A1290008A1290008A1290008A129000887
:10013000A1290008000000000000000000000000ED
:10014000A1290008BD0F0008A1290008A129000865
:10015000A1290008A1290008A1290008A129000857
:10016000A1290008A1290008A12900080000000019
:10017000A1290008A12900080000000000000000DB
:0C018000A1290008A1290008A1290008FD
:10018C0010B5054C237833B9044B13B10448AFF3C5
:10019C0000800123237010BD3404002000000000F7
:1001AC00EC29000808B5034B1BB103490348AFF316
:1001BC00008008BD0000000038040020EC29000875
:1001CC0010B5084B044618684FF47A73B0FBF3F083
:1001DC0000F06AF8002221464FF0FF3000F030F8B2
:1001EC00002010BD3004002008B5032000F016F8E4
:1001FC000020FFF7E5FF00F083FE002008BD0000A3
:10020C00024A136801331360704700BF500400208A
:10021C00014B1868704700BF50040020074AD36890
:10022C0023F4E0631B041B0C43F0BF63000243F494
:10023C00003300F4E0600343D360704700ED00E04E
:10024C00174B30B5DC68C4F30224C4F10703251D39
:10025C00042B28BF0423062D4FF0010505FA03F3E8
:10026C0003F1FF338CBF033C00241940A14005FA75
:10027C0004F4013C2240002842EA01024FEA021237
:10028C00AFBF00F1604000F00F00064BD2B2A5BF2B
:10029C0000F56140D2B21A5480F8002330BD00BF83
:1002AC0000ED00E014ED00E00138B0F1807F0AD2DF
:1002BC00064B074A5860F02182F8231000200722D1
:1002CC0098601A6070470120704700BF10E000E092
:1002DC0000ED00E0044B1A6804280CBF42F0040245
:1002EC0022F004021A60704710E000E0704708B575
:1002FC00FFF7FCFF08BD0000024B186800F4C0605B
:10030C00704700BF00700040164B1A68B0F5007FB4
:10031C0002F4C0621AD1B2F5007F13D01A681249E8
:10032C0022F4C06242F400721A60104A1268B2FBE6
:10033C00F1F132224A4312B15969490504D45B697F
:10034C005B050DD400207047013AF4E7B2F5806FDD
:10035C001FBF1A6822F4C06242F480621A60F1E78F
:10036C00032070470070004040420F003004002012
:10037C0037B51E4DAB6DDA00044618D5FFF7BCFF40
:10038C00B0F5007F23D1802C29D9A02C8CBF022062
:10039C000120174A136823F0070303431360136803
:1003AC0003F00703181A18BF012003B030BDAB6D62
:1003BC0043F08053AB65AB6D03F080530193019B0D
:1003CC00FFF79AFFAB6D23F08053AB65D8E7802C19
:1003DC0007D808D0A4F1700358425841D9E700203F
:1003EC00D7E70320D5E70220D3E700BF0010024077
:1003FC00002002402F4B9A6812F00C0F10B509D058
:10040C009A6802F00C020C2A2DD1DA6802F0030271
:10041C00012A28D11A682849120755BFD3F894200D
:10042C001A68C2F30322C2F3031251F8222099680E
:10043C0011F00C0F0CBF10460020996801F00C0154
:10044C000C2930D1DC68D868C0F30210411C04F0D0
:10045C000300022819D0032826D0B2FBF1F2D86889
:10046C00C0F3062017E09A6802F00C02042A07D0A9
:10047C009A6802F00C02082A04D110480022DCE72A
:10048C000F48FBE700200246D7E7DA680C48C2F3B6
:10049C000622B0FBF1F0DB68C3F341630133504338
:1004AC005B00B0FBF3F010BDDA680448C2F306221F
:1004BC00EFE700BF00100240142A000800127A0077
:1004CC000024F40003682DE9F3410546D80639D51C
:1004DC00AB4CA36813F00C0F62D12368990703D5BA
:1004EC00AB690BB901207FE02368286A1A0756BF55
:1004FC00D4F8943023681B0903F0F00383423AD2FA
:10050C00FFF736FF0028EDD1236843F00803236082
:10051C0023682A6A23F0F003134323606368EA69B3
:10052C0023F47F4343EA02236360FFF763FFA3686E
:10053C00944AC3F30313D35CD840934B1860002048
:10054C00FFF73EFE2B68D80761D42B68990700F1A2
:10055C00A9802B681A0700F1E7802B685B0700F174
:10056C0015812B689A0600F17C81AA6A002A40F05A
:10057C00A381002038E0236843F00803236023683C
:10058C0023F0F003034323606368EA6923F47F4399
:10059C0043EA02236360FFF7EBFE0028C5D0A1E716
:1005AC00AB6923B3236843F001032360FFF730FEEC
:1005BC00064623689B0711D5236843F00803236084
:1005CC0023682A6A23F0F003134323606368EA6903
:1005DC0023F47F4343EA02236360B3E7FFF718FE7B
:1005EC00801B0228E5D9032002B0BDE8F081236806
:1005FC0023F001032360FFF70BFE064623689F07D9
:10060C00A0D5FFF705FE801B0228F7D9EBE75C4C61
:10061C00A36803F00C03082B09D0A36803F00C03A8
:10062C000C2B0BD1E36803F00303032B06D12368D7
:10063C009A038AD56B68002B87D153E76B68B3F5A7
:10064C00803F10D1236843F480332360FFF7E0FD33
:10065C00064623689B033FF578AFFFF7D9FD801B57
:10066C006428F6D9BFE7B3F5A02F04D1236843F46F
:10067C0080232360E6E7226822F48032226022681D
:10068C0022F480222260002BE0D1FFF7C1FD064648
:10069C0023689F037FF559AFFFF7BAFD801B6428D1
:1006AC00F6D9A0E7364CA36803F00C03042B09D051
:1006BC00A36803F00C030C2B13D1E36803F00303C2
:1006CC00022B0ED123685E0503D5EB68002B3FF49B
:1006DC0009AF63682A6923F0F85343EA0263636045
:1006EC0037E7EB687BB1236843F480732360FFF733
:1006FC008FFD064623685805EBD4FFF789FD801B58
:10070C000228F7D96FE7236823F480732360FFF77F
:10071C007FFD0646236859057FF51BAFFFF778FD73
:10072C00801B0228F6D95EE76B69154C9BB1D4F897
:10073C00943043F00103C4F89430FFF769FD06468A
:10074C00D4F894309F073FF508AFFFF761FD801B8D
:10075C000228F5D947E7D4F8943023F00103C4F804
:10076C009430FFF755FD0646D4F8943098077FF582
:10077C00F4AEFFF74DFD801B0228F5D933E700BF1F
:10078C0000100240042A000830040020794CA36DAC
:10079C00D90027D4A36D43F08053A365A36D03F058
:1007AC0080530193019B0127734E3368DA051BD5E7
:1007BC00AB68012B29D1D4F8903043F00103C4F875
:1007CC009030FFF725FD41F288380646D4F890307A
:1007DC00980740D5002F3FF4C4AEA36D23F080538F
:1007EC00A365BEE60027DFE7336843F4807333600C
:1007FC00FFF70EFD80463368DB05D9D4FFF708FD03
:10080C00A0EB08000228F6D9EDE6052B06D1D4F8AA
:10081C00903043F00403C4F89030CCE7D4F8902027
:10082C0022F00102C4F89020D4F8902022F00402A7
:10083C00C4F89020002BC4D1FFF7EAFC41F28838B1
:10084C000646D4F890309907C4D5FFF7E1FC801B1D
:10085C004045F6D9C7E6FFF7DBFC801B4045B5D910
:10086C00C1E66B6A434C9BB1D4F8983043F001035A
:10087C00C4F89830FFF7CCFC0646D4F898309B07A8
:10088C003FF573AEFFF7C4FC801B0228F5D9AAE62E
:10089C00D4F8983023F00103C4F89830FFF7B8FC73
:1008AC000646D4F898309F077FF55FAEFFF7B0FC93
:1008BC00801B0228F5D996E62E4CA36803F00C0396
:1008CC000C2B3FF40FAE2368022A23F080732360B5
:1008DC0036D1FFF79DFC0646236898012AD4AB6BF2
:1008EC006A6BDB0643EA0223EA6A13432A6B013A7A
:1008FC0043EA0213EA6B5208013A43EA42532A6C68
:10090C005208013A43EA4263E360236843F0807380
:10091C002360E36843F08073E360FFF779FC0546DE
:10092C00236899013FF525AEFFF772FC401B0228A6
:10093C00F6D958E6FFF76CFC801B0228CCD952E69E
:10094C0023681A015EBFE36823F00303E360E368E6
:10095C0023F0887323F48033E360FFF759FC0546DA
:10096C0023689B017FF505AEFFF752FC401B022864
:10097C00F6D938E60010024000700040564A136861
:10098C0003F007038B422DE9F04105460E462BD3AD
:10099C002B68D90735D429688A0700F183804E4A21
:1009AC00136803F007039E42C0F0848011F0040F1B
:1009BC004A4C40F08A800B0706D5A3682A6923F4B9
:1009CC00605343EAC203A360FFF714FDA368444AD3
:1009DC00C3F30313D35CD840424B18600020FFF7DD
:1009EC00EFFB0020BDE8F081136823F007030B43F5
:1009FC001360136803F007039942C9D00120BDE8C6
:100A0C00F0816A68354C032A23681CD113F0007FEF
:100A1C00F4D0A36823F003031343A360FFF7F8FBA0
:100A2C006B68032B074641F2883818D1A36803F092
:100A3C000C030C2BAFD0FFF7EBFBC01B4045F5D9DB
:100A4C000320BDE8F081022A02D113F4003FDFE756
:100A5C0012B913F0020FDBE713F4806FD8E7022B07
:100A6C000AD1A36803F00C03082B94D0FFF7D0FB3A
:100A7C00C01B4045F5D9E3E773B9A36813F00C0F1D
:100A8C0089D0FFF7C5FBC01B4045F6D9D8E7FFF767
:100A9C00BFFBC01B4045D3D8A36803F00C03042B49
:100AAC00F5D178E70D4AA868936823F0F003034367
:100ABC00936074E7136823F00703334313601368E0
:100ACC0003F007039E4299D170E7A368EA6823F408
:100ADC00E0631343A3606EE7002002400010024065
:100AEC00042A000830040020014B1868704700BF2E
:100AFC00300400204D4BDA6C42F40052DA64DA6CAC
:100B0C0042F00302DA644A4B1A6842F003021A609C
:100B1C001A6842F00C021A604FF090431A6842F4C3
:100B2C0040521A601A6842F030021A601A6842F099
:100B3C000C021A603F4B9A68900068D43E4A936846
:100B4C0043F4803393603B4B9A68D10064D5394BA6
:100B5C001A46996811F03F0F996862D141F0004133
:100B6C0099609368002BFCDB344B0021196093686F
:100B7C0043F0010393602F4B1A68D207FCD51A6817
:100B8C0042F001021A605A6842F00C025A601A6B69
:100B9C0000221A63196B41F470711963196B41F4DB
:100BAC0080011963596B41F007015963196B41F0CE
:100BBC0004011963D96CDA64D96C41F4C031D9647D
:100BCC00D96C41F43061D964D96C41F00101D9641C
:100BDC0059695A6199699A61596941F0925141F484
:100BEC00122141F4926141F0020159619869144952
:100BFC0001439961D96841F48041D960114B4FF49C
:100C0C008021C3F8801183F81223196070479A6809
:100C1C0022F000529A608EE79A6842F080529A60F5
:100C2C0092E741F03001996093E700BF0010024059
:100C3C000004004800000450000304505404002039
:100C4C009224490200E100E0064B1A6842F00C02C3
:100C5C001A605A6842F00C025A609A6842F0040218
:100C6C009A60704700000450064B1A6842F040022C
:100C7C001A605A6842F040025A609A6842F00802C0
:100C8C009A607047000004500F4B4FF47A721A6050
:100C9C000E4A936D43F0005393654FF090421368E6
:100CAC0043F4406313600A4BDA6B42F48032DA632C
:100CBC001A6842F480321A601A6A00221A621A6A9E
:100CCC0042F07A721A6270475804002000100240F9
:100CDC00007400400A4B1A681044B0F5805F24BFC2
:100CEC0040F6FF721A60074A38BF1860116A00217B
:100CFC001162116A1B6841EA03431362704700BF1B
:100D0C005804002000740040084B1A68101A04BFE5
:100D1C0001221A60064A18BF1860116A002111627C
:100D2C00116A1B6841EA03431362704758040020A0
:100D3C000074004040F6FF73984228BF1846054BDC
:100D4C001860054B1A6A00221A621A6A42EA0040BD
:100D5C00186270475804002000740040124A936DCA
:100D6C0043F000439365114B1A6942F001021A617A
:100D7C009A6842F002029A604FF4A0729A610C4A8F
:100D8C0002212020C2F8881182F841039160094A9F
:100D9C000021116051609160D16011611A6942F0BB
:100DAC0004021A61704700BF00100240007C004032
:100DBC0000E100E05C040020164B1A680132F92AAD
:100DCC001A6004D95A6801325A6000221A605A68B3
:100DDC00B2F57A7F04D39A6801329A6000225A6085
:100DEC009A683B2A04D9DA680132DA6000229A60E8
:100DFC00DA683B2A04D91A6901321A610022DA60D6
:100E0C001A69172A04D95A6901325A6100221A61E7
:100E1C00704700BF5C040020004870475C04002051
:100E2C0010B596B00122102305930B92002310925B
:100E3C004F220C931292802320220D9311920223A5
:100E4C00072205A80F93139214931593FFF73AFBFF
:100E5C0000B1FEE70F2203230290039004900421BB
:100E6C0068468DE80C00FFF789FD00B1FEE74FF4F2
:100E7C000070FFF749FA044600B1FEE7FFF734FEB5
:100E8C004FF47A73B0FBF3F0FFF70EFA0420FFF780
:100E9C0021FA224621464FF0FF30FFF7D1F916B068
:100EAC0010BD000008B5FFF79FF9FFF7B9FF00F080
:100EBC006BFCFFF753FF732001F0D6FB01F080FCB5
:100ECC00FFF718FE00F0E0F8FFF7DEFE002000F060
:100EDC004DFC0A4C00F080F9206030B101F02CFB85
:100EEC0000F092FD00F080F9F4E701F025FB00F032
:100EFC008BFD00F05DFC00F09DFBEBE77404002023
:100F0C00214B07B51A6E42F001021A661A6E02F0F6
:100F1C0001020092009A9A6D42F080529A659B6D84
:100F2C0003F0805301930320019BFFF777F9002214
:100F3C0011466FF00B00FFF783F9002211466FF09A
:100F4C000A00FFF77DF9002211466FF00900FFF748
:100F5C0077F9002211466FF00400FFF771F90022B7
:100F6C0011466FF00300FFF76BF9002211466FF08A
:100F7C000100FFF765F9002211464FF0FF30FFF733
:100F8C005FF903B05DF804FB0010024010B5064C8D
:100F9C00064AE36913609B0601D501F083FC236AC2
:100FAC004FF0FF33236210BD003801407C04002059
:100FBC0008B5FFF701FF044A53686FEA53236FEA41
:100FCC004323536008BD00BF007C004038B51E4D64
:100FDC001E4C2B68236059070AD5286C1C4B00212A
:100FEC00188080B200F082FD2B6843F004032B6064
:100FFC0023681A0706D5144A136843F008031360D4
:10100C0000F058FD23685B0615D50F4C104DD4F835
:10101C0080002880012180B200F068FDD4F88400A3
:10102C002880012180B200F061FD00F051FD2368A1
:10103C0043F040032360044A13686FEAD3236FEA3A
:10104C00C323136038BD00BF000004507C04002093
:10105C00780400207047FEE7FEE7FEE7FEE77047E6
:10106C007047704708B5FFF7CBF8BDE80840FFF7AD
:10107C003EB94FF090435A6942F400625A615A6982
:10108C0042F080025A617047344A35483549F8B508
:10109C0000231360344A354D1360354A1F461370D4
:1010AC001C46DEB20A2E50D107B116708C62AC62AF
:1010BC008462FFF7B1FE2F4B18602F4B1C602F4B37
:1010CC001C602F4B40F631021A602E4B1C602E4BCD
:1010DC0001221A602D4B1C802D4B40F6C4121A8035
:1010EC002C4A40F2DC5313802B4A13802B4A13807A
:1010FC002B4A13802B4B4FF434721A802A4B4FF42B
:10110C00FA621A80294B1C80294B1C70294B40F623
:10111C00FF721A80284B40F2FF721A80274B4268EC
:10112C001C60274B1C60274B1C60274B1C60274BFB
:10113C001A60274B192200201A60FFF7FBFD254A85
:10114C00D36C43F00303D364F8BD45F8234040F857
:10115C00234041F8234001270133A2E7C4050020B6
:10116C00940500208004002020050020EC040020C1
:10117C0030050020CC05002008060020E8040020E3
:10118C0038050020D805002028050020F005002097
:10119C004A05002090050020E4040020F4050020FE
:1011AC00180600207C050020480500207E05002044
:1011BC00B0040020E405002016060020FC050020E9
:1011CC003405002024050020E00500201C0500202B
:1011DC000006002000100240024B1868C0F3C0202B
:1011EC00704700BF380500202DE9F84F944D954EFF
:1011FC002A68954912F001002C4616D1934B1870B1
:10120C00934B1A88934B1A8033689B689A1C3B2A21
:10121C0084BF3A3B0B60904B98BF0A601888FFF76D
:10122C0089FD01232360BDE8F88FD6F800E00B6838
:10123C00DEF80800984224D1884F3B6813F0100C5C
:10124C0007D0831C3B2B8ABF3A380B600860BDE883
:10125C00F88F8349896AC82903D940F2DC4081425E
:10126C000CD9804AC5F800C023F4006343F48063B2
:10127C003B60138801331380BDE8F88F42F00602FF
:10128C002A60236803F00602062ACCD113F0080F5B
:10129C00754D2ED1FFF7EDFE236843F00803236054
:1012AC0033685B6803F5FA72B2F57A7F2ABFA3F54F
:1012BC00FA732A602B602368D906B4D59A0623D416
:1012CC00032001F077FA01F093F9684B684A9B6AA6
:1012DC00283B138033685B685A1DB2F57A7F24BFB4
:1012EC00A3F2E3332B60236838BF2A6043F020035A
:1012FC0098E7D806E2D4DEF804102A68914292D11D
:10130C0043F010032360D6E733685A682B689A427F
:10131C0089D1584A58491388886ADFF83891544F54
:10132C00DFF848810A3B98428A46934660D2D8F847
:10133C0028203B88B9F80010A2EB030EA1F1140091
:10134C00864553D20B449B1A642B8CBF0220012080
:10135C0001F0ECF901233A88D8F82810914203D215
:10136C00012001F0E3F90123D8F828203988511A1B
:10137C00B9F800201432914203D9012001F0FAF996
:10138C000123BBF80020DAF828100A32914231D937
:10139C00012001F0EFF933685B685A1DB2F57A7FD2
:1013AC002ABFA3F2E3332A602B60344EB16A40F2B9
:1013BC001532914210D823683A88254D43F0C0036A
:1013CC002360D8F828309B1A193B01202B8001F0A0
:1013DC00D1F92B88A9F80030B26A40F22A339A422C
:1013EC007FF621AF236823F040031BE70023B2E70D
:1013FC000023B9E7002BCED123685B06D5D4336824
:10140C005B685A1DB2F57A7F38BF2A600F4A24BF39
:10141C00A3F2E3332B6013780133DBB2632B13702D
:10142C00C3D9174B1888FFF785FC0C4A154913686C
:10143C0023F40063002043F0500308601360B4E70A
:10144C00D8050020CC05002044050020B004002065
:10145C00E40400209005002016060020380500202A
:10146C004C0500207E05002040050020EC040020E7
:10147C00F00500204A05002080040020940500207F
:10148C00E4050020880500205C485D4903685A6823
:10149C000B689A42F0B53ED05A4B5B4A1D681468F3
:1014AC005A4E6D0064001D60146037697F065CBF86
:1014BC0045F001051D6035691B682D065CBF44F0C5
:1014CC00010414606FF04044A34225D1504B00241A
:1014DC001C6013686FF04044A3426CD14D4B002448
:1014EC001C601368B3F1404F12D14B4A4B4B4C4C20
:1014FC0016681B8827884B4A33449F427BD9138834
:10150C009F4288BF238023889B1B9BB22380138020
:10151C0003685B680B60F0BD5F1C27D13C4C2368F3
:10152C000133322B2360D4D13F4C3B4E3C4D2488AD
:10153C0036682B88A71BBB420ED23C4C2488A71BB9
:10154C00BB4238BF9B19374F2FBF2C809BB22B80CF
:10155C003B8028BF3C80B9E7354B1B68DE05B5D412
:10156C00324B2C801C802F4B1C80AFE7B3F1404FCB
:10157C00AFD12D4C284E2A4D248836682B88A71BBA
:10158C00BB420ED2294C2488A71BBB4238BF9B19E7
:10159C00244F2FBF2C809BB22B803B8028BF3C80DC
:1015AC0097E7234B1B68DB0593D4204B2C801C80C6
:1015BC001C4B1C808DE7013393D1164C23680133EF
:1015CC00322B2360A4D1144C144B154D27681B8867
:1015DC00B5F800E0134C3B449E4509D923889E4541
:1015EC0088BF2B802B88DB1B9BB22B80238075E75D
:1015FC009BB22B80FAE79BB2238088E7CC050020B6
:10160C001C050020FC0500203405002000040048C7
:10161C0024050020E005002000060020F005002035
:10162C00F405002090050020E4040020180600209A
:10163C00380500204448036813F0100F70B50146BC
:10164C006FD15E066DD5414A926AB2F5C87F07D854
:10165C003F4A43F48063036013880133138070BDE9
:10166C0040F6B414A242F3D8B2F5347FF0D940F668
:10167C00A514A242ECD8DD0554D440F2914082422C
:10168C0006D843F4807333480B6002F596730380DD
:10169C000B6823F400730B600B68DC0541D59805CF
:1016AC0047D42C480488A2421CD2A41A2A4D962C4A
:1016BC002C6017D9294D02802C881E2C94BF28240D
:1016CC00193C2C80264C274D2468646804F2EE26C5
:1016DC00B6F57A7F28BFFA3C43F4007334BF2E6012
:1016EC002C600B6003889A421BD9D31A1A4C962B88
:1016FC00236016D9194C1C4D23882D880280193370
:10170C00184A9BB2AB422380136888BF2580B3F57F
:10171C007A7F24BFA3F57A7313600B6843F40073CC
:10172C000B6070BD40F2CE408242B5D923F44073B9
:10173C00B1E70B4A126850680A4A12689042F0D11D
:10174C0023F40073ECE700BF380500204C050020A3
:10175C007E05002014060020DC0500201806002061
:10176C00CC05002080050020E404002008B1FFF720
:10177C0080BC4FF090435A6922F400625A615A6956
:10178C0022F080025A617047084AD36C43F003037D
:10179C00D3644FF0904300201A6822F440421A6040
:1017AC001A6842F480421A60FFF7E0BF0010024052
:1017BC002DE9F84F00F0B4FF4A4A136813F01105F5
:1017CC00144640F08D8013F4A05F24D02846FFF718
:1017DC00B1FA00F029FF2846FFF7C8FF2368580626
:1017EC0044BF23F0400323603F4B1B88092B77D861
:1017FC003E4A3F49136801338B42136070D923680A
:10180C003C4823F4A053002143F40063016023609F
:10181C001160BDE8F88F590659D513F0800FDFF829
:10182C00E480354F48D1354E354D3388AA6ADFF800
:10183C00D8A0DFF8D8B0DFF8D8900A3B9A4215D27E
:10184C00DAF82830BBF800209A1AB9F80030143BAB
:10185C009A4202D2012000F069FFBBF80030DAF89E
:10186C0028209A4202D2012000F060FF3388AA6A35
:10187C000A339A4202D9012000F07CFFBBF80030F9
:10188C00DAF82820D21AB9F8003014339A4202D967
:10189C00012000F06FFF236843F080032360D8F829
:1018AC0000305B685A1DB2F57A7F2ABFA3F2E3338E
:1018BC003A603B60BDE8F88FD8F80010486839688A
:1018CC0088420DD123F080031360BDE8F88F23F01C
:1018DC0080030128136003D0BDE8F84F00F0A4BECC
:1018EC00BDE8F88F380500207E050020F8050020A3
:1018FC003F0D0300D8050020840500204A05002078
:10190C0080040020CC050020EC040020F005002011
:10191C0090050020F0B5194A194C1A4E01460023C7
:10192C0030274FF00A0E0A2B0CD11749174A0B70AF
:10193C000023106033701C46D8B20A2816D104B1AB
:10194C003070F0BD9142B1FBF2F503F1010388BF99
:10195C0005F1300CEDB28CBF84F800C0277002FB8F
:10196C001511DBB2B2FBFEF20134DCE7D418C81857
:10197C002479447001330124DEE700BF00CA9A3B8E
:10198C001C030020300500201A060020180300203C
:10199C00F0B50B780778BB424FF0000309D10B4C24
:1019AC001A4623701E460123D5B2AF4203D806B1A6
:1019BC0025701846F0BD86188D1876786D78013232
:1019CC00AE4218BF00230126EEE700BF3005002011
:1019DC000B49002330B51A460B600446013265688A
:1019EC0044F8045BD2B20A2A2B44F7D1054C22707E
:1019FC00C46A446223440B60B3FBF2F3836230BDD0
:101A0C00D40500203005002038B5204C23689A07F7
:101A1C001AD51F48FFF7DCFF1E48FFF7D9FF1E48F9
:101A2C00FFF7D6FF236823F00603236023681B0708
:101A3C001CD51A48FFF7CCFF1948FFF7C9FF2368DC
:101A4C0023F00803236038BD13F0040F154A07D1A7
:101A5C0001231360FFF7F8F8236843F00403E4E76D
:101A6C001268042AE2D123F00403DEE70E4D0F4C7A
:101A7C002B685A6823689A42E5D00D4B01221A60F4
:101A8C00FFF7F2F82B685B68DCE700BF3805002035
:101A9C00EC04002094050020800400204C0500205C
:101AAC00B404002028050020CC050020E804002008
:101ABC00C8050020044A136843F002031360034A6C
:101ACC00136801331360704738050020100600209E
:101ADC00044A136843F008031360034A1368013384
:101AEC001360704738050020100600204C4A13681C
:101AFC00013310B5136000297BD14A4C2368022BAB
:101B0C006BD0032B6FD0012B66D147490A68013289
:101B1C000A60464AD06201332360454B434A1B8816
:101B2C00926AD21A434B1B88143B9A4236D9424BC9
:101B3C009B6AB3F5FA6F15D200F076FD3F4A404828
:101B4C00136843F48051116001880131018018053C
:101B5C0008D523F4006343F480531360394B4FF4DE
:101B6C0080721A60384B9A6A40F6AB539A4215D879
:101B7C0000F05AFD314A3248136843F48051116029
:101B8C00018801310180190508D523F4006343F461
:101B9C00805313602B4B4FF480721A602B4B1B68D5
:101BAC00642B08D92A4B1B68642B81BF234A13680A
:101BBC0023F0100313601C4B1B68642B0CD9254BB2
:101BCC001B68642B08D9244B1B68642B81BF1B4AF0
:101BDC00136823F00103136010BD1E490A6801321B
:101BEC000A60154A96E71C490A6801320A60164ACF
:101BFC0090E71A4A1368012B02D0022B09D010BDB2
:101C0C00124C2168013121601549C86201331360FF
:101C1C0083E70F4C2168013121601249F5E700BFC1
:101C2C00D0050020280500203C060020EC040020F4
:101C3C00F0050020900500208004002038050020CD
:101C4C007E050020D8050020940500208805002082
:101C5C003C050020E80500202C050020C8050020CC
:101C6C004C050020B404002008B50378042B18D1CF
:101C7C004378642B15D18378632B12D1C378303B16
:101C8C00DBB2092B0DD800793038C0B2092808D83E
:101C9C0003EB830300EB4300C0B200F08BFD01208B
:101CAC0008BD002008BD000010B50378062B33D109
:101CBC004378692B30D18378732B2DD1C378303B8B
:101CCC00DAB2092A28D80479303CE2B2092A23D89E
:101CDC004279303AD2B2092A1ED881793039C9B248
:101CEC00092919D8642044434FF47A7000FB03434C
:101CFC000B440A2111FB0233B3F5166F074A86BF5A
:101D0C004FF4166111801380054A1268D20501D474
:101D1C00044A1380012010BD002010BDE4040020F3
:101D2C00380500209005002010B50378062B2CD127
:101D3C004378762B29D18378732B26D1C378303B0B
:101D4C00DAB2092A21D80479303CE2B2092A1CD82B
:101D5C004279303AD2B2092A17D881793039C9B2CE
:101D6C00092912D8642044434FF47A7000FB0343D2
:101D7C000B440A2111FB023340F69941044A8B4271
:101D8C008CBF11801380012010BD002010BD00BF3E
:101D9C004A05002010B50378062B2CD14378652B0F
:101DAC0029D18378762B26D1C378303BDAB2092A35
:101DBC0021D80479303CE2B2092A1CD84279303A55
:101DCC00D2B2092A17D881793039C9B2092912D867
:101DDC00642044434FF47A7000FB03430B440A2104
:101DEC0011FB023340F69941044A8B428CBF11809F
:101DFC001380012010BD002010BD00BF480500203D
:101E0C00034A0448136823F00403136000F030BD48
:101E1C0038050020F702002038B50F480F4D104C44
:101E2C0000F026FD0F4B986AFFF774FD284600F072
:101E3C001FFD204600F01CFD0B4800F019FD0B4B5C
:101E4C00986AFFF767FD284600F012FD2046BDE8B2
:101E5C00384000F00DBD00BFA50000201A06002080
:101E6C00080100204C050020C6000020B40400200E
:101E7C0010B5314CE06AFFF74DFD304800F0F8FC2E
:101E8C002F4800F0F5FC606BFFF744FD2B4800F089
:101E9C00EFFC2B4800F0ECFCE06BFFF73BFD274818
:101EAC0000F0E6FC264800F0E3FC2069FFF732FD69
:101EBC00224800F0DDFC224800F0DAFCA069FFF7B4
:101ECC0029FD1E4800F0D4FC1D4800F0D1FCE0694F
:101EDC00FFF720FD194800F0CBFC194800F0C8FCB6
:101EEC00A069FFF717FD154800F0C2FC144800F07C
:101EFC00BFFC2068FFF70EFD104800F0B9FC10483D
:101F0C0000F0B6FC00F00CFC0138032811D8DFE817
:101F1C0000F0020A0C0E0B4800F0AAFC0848BDE8C1
:101F2C00104000F0A5BC0848F6E70848F4E708485C
:101F3C00F2E70848F0E700BF002C01401A06002029
:101F4C0008010020D60200202803002042000020B7
:101F5C00630000204A010020F8B51D4F1D4E1E4D98
:101F6C001E4C384600F084FC1D4BB06A1B88C01A0E
:101F7C00FFF7D0FC284600F07BFC204600F078FCF4
:101F8C00384600F075FCB06AFFF7C4FC284600F038
:101F9C006FFC204600F06CFC124800F069FC124B00
:101FAC00986AFFF7B7FC284600F062FC204600F068
:101FBC005FFC0E4800F05CFC0D4B986AFFF7AAFC26
:101FCC00284600F055FC2046BDE8F84000F050BC17
:101FDC0084000020EC0400201A06002008010020D8
:101FEC00F0050020E700002080040020C60000203F
:101FFC009405002070B51B4E1B4D33681B4C1868A4
:10200C00FFF788FC284600F033FC204600F030FC3B
:10201C0033685868FFF77EFC284600F029FC204600
:10202C0000F026FC33689868FFF774FC284600F033
:10203C001FFC204600F01CFC3368D868FFF76AFCD4
:10204C00284600F015FC204600F012FC3368186995
:10205C00FFF760FC284600F00BFC2046BDE8704002
:10206C0000F006BCCC0500201A0600200801002058
:10207C0038B51548154D164C00F0FAFB154B186881
:10208C00FFF748FC284600F0F3FB204600F0F0FB7D
:10209C00114800F0EDFB114B1868FFF73BFC28468C
:1020AC0000F0E6FB204600F0E3FB0D4800F0E0FBFF
:1020BC000C4B1868FFF72EFC284600F0D9FB204685
:1020CC00BDE8384000F0D4BB840000201A06002084
:1020DC00080100203C060020E7000020E805002055
:1020EC00C60000202C05002038B51B4B1B4D1C4C8A
:1020FC001868FFF70FFC284600F0BAFB204600F0EA
:10210C00B7FB184B1868FFF705FC284600F0B0FB2E
:10211C00204600F0ADFB144B1888FFF7FBFB28465C
:10212C0000F0A6FB204600F0A3FB104B1888FFF72D
:10213C00F1FB284600F09CFB204600F099FB0C4B71
:10214C001888FFF7E7FB284600F092FB2046BDE815
:10215C00384000F08DBB00BF380500201A06002067
:10216C000801002028050020E404002018060020A7
:10217C009005002038B5114B114D1868114CFFF724
:10218C00C9FB284600F074FB204600F071FB0E4B97
:10219C001868FFF7BFFB284600F06AFB204600F0EA
:1021AC0067FB0A4B186BFFF7B5FB284600F060FB8A
:1021BC002046BDE8384000F05BBB00BFD0050020D6
:1021CC001A06002008010020100600200000045010
:1021DC0038B50F480F4D104C00F04AFB0F4B1868E8
:1021EC00FFF798FB284600F043FB204600F040FB2D
:1021FC000B4800F03DFB0B4B1868FFF78BFB284698
:10220C0000F036FB2046BDE8384000F031BB00BF83
:10221C00A50000201A0600200801002088050020D7
:10222C00C60000203C05002008B5064B1868FFF7D7
:10223C0071FB054800F01CFB0448BDE8084000F0A9
:10224C0017BB00BFD80500201A060020080100208B
:10225C0008B5064B186BFFF75DFB054800F008FB53
:10226C000448BDE8084000F003BB00BF0074004008
:10227C001A0600200801002070B5154E154D306A65
:10228C00154C80B2FFF746FB284600F0F1FA2046C9
:10229C0000F0EEFA306A000CFFF73CFB284600F029
:1022AC00E7FA204600F0E4FAF068FFF733FB284623
:1022BC0000F0DEFA204600F0DBFA3068FFF72AFB6C
:1022CC00284600F0D5FA2046BDE8704000F0D0BAA0
:1022DC00000004501A0600200801002010B5044626
:1022EC00784800F0C5FA78492046FFF751FB08B151
:1022FC00FFF7BEFD75492046FFF74AFB08B1FFF713
:10230C002BFE73492046FFF743FB08B1FFF772FE23
:10231C0070492046FFF73CFB08B1FFF7A9FE6E4958
:10232C002046FFF735FB08B1FFF752FF6B492046FB
:10233C00FFF72EFB08B1FFF7D7FE69492046FFF7E0
:10234C0027FB08B1FFF770FF66492046FFF720FB1B
:10235C0008B1FFF791FF64492046FFF719FB08B15C
:10236C00FFF74EFD61492046FFF712FB08B1FFF75E
:10237C0001FF5F492046FFF70BFB08B1FFF74CFD4F
:10238C005C492046FFF704FB28B1012000F0CEF990
:10239C00594800F06DFA59492046FFF7F9FA20B177
:1023AC0000F026F9544800F063FA55492046FFF72F
:1023BC00EFFA20B100F038F94F4800F059FA2046F6
:1023CC00FFF752FC10B14C4800F052FA2046FFF7D0
:1023DC006BFC10B1484800F04BFA2046FFF7A4FC08
:1023EC0010B1454800F044FA2046FFF7D3FC10B179
:1023FC00414800F03DFA43492046FFF7C9FA28B19D
:10240C00C820FEF767FC3C4800F032FA3E492046F3
:10241C00FFF7BEFA28B1C820FEF776FC364800F06C
:10242C0027FA3A492046FFF7B3FA28B10020FEF705
:10243C0081FC314800F01CFA35492046FFF7A8FA18
:10244C0030B140F6FF70FEF775FC2B4800F010FA27
:10245C0030492046FFF79CFA08B1FFF7F9FE2E49E8
:10246C002046FFF795FA50B12C4B234800221A60F6
:10247C002B4A136843F40063136000F0F9F92949FF
:10248C002046FFF785FA38B1254A1B48136823F01C
:10249C004003136000F0ECF923492046FFF778FA6B
:1024AC0038B1224B224A9B6A1348283B138000F018
:1024BC00DFF9044800F0DCF91E48BDE8104000F0DC
:1024CC00D7B900BF08010020EE0300200F04002044
:1024DC00CD030020210000208B030020B50200203A
:1024EC006A03002000000020940200202901002033
:1024FC00AC03002031020020F70200206300002012
:10250C00D6020020100200208C010020AD0100201A
:10251C00CE010020EF01002073020020D80500201E
:10252C0038050020520200206B010020EC04002032
:10253C00F00500204903002008B500F0FDF90A4B16
:10254C001870430705D500F0EBF9084B1860FFF73E
:10255C00C5FE074B1A88074B1988914218BF1A8081
:10256C00BDE80840FEF790BF04060020400600209E
:10257C0018060020900500200F49D1F8883043F44C
:10258C007003C1F888300D4B1A68002042F001022C
:10259C001A6098601A6822F0A85222F410221A606D
:1025AC004FF48052DA601A6822F480221A60986123
:1025BC004FF000638B60704700ED00E000100240AC
:1025CC00074B1870074B1B685843074B1860074B99
:1025DC005863D8635A6942F001025A61704700BFD0
:1025EC00440600204806002054060020002C014020
:1025FC000A4B04221A700A4B1A680A4BDA63DA691E
:10260C000022DA61DA6942F4006242F00802DA610F
:10261C00DA6942F06002DA61704700BF4C060020B4
:10262C0054060020002C014008B5094B0020DA6943
:10263C00D861DA6942F48042DA615A6942F00102E7
:10264C005A61FFF7BDFF034B01221A7008BD00BF92
:10265C00002C01404C0600204FF09042536943F48B
:10266C000063536170470000264A38B5264B274C4F
:10267C001360B3FBF0F0264B20601A6E42F400623C
:10268C001A66DA6C4FF0904142F00102DA640B6882
:10269C0023F440130B600B6843F400130B600B68BE
:1026AC0023F440030B600B6843F480030B60FFF7CB
:1026BC00D3FF4B6A43F480734B62164900250B6AB7
:1026CC000D62FFF7B1FF2368CB626422B3FBF2F318
:1026DC00114A01331360114B1D700B6A43F4807364
:1026EC000B628A6940F6080002438A61CB69034396
:1026FC00CB614B6C43F400434B640B6843F0010318
:10270C000B6038BD580600208038010050060020B0
:10271C0000100240002C0140480600204406002016
:10272C00014B1878704700BF4C0600200B4B0C492E
:10273C001A6810440B4A186012680A3A904228BF73
:10274C001A601A68084B1B68B2FBF3F30B70074B4B
:10275C001B78042B04BF064BDA6370475406002029
:10276C004406002050060020480600204C0600209D
:10277C00002C01400A4B0B491A68824294BF00227C
:10278C00121A1A601A68084B1B68B2FBF3F30B7031
:10279C00064B1B78042B04BF054BDA63704700BF54
:1027AC005406002044060020480600204C06002059
:1027BC00002C0140632801D8FFF702BF70470000CE
:1027CC00244B1A6E42F4804210B51A66DA6C42F051
:1027DC000202DA64204B1A6822F440521A601A681A
:1027EC0042F400521A601A6822F440421A601A68C5
:1027FC0042F400421A601A6A42F0E0621A621A6AE3
:10280C0042F0E0421A62154B1A6842F02C021A6030
:10281C000021DA68D960DA6842F42D7242F00202C3
:10282C00DA600F4A20201024C2F8840182F8254374
:10283C0050601A6842F001021A6011221A85094B85
:10284C00094A1970094B1970137843F0050313707A
:10285C0010BD00BF001002400004004800380140C9
:10286C0000E100E0640600205C0600206506002004
:10287C000A4A002330B513700578094C19469D425D
:10288C0002D801B1137030BD10F8011F2185E16928
:10289C000906FCD50133DBB20121F0E76406002008
:1028AC00003801401948838CDBB2A3F120025E2A68
:1028BC00F0B50DD816490A788C18013263709BB2AA
:1028CC000A700385114A136A43F020031362F0BDAA
:1028DC000D2BF7D10E4A0F4915780F4C00230B70B6
:1028EC001E46DFB20133581EC0B285420AD806B16B
:1028FC000F7000231370094A2570137843F00403FA
:10290C001370DFE7D05CE0540126EAE700380140A1
:10291C0094060020B50600206C0600205C06002002
:10292C00034A0448137823F004031370704700BF64
:10293C005C0600206C060020014B1878704700BF25
:10294C005C060020DFF834D0002103E00C4B5B5810
:10295C00435004310B480C4B42189A42F6D30B4AA5
:10296C0002E0002342F8043B094B9A42F9D3FFF7EB
:10297C0003FE00F011F8FEF795FAFEE700000120C7
:10298C004C2A0008000000203404002034040020ED
:10299C00B8060020FEE7000070B50D4E0D4CA41BD0
:1029AC00A4100025A54209D10B4E0C4C00F018F8D0
:1029BC00A41BA4100025A54205D170BD56F82530E6
:1029CC0098470135EEE756F8253098470135F2E780
:1029DC00442A0008442A0008442A0008482A00080F
:1029EC00F8B500BFF8BC08BC9E467047F8B500BFF0
:0829FC00F8BC08BC9E467047C0
:102A0400000000000000000001020304060708099A
:102A1400A0860100400D0300801A060000350C005A
:102A240040420F0080841E0000093D0000127A001D
:102A34000024F40000366E010048E801006CDC025A
:042A4400B1010008D4
:042A48008D010008F4
:102A4C00036164630000000000000000000000004F
:102A5C00000000000000000000000000000000006A
:102A6C00000462616E6B00000000000000000000BA
:102A7C00000000000000000000000000000000004A
:102A8C00000005626F6F737400000000000000000E
:102A9C00000000000000000000000000000000002A
:102AAC00000000046275636B000000000000000071
:102ABC00000000000000000000000000000000000A
:102ACC000000000003433A2000000000000000005A
:102ADC0000000000000000000000000000000000EA
:102AEC00000000000003453A200000000000000038
:102AFC0000000000000000000000000000000000CA
:102B0C0000000000000003493A2000000000000013
:102B1C0000000000000000000000000000000000A9
:102B2C0000000000000000034F3A200000000000ED
:102B3C000000000000000000000000000000000089
:102B4C000000000000000000020A0D000000000060
:102B5C000000000000000000000000000000000069
:102B6C0000000000000000000004636F6E7600009F
:102B7C000000000000000000000000000000000049
:102B8C000000000000000000000003637031000032
:102B9C000000000000000000000000000000000029
:102BAC00000000000000000000000004637372735A
:102BBC000000000000000000000000000000000009
:102BCC0000000000000000000000000005646163CC
:102BDC00646E000000000000000000000000000017
:102BEC00000000000000000000000000000564610F
:102BFC00636D6E000000000000000000000000008B
:102C0C00000000000000000000000000000005644F
:102C1C0061636D78000000000000000000000000FF
:102C2C000000000000000000000000000000000692
:102C3C00646163727074000000000000000000000A
:102C4C000000000000000000000000000000000078
:102C5C000564616375700000000000000000000056
:102C6C000000000000000000000000000000000058
:102C7C00000364632B000000000000000000000053
:102C8C000000000000000000000000000000000038
:102C9C000000066472766469730000000000000096
:102CAC000000000000000000000000000000000018
:102CBC0000000005647276656E00000000000000E4
:102CCC0000000000000000000000000000000000F8
:102CDC000000000005666C636C72000000000000D0
:102CEC0000000000000000000000000000000000D8
:102CFC00000000000004666C61670000000000002A
:102D0C0000000000000000000000000000000000B7
:102D1C00000000000000046C6F636B0000000000FA
:102D2C000000000000000000000000000000000097
:102D3C000000000000000001240000000000000062
:102D4C000000000000000000000000000000000077
:102D5C0000000000000000000000000030303030A7
:102D6C00303030303030000004706173730000007C
:102D7C000000000000000000000000000000000047
:102D8C000000000000000000000B44455640535466
:102D9C004D33323A2000000000000000000000001B
:102DAC000000000000000000000004737475700047
:102DBC000000000000000000000000000000000007
:102DCC000000000000000000000000057462616E4D
:102DDC006B0000000000000000000000000000007C
:102DEC000000000000000000000000000474656D8D
:102DFC007000000000000000000000000000000057
:102E0C0000000000000000000000000000047469D5
:102E1C006D650000000000000000000000000000D4
:102E2C00000000000000000000000000000004741E
:102E3C00696D31000000000000000000000000007F
:102E4C000000000000000000000000000000000472
:102E5C00766F6C74000000000000000000000000A1
:102E6C000000000000000000000000000000000056
:042E7C0000093D000C
:040000050800295175
:00000001FF
