:020000040800F2
:1000000000000120E9290008591000085B100008D1
:100010005D1000085F10000861100008000000007B
:100020000000000000000000000000006310000855
:100030006510000800000000671000086910000843
:10004000392A0008392A0008392A0008392A000804
:10005000392A0008392A0008392A0008392A0008F4
:10006000392A0008392A0008392A0008392A0008E4
:10007000392A0008392A0008392A0008392A0008D4
:10008000392A0008392A0008D10F0008392A000847
:10009000392A0008392A0008392A0008392A0008B4
:1000A000392A0008392A0008392A0008392A0008A4
:1000B000392A00080000000000000000392A00086A
:1000C000392A00080000000000000000392A00085A
:1000D00000000000910F0008392A0008000000000D
:1000E000392A0008392A000800000000000000003A
:1000F0000000000000000000000000000000000000
:10010000000000000000000000000000392A000884
:100110000000000000000000392A0008392A000809
:10012000392A0008392A0008392A0008392A000823
:10013000392A000800000000000000000000000054
:10014000392A0008B50F0008392A0008392A0008A2
:10015000392A0008392A0008392A0008392A0008F3
:10016000392A0008392A0008392A0008000000004E
:10017000392A0008392A00080000000000000000A9
:0C018000392A0008392A0008392A000832
:10018C0010B5054C237833B9044B13B10448AFF3C5
:10019C0000800123237010BD3404002000000000F7
:1001AC00842A000808B5034B1BB103490348AFF37D
:1001BC00008008BD0000000038040020842A0008DC
:1001CC0010B5084B044618684FF47A73B0FBF3F083
:1001DC0000F06AF8002221464FF0FF3000F030F8B2
:1001EC00002010BD3004002008B5032000F016F8E4
:1001FC000020FFF7E5FF00F07FFE002008BD0000A7
:10020C00024A136801331360704700BF500400208A
:10021C00014B1868704700BF50040020074AD36890
:10022C0023F4E0631B041B0C43F0BF63000243F494
:10023C00003300F4E0600343D360704700ED00E04E
:10024C00174B30B5DC68C4F30224C4F10703251D39
:10025C00042B28BF0423062D4FF0010505FA03F3E8
:10026C0003F1FF338CBF033C00241940A14005FA75
:10027C0004F4013C2240002842EA01024FEA021237
:10028C00AFBF00F1604000F00F00064BD2B2A5BF2B
:10029C0000F56140D2B21A5480F8002330BD00BF83
:1002AC0000ED00E014ED00E00138B0F1807F0AD2DF
:1002BC00064B074A5860F02182F8231000200722D1
:1002CC0098601A6070470120704700BF10E000E092
:1002DC0000ED00E0044B1A6804280CBF42F0040245
:1002EC0022F004021A60704710E000E0704708B575
:1002FC00FFF7FCFF08BD0000024B186800F4C0605B
:10030C00704700BF00700040164B1A68B0F5007FB4
:10031C0002F4C0621AD1B2F5007F13D01A681249E8
:10032C0022F4C06242F400721A60104A1268B2FBE6
:10033C00F1F132224A4312B15969490504D45B697F
:10034C005B050DD400207047013AF4E7B2F5806FDD
:10035C001FBF1A6822F4C06242F480621A60F1E78F
:10036C00032070470070004040420F003004002012
:10037C0037B51E4DAB6DDA00044618D5FFF7BCFF40
:10038C00B0F5007F23D1802C29D9A02C8CBF022062
:10039C000120174A136823F0070303431360136803
:1003AC0003F00703181A18BF012003B030BDAB6D62
:1003BC0043F08053AB65AB6D03F080530193019B0D
:1003CC00FFF79AFFAB6D23F08053AB65D8E7802C19
:1003DC0007D808D0A4F1700358425841D9E700203F
:1003EC00D7E70320D5E70220D3E700BF0010024077
:1003FC00002002402F4B9A6812F00C0F10B509D058
:10040C009A6802F00C020C2A2DD1DA6802F0030271
:10041C00012A28D11A682849120755BFD3F894200D
:10042C001A68C2F30322C2F3031251F8222099680E
:10043C0011F00C0F0CBF10460020996801F00C0154
:10044C000C2930D1DC68D868C0F30210411C04F0D0
:10045C000300022819D0032826D0B2FBF1F2D86889
:10046C00C0F3062017E09A6802F00C02042A07D0A9
:10047C009A6802F00C02082A04D110480022DCE72A
:10048C000F48FBE700200246D7E7DA680C48C2F3B6
:10049C000622B0FBF1F0DB68C3F341630133504338
:1004AC005B00B0FBF3F010BDDA680448C2F306221F
:1004BC00EFE700BF00100240AC2A000800127A00DF
:1004CC000024F40003682DE9F3410546D80639D51C
:1004DC00AB4CA36813F00C0F62D12368990703D5BA
:1004EC00AB690BB901207FE02368286A1A0756BF55
:1004FC00D4F8943023681B0903F0F00383423AD2FA
:10050C00FFF736FF0028EDD1236843F00803236082
:10051C0023682A6A23F0F003134323606368EA69B3
:10052C0023F47F4343EA02236360FFF763FFA3686E
:10053C00944AC3F30313D35CD840934B1860002048
:10054C00FFF73EFE2B68D80761D42B68990700F1A2
:10055C00A9802B681A0700F1E7802B685B0700F174
:10056C0015812B689A0600F17C81AA6A002A40F05A
:10057C00A381002038E0236843F00803236023683C
:10058C0023F0F003034323606368EA6923F47F4399
:10059C0043EA02236360FFF7EBFE0028C5D0A1E716
:1005AC00AB6923B3236843F001032360FFF730FEEC
:1005BC00064623689B0711D5236843F00803236084
:1005CC0023682A6A23F0F003134323606368EA6903
:1005DC0023F47F4343EA02236360B3E7FFF718FE7B
:1005EC00801B0228E5D9032002B0BDE8F081236806
:1005FC0023F001032360FFF70BFE064623689F07D9
:10060C00A0D5FFF705FE801B0228F7D9EBE75C4C61
:10061C00A36803F00C03082B09D0A36803F00C03A8
:10062C000C2B0BD1E36803F00303032B06D12368D7
:10063C009A038AD56B68002B87D153E76B68B3F5A7
:10064C00803F10D1236843F480332360FFF7E0FD33
:10065C00064623689B033FF578AFFFF7D9FD801B57
:10066C006428F6D9BFE7B3F5A02F04D1236843F46F
:10067C0080232360E6E7226822F48032226022681D
:10068C0022F480222260002BE0D1FFF7C1FD064648
:10069C0023689F037FF559AFFFF7BAFD801B6428D1
:1006AC00F6D9A0E7364CA36803F00C03042B09D051
:1006BC00A36803F00C030C2B13D1E36803F00303C2
:1006CC00022B0ED123685E0503D5EB68002B3FF49B
:1006DC0009AF63682A6923F0F85343EA0263636045
:1006EC0037E7EB687BB1236843F480732360FFF733
:1006FC008FFD064623685805EBD4FFF789FD801B58
:10070C000228F7D96FE7236823F480732360FFF77F
:10071C007FFD0646236859057FF51BAFFFF778FD73
:10072C00801B0228F6D95EE76B69154C9BB1D4F897
:10073C00943043F00103C4F89430FFF769FD06468A
:10074C00D4F894309F073FF508AFFFF761FD801B8D
:10075C000228F5D947E7D4F8943023F00103C4F804
:10076C009430FFF755FD0646D4F8943098077FF582
:10077C00F4AEFFF74DFD801B0228F5D933E700BF1F
:10078C00001002409C2A000830040020794CA36D14
:10079C00D90027D4A36D43F08053A365A36D03F058
:1007AC0080530193019B0127734E3368DA051BD5E7
:1007BC00AB68012B29D1D4F8903043F00103C4F875
:1007CC009030FFF725FD41F288380646D4F890307A
:1007DC00980740D5002F3FF4C4AEA36D23F080538F
:1007EC00A365BEE60027DFE7336843F4807333600C
:1007FC00FFF70EFD80463368DB05D9D4FFF708FD03
:10080C00A0EB08000228F6D9EDE6052B06D1D4F8AA
:10081C00903043F00403C4F89030CCE7D4F8902027
:10082C0022F00102C4F89020D4F8902022F00402A7
:10083C00C4F89020002BC4D1FFF7EAFC41F28838B1
:10084C000646D4F890309907C4D5FFF7E1FC801B1D
:10085C004045F6D9C7E6FFF7DBFC801B4045B5D910
:10086C00C1E66B6A434C9BB1D4F8983043F001035A
:10087C00C4F89830FFF7CCFC0646D4F898309B07A8
:10088C003FF573AEFFF7C4FC801B0228F5D9AAE62E
:10089C00D4F8983023F00103C4F89830FFF7B8FC73
:1008AC000646D4F898309F077FF55FAEFFF7B0FC93
:1008BC00801B0228F5D996E62E4CA36803F00C0396
:1008CC000C2B3FF40FAE2368022A23F080732360B5
:1008DC0036D1FFF79DFC0646236898012AD4AB6BF2
:1008EC006A6BDB0643EA0223EA6A13432A6B013A7A
:1008FC0043EA0213EA6B5208013A43EA42532A6C68
:10090C005208013A43EA4263E360236843F0807380
:10091C002360E36843F08073E360FFF779FC0546DE
:10092C00236899013FF525AEFFF772FC401B0228A6
:10093C00F6D958E6FFF76CFC801B0228CCD952E69E
:10094C0023681A015EBFE36823F00303E360E368E6
:10095C0023F0887323F48033E360FFF759FC0546DA
:10096C0023689B017FF505AEFFF752FC401B022864
:10097C00F6D938E60010024000700040564A136861
:10098C0003F007038B422DE9F04105460E462BD3AD
:10099C002B68D90735D429688A0700F183804E4A21
:1009AC00136803F007039E42C0F0848011F0040F1B
:1009BC004A4C40F08A800B0706D5A3682A6923F4B9
:1009CC00605343EAC203A360FFF714FDA368444AD3
:1009DC00C3F30313D35CD840424B18600020FFF7DD
:1009EC00EFFB0020BDE8F081136823F007030B43F5
:1009FC001360136803F007039942C9D00120BDE8C6
:100A0C00F0816A68354C032A23681CD113F0007FEF
:100A1C00F4D0A36823F003031343A360FFF7F8FBA0
:100A2C006B68032B074641F2883818D1A36803F092
:100A3C000C030C2BAFD0FFF7EBFBC01B4045F5D9DB
:100A4C000320BDE8F081022A02D113F4003FDFE756
:100A5C0012B913F0020FDBE713F4806FD8E7022B07
:100A6C000AD1A36803F00C03082B94D0FFF7D0FB3A
:100A7C00C01B4045F5D9E3E773B9A36813F00C0F1D
:100A8C0089D0FFF7C5FBC01B4045F6D9D8E7FFF767
:100A9C00BFFBC01B4045D3D8A36803F00C03042B49
:100AAC00F5D178E70D4AA868936823F0F003034367
:100ABC00936074E7136823F00703334313601368E0
:100ACC0003F007039E4299D170E7A368EA6823F408
:100ADC00E0631343A3606EE7002002400010024065
:100AEC009C2A000830040020014B1868704700BF96
:100AFC00300400204B4BDA6C42F40052DA64DA6CAE
:100B0C0042F00302DA64484B1A6842F003021A609E
:100B1C001A6842F00C021A604FF090431A6842F4C3
:100B2C0040521A601A6842F030021A601A6842F099
:100B3C000C021A603D4B9A68900064D43C4A93684E
:100B4C0043F480339360394B9A68D10060D5374BAE
:100B5C001A46996811F03F0F99685ED141F0004137
:100B6C0099609368002BFCDB324B00211960936871
:100B7C0043F0010393602D4B1A68D207FCD51A6819
:100B8C0042F001021A605A6842F00C025A601A6B69
:100B9C0000221A63196B41F470711963196B41F4DB
:100BAC0080011963596B41F007015963196B41F0CE
:100BBC0004011963D96CDA64D96C41F4C031D9647D
:100BCC00D96C41F43061D964D96C41F00101D9641C
:100BDC00596941F0925141F4122141F4926141F072
:100BEC00020159619869144901439961D96841F42A
:100BFC008041D960114B4FF48021C3F8801183F8E8
:100C0C001223196070479A6822F000529A6092E79A
:100C1C009A6842F080529A6096E741F030019960F0
:100C2C0097E700BF00100240000400480000045089
:100C3C0000030450540400209224490200E100E017
:100C4C00064B1A6842F00C021A605A6842F00C0209
:100C5C005A609A6842F004029A607047000004508F
:100C6C00064B1A6842F040021A605A6842F0400281
:100C7C005A609A6842F008029A607047000004506B
:100C8C000F4B4FF47A721A600E4A936D43F0005377
:100C9C0093654FF09042136843F4406313600A4B22
:100CAC00DA6B42F48032DA631A6842F480321A60EA
:100CBC001A6A00221A621A6A42F07A721A62704731
:100CCC005804002000100240007400400A4B1A68BF
:100CDC001044B0F5805F24BF40F6FF721A60074ADB
:100CEC0038BF1860116A00211162116A1B6841EA51
:100CFC0003431362704700BF580400200074004087
:100D0C00084B1A68101A04BF01221A60064A18BF51
:100D1C001860116A00211162116A1B6841EA0343D1
:100D2C0013627047580400200074004040F6FF73B3
:100D3C00984228BF1846054B1860054B1A6A0022CA
:100D4C001A621A6A42EA004018627047580400207E
:100D5C0000740040124A936D43F000439365114BAD
:100D6C001A6942F001021A619A6842F002029A6012
:100D7C004FF4A0729A610C4A02212020C2F888110B
:100D8C0082F841039160094A002111605160916021
:100D9C00D16011611A6942F004021A61704700BFF8
:100DAC0000100240007C004000E100E05C040020E8
:100DBC00164B1A680132F92A1A6004D95A680132A2
:100DCC005A6000221A605A68B2F57A7F04D39A6886
:100DDC0001329A6000225A609A683B2A04D9DA6878
:100DEC000132DA6000229A60DA683B2A04D91A6967
:100DFC0001321A610022DA601A69172A04D95A6979
:100E0C0001325A6100221A61704700BF5C04002055
:100E1C00004870475C04002010B596B001221023E6
:100E2C0005930B92002310924F220C931292802365
:100E3C0020220D9311920223072205A80F931392DF
:100E4C0014931593FFF73EFB00B1FEE70F2203232B
:100E5C00029003900490042168468DE80C00FFF783
:100E6C008DFD00B1FEE74FF40070FFF74DFA04461C
:100E7C0000B1FEE7FFF738FE4FF47A73B0FBF3F0E6
:100E8C00FFF712FA0420FFF725FA224621464FF00D
:100E9C00FF30FFF7D5F916B010BD000008B5FFF70D
:100EAC00A3F9FFF7B9FF00F06DFCFFF753FF7320B8
:100EBC0001F0B4FB01F0D0FCFFF71CFE00F0D6F8FB
:100ECC00FFF7DEFE002000F051FC0A4C00F07AF92E
:100EDC00206030B101F0E6FA00F09AFD00F07AF9EA
:100EEC00F4E701F0DFFA00F093FD00F09FFB00F057
:100EFC005DFCEBE774040020214B07B51A6E42F041
:100F0C0001021A661A6E02F001020092009A9A6DA2
:100F1C0042F080529A659B6D03F08053019303203D
:100F2C00019BFFF77BF9002211466FF00B00FFF7D6
:100F3C0087F9002211466FF00A00FFF781F90022B1
:100F4C0011466FF00900FFF77BF9002211466FF094
:100F5C000400FFF775F9002211466FF00300FFF74C
:100F6C006FF9002211466FF00100FFF769F90022BA
:100F7C0011464FF0FF30FFF763F903B05DF804FB47
:100F8C000010024010B5064C064AE36913609B063C
:100F9C0001D501F0D3FC236A4FF0FF33236210BD5F
:100FAC00003801407C04002008B5FFF701FF044A1B
:100FBC0053686FEA53236FEA4323536008BD00BFA5
:100FCC00007C004038B51E4D1E4C2B682360590721
:100FDC000AD5286C1C4B0021188080B200F08AFDC9
:100FEC002B6843F004032B6023681A0706D5144AB8
:100FFC00136843F00803136000F060FD23685B0680
:10100C0015D50F4C104DD4F880002880012180B2EA
:10101C0000F070FDD4F884002880012180B200F02B
:10102C0069FD00F059FD236843F040032360044A36
:10103C0013686FEAD3236FEAC323136038BD00BF74
:10104C00000004507C040020780400207047FEE768
:10105C00FEE7FEE7FEE770477047704708B5FFF7FD
:10106C00CFF8BDE80840FFF742B90000364A3748D0
:10107C003749F8B500231360364A374D1360374AA9
:10108C001F4613701C46DEB2642E53D107B1167086
:10109C00C1F82043C5F82043C0F82043FFF7B8FE41
:1010AC002F4B18602F4B1C602F4B1C602F4B40F6A6
:1010BC0031021A602E4B1C602E4B01221A602E4BF3
:1010CC001C802E4B40F6C4121A802D4A4FF4AF737D
:1010DC0013802C4A13802C4A13802C4A13802C4BDF
:1010EC004FF434721A802B4B40F20E621A802A4B4A
:1010FC001C802A4B1C702A4B40F6FF721A80294B1D
:10110C0040F2FF721A80284B42681C60274B1C600F
:10111C00274B1C60274B1C60274B1A60274B19224E
:10112C0000201A60FFF702FE254AD36C43F003033C
:10113C00D364F8BD45F8234040F8234041F82340E0
:10114C00012701339FE700BF9C140020741100207D
:10115C0080040020080E0020DC0A0020180E00205D
:10116C00A4140020E0140020D80A0020200E002037
:10117C00B0140020100E0020C8140020320E0020E5
:10118C0070110020D40A0020CC140020F014002090
:10119C005C110020300E00205E110020A8070020FA
:1011AC00BC140020EE140020D41400201C0E0020CF
:1011BC000C0E0020B8140020040E0020D8140020BF
:1011CC0000100240024B1868C0F3C020704700BFEB
:1011DC00200E00202DE9F84F974D984E2A6898491B
:1011EC0012F001002C4616D1964B1870964B1A88AB
:1011FC00964B1A8033689B689A1C3B2A84BF3A3BF7
:10120C000B60934B98BF0A601888FFF78FFD012382
:10121C002360BDE8F88F37680B68B868984228D10E
:10122C00DFF854E2DEF8003013F0100C07D0831C0A
:10123C003B2B8ABF3A380B600860BDE8F88F8549B4
:10124C00D1F82013C82903D940F2DC4081420DD9D2
:10125C00814AC5F800C023F4006343F48063CEF8E0
:10126C000030138801331380BDE8F88F42F006027A
:10127C002A60236803F00602062ACAD113F0080F6D
:10128C00764D32D14FF0904143F008034A6942F059
:10129C0080024A6123607B6803F5FA72B2F57A7FAB
:1012AC002ABFA3F5FA732A602B602368D906B0D540
:1012BC009A0624D4032001F0B5FA01F02DF9684BFD
:1012CC00684AD3F82033283B138033685B6803F1FA
:1012DC003202B2F57A7F24BFA3F2B6332B602368B7
:1012EC0038BF2A6043F0200392E7D806E0D479682F
:1012FC002A6891428DD143F010032360D5E77A68B8
:10130C002B689A4285D1584A58491388D1F8200342
:10131C004E4FDFF85081DFF848910A3B98428A46DD
:10132C00934657D2D9F82023B8F800303988A2EB6D
:10133C00030E481F86454BD20B449B1A642B8CBF63
:10134C000F20012001F020FA0123B8F80010D9F881
:10135C0020238A4203D20F2001F016FA0123BBF896
:10136C000020DAF820130A32914203D9012001F04F
:10137C0035FA0123D9F82023B8F80010511A3A880D
:10138C000532914228D9012001F028FA33685B68B4
:10139C0003F13202B2F57A7F2ABFA3F2B6332A6088
:1013AC002B60334BD3F8203340F2153293423AD8AA
:1013BC002368B8F8002043F0C0032360D9F8203329
:1013CC009B1A193B204A9BB213803B80BDE8F88FD7
:1013DC000023BAE70023C2E7002BD7D123685B06B2
:1013EC00DFD433685B6803F13202B2F57A7F38BF21
:1013FC002A60144A24BFA3F2B6332B60137801334E
:10140C00DBB2632B1370CCD91A4B1888FFF78EFC08
:10141C00194A1A49136823F40063002043F050035F
:10142C0008601360BDE740F22A3293427FF6F1AEBA
:10143C00236823F04003EBE6B0140020A414002032
:10144C002C0E0020A8070020D40A002070110020C8
:10145C00EE140020340E00205E110020280E002017
:10146C00DC0A0020C8140020320E0020800400206A
:10147C0074110020BC140020200E002068110020E4
:10148C005C485D4903685A680B689A42F0B53ED0D7
:10149C005A4B5B4A1D6814685A4E6D0064001D60FF
:1014AC00146037697F065CBF45F001051D60356926
:1014BC001B682D065CBF44F0010414606FF04044BF
:1014CC00A34225D1504B00241C6013686FF040449C
:1014DC00A3426CD14D4B00241C601368B3F1404FF8
:1014EC0012D14B4A4B4B4C4C16681B8827884B4AE5
:1014FC0033449F427BD913889F4288BF2380238823
:10150C009B1B9BB22380138003685B680B60F0BD50
:10151C005F1C27D13C4C23680133322B2360D4D180
:10152C003F4C3B4E3C4D248836682B88A71BBB4256
:10153C000ED23C4C2488A71BBB4238BF9B19374F9B
:10154C002FBF2C809BB22B803B8028BF3C80B9E7FF
:10155C00354B1B68DE05B5D4324B2C801C802F4BD1
:10156C001C80AFE7B3F1404FAFD12D4C284E2A4D24
:10157C00248836682B88A71BBB420ED2294C2488A2
:10158C00A71BBB4238BF9B19244F2FBF2C809BB28B
:10159C002B803B8028BF3C8097E7234B1B68DB05E7
:1015AC0093D4204B2C801C801C4B1C808DE701336A
:1015BC0093D1164C23680133322B2360A4D1144CE5
:1015CC00144B154D27681B88B5F800E0134C3B44B1
:1015DC009E4509D923889E4588BF2B802B88DB1B11
:1015EC009BB22B80238075E79BB22B80FAE79BB2D2
:1015FC00238088E7A4140020040E0020D4140020BB
:10160C001C0E0020000400480C0E0020B814002012
:10161C00D8140020C8140020CC1400207011002015
:10162C00D40A0020F0140020200E00204548036846
:10163C0013F0100F30B5014672D15A0670D5424ADC
:10164C00D2F82023B2F5C87F07D8404A43F4806310
:10165C00036013880133138030BD40F6B414A242EA
:10166C00F3D8B2F5347FF0D940F6A514A242ECD8E9
:10167C00DD0556D440F2B530824206D843F480736F
:10168C0033480B6002F1640303800B6823F400738E
:10169C000B600B68DC0543D5980549D42C480488AD
:1016AC00A24218D2A41A2B4D322C2C6013D92A4DDD
:1016BC0002802C881E2C94BF2824193C2C80274D8A
:1016CC002C68B4F57A7F28BFA4F57A7443F40073C0
:1016DC0028BF2C600B6003889A4221D9D31A1D4C69
:1016EC00322B23601CD91C4B1D4D1C882D8802806D
:1016FC001934A4B21C80AC421A4C88BF1D801D88C2
:10170C002488164AA54288BF1C801368B3F57A7FDB
:10171C0024BFA3F57A7313600B6843F400730B605A
:10172C0030BD40F2F2308242B3D923F44073AFE7BC
:10173C000D4A12685068094A12689042F0D123F49D
:10174C000073ECE7200E0020340E00205E11002008
:10175C00EC140020B4140020701100206011002043
:10176C00D40A0020CC140020A41400204FF0904385
:10177C005A6918B142F080025A61704722F0800217
:10178C00FAE70000084AD36C43F00303D3644FF02C
:10179C00904300201A6822F440421A601A6842F4FE
:1017AC0080421A60FFF7E2BF001002402DE9F84FAB
:1017BC0000F0E4FF4B4A136813F01105144640F097
:1017CC008F805E0524D52846FFF7B0FA00F000FFA5
:1017DC002846FFF7CBFF2368580644BF23F040038D
:1017EC002360414B1B88092B7AD8404A4049136827
:1017FC0001338B42136073D923683E4823F4806312
:10180C00002143F40063016023601160BDE8F88F90
:10181C0059065CD513F0800FDFF8E880364F4BD1BA
:10182C00364E374D3388D5F82023DFF8DCA0DFF8AF
:10183C00DCB0DFF8DC900A3B9A4215D2DAF82033A0
:10184C00BBF800209A1AB9F80030053B9A4202D234
:10185C00012000F099FFBBF80030DAF820239A42FF
:10186C0002D2012000F090FF3388D5F820230A33F0
:10187C009A4202D9012000F0B1FFBBF80030DAF82F
:10188C002023D21AB9F8003005339A4202D901202C
:10189C0000F0A4FF236843F080032360D8F80030E5
:1018AC005B6803F5FA72B2F57A7F2ABFA3F5FA7377
:1018BC003A603B60BDE8F88FD8F80010486839688A
:1018CC0088420DD123F080031360BDE8F88F23F01C
:1018DC0080030128136003D0BDE8F84F00F078BEF8
:1018EC00BDE8F88F200E00205E110020D0140020DF
:1018FC003F0D0300B014002064110020320E0020B4
:10190C0080040020A4140020DC0A0020C81400204D
:10191C0070110020F0B5194A194C1A4E01460023DB
:10192C0030274FF00A0E0A2B0CD11749174A0B70AF
:10193C000023106033701C46D8B20A2816D104B1AB
:10194C003070F0BD9142B1FBF2F503F1010388BF99
:10195C0005F1300CEDB28CBF84F800C0277002FB8F
:10196C001511DBB2B2FBFEF20134DCE7D418C81857
:10197C002479447001330124DEE700BF00CA9A3B8E
:10198C001C030020180E0020F21400201803002065
:10199C00F0B50B780778BB424FF0000309D10B4C24
:1019AC001A4623701E460123D5B2AF4203D806B1A6
:1019BC0025701846F0BD86188D1876786D78013232
:1019CC00AE4218BF00230126EEE700BF180E002020
:1019DC000D49002330B51A460B6004460132656888
:1019EC0044F8045BD2B2C72A2B44F7D1074C2270BF
:1019FC00D0F82423C0F81C2313440B60C822B3FB7B
:101A0C00F2F3C0F8203330BDAC140020180E0020C7
:101A1C0038B5204C23689A071AD51F48FFF7D8FF12
:101A2C001E48FFF7D5FF1E48FFF7D2FF236823F0AF
:101A3C000603236023681B071CD51A48FFF7C8FF51
:101A4C001948FFF7C5FF236823F00803236038BD4E
:101A5C0013F0040F154A07D101231360FFF7F0F8B8
:101A6C00236843F00403E4E71268042AE2D123F06C
:101A7C000403DEE70E4D0F4C2B685A6823689A421C
:101A8C00E5D00D4B01221A60FFF7EAF82B685B6872
:101A9C00DCE700BF200E0020DC0A002074110020BF
:101AAC0080040020340E0020AC070020100E002013
:101ABC00A4140020D80A0020A0140020044A1368A3
:101ACC0043F002031360034A136801331360704739
:101ADC00200E0020E8140020044A136843F0080389
:101AEC001360034A1368013313607047200E002003
:101AFC00E81400202C4A1368013310B51360002938
:101B0C003BD12A4C2368022B2BD0032B2FD0012B3B
:101B1C0026D127490A6801320A60264AC2F82403F2
:101B2C0001332360244B1B68642B08D9234B1B689F
:101B3C00642B81BF224A136823F0100313601C4BE3
:101B4C001B68642B0CD91F4B1B68642B08D91E4BCC
:101B5C001B68642B81BF1A4A136823F001031360BE
:101B6C0010BD18490A6801320A60184AD6E71649AE
:101B7C000A6801320A60164AD0E7164A1368012B2C
:101B8C0002D0022B0AD010BD0B4C21680131216010
:101B9C001149C1F8240301331360C3E7074C2168D2
:101BAC00013121600D49F4E7A8140020100E00202B
:101BBC0014150020DC0A002068110020240E0020DF
:101BCC00200E0020C0140020140E002080040020E1
:101BDC0074110020A0140020340E0020AC0700204B
:101BEC0008B50378042B18D14378642B15D183786E
:101BFC00632B12D1C378303BDBB2092B0DD80079A3
:101C0C003038C0B2092808D803EB830300EB43003B
:101C1C00C0B200F007FE012008BD002008BD000086
:101C2C0010B50378062B32D14378692B2FD18378EA
:101C3C00732B2CD1C378303BDAB2092A27D804791C
:101C4C00303CE2B2092A22D84279303AD2B2092A7F
:101C5C001DD881793039C9B2092918D86420444378
:101C6C004FF47A7000FB03430B440A2111FB02333F
:101C7C0040F6F7029A42074928BF1A460A80064ADC
:101C8C001268D20501D4054A1380012010BD002032
:101C9C0010BD00BFD40A0020200E002070110020BF
:101CAC0010B50378062B2CD14378762B29D1837869
:101CBC00732B26D1C378303BDAB2092A21D80479A8
:101CCC00303CE2B2092A1CD84279303AD2B2092A05
:101CDC0017D881793039C9B2092912D86420444304
:101CEC004FF47A7000FB03430B440A2111FB0233BF
:101CFC0040F69941044A8B428CBF1180138001201D
:101D0C0010BD002010BD00BF320E002010B50378AE
:101D1C00062B2CD14378652B29D18378762B26D1B1
:101D2C00C378303BDAB2092A21D80479303CE2B2CC
:101D3C00092A1CD84279303AD2B2092A17D88179AB
:101D4C003039C9B2092912D8642044434FF47A704F
:101D5C0000FB03430B440A2111FB023340F699416B
:101D6C00044A8B428CBF11801380012010BD0020CF
:101D7C0010BD00BF300E0020034A0448136823F046
:101D8C000403136000F0C0BD200E0020F7020020F9
:101D9C0038B51048104D114C00F0B6FD104BD3F86F
:101DAC002003FFF7B7FD284600F0AEFD204600F0FB
:101DBC00ABFD0C4800F0A8FD0B4BD3F82003FFF74C
:101DCC00A9FD284600F0A0FD2046BDE8384000F0F3
:101DDC009BBD00BFA5000020F214002008010020CC
:101DEC00340E0020C6000020AC07002010B5314C8A
:101DFC00E06AFFF78FFD304800F086FD2F4800F0B9
:101E0C0083FD606BFFF786FD2B4800F07DFD2B48B2
:101E1C0000F07AFDE06BFFF77DFD274800F074FDC4
:101E2C00264800F071FD2069FFF774FD224800F090
:101E3C006BFD224800F068FDA069FFF76BFD1E48A2
:101E4C0000F062FD1D4800F05FFDE069FFF762FDE8
:101E5C00194800F059FD194800F056FDA069FFF72C
:101E6C0059FD154800F050FD144800F04DFD206858
:101E7C00FFF750FD104800F047FD104800F044FDFE
:101E8C0000F07CFC0138032811D8DFE800F0020ACE
:101E9C000C0E0B4800F038FD0848BDE8104000F06F
:101EAC0033BD0848F6E70848F4E70848F2E7084865
:101EBC00F0E700BF002C0140F214002008010020C4
:101ECC00D6020020280300204200002063000020DE
:101EDC004A010020F8B51F4F1F4E204D204C3846AC
:101EEC0000F012FD1F4BD6F820031B88C01AFFF719
:101EFC0011FD284600F008FD204600F005FD38468F
:101F0C0000F002FDD6F82003FFF704FD284600F090
:101F1C00FBFC204600F0F8FC134800F0F5FC134BDA
:101F2C00D3F82003FFF7F6FC284600F0EDFC204622
:101F3C0000F0EAFC0E4800F0E7FC0E4BD3F820034F
:101F4C00FFF7E8FC284600F0DFFC2046BDE8F8402F
:101F5C0000F0DABC84000020DC0A0020F21400201F
:101F6C0008010020C8140020E70000208004002095
:101F7C00C60000207411002070B51B4E1B4D336839
:101F8C001B4C1868FFF7C6FC284600F0BDFC204629
:101F9C0000F0BAFC33685868FFF7BCFC284600F028
:101FAC00B3FC204600F0B0FC33689868FFF7B2FC35
:101FBC00284600F0A9FC204600F0A6FC3368D8683F
:101FCC00FFF7A8FC284600F09FFC204600F09CFC84
:101FDC0033681869FFF79EFC284600F095FC2046F4
:101FEC00BDE8704000F090BCA4140020F214002056
:101FFC000801002038B51548154D164C00F084FC2E
:10200C00154B1868FFF786FC284600F07DFC20462F
:10201C0000F07AFC114800F077FC114B1868FFF7C0
:10202C0079FC284600F070FC204600F06DFC0D4851
:10203C0000F06AFC0C4B1868FFF76CFC284600F0AB
:10204C0063FC2046BDE8384000F05EBC84000020F4
:10205C00F21400200801002014150020E7000020D5
:10206C00C0140020C6000020140E002038B50C4B04
:10207C000C4D18680C4CFFF74DFC284600F044FC46
:10208C00204600F041FC094B1868FFF743FC28463A
:10209C0000F03AFC2046BDE8384000F035BC00BFEB
:1020AC00200E0020F214002008010020100E002049
:1020BC0038B5114B114D1868114CFFF72BFC284605
:1020CC0000F022FC204600F01FFC0E4B1868FFF7B6
:1020DC0021FC284600F018FC204600F015FC0A4BA9
:1020EC00186BFFF717FC284600F00EFC2046BDE8E5
:1020FC00384000F009BC00BFA8140020F2140020E6
:10210C0008010020E81400200000045038B50F48E6
:10211C000F4D104C00F0F8FB0F4B1868FFF7FAFB53
:10212C00284600F0F1FB204600F0EEFB0B4800F0D7
:10213C00EBFB0B4B1868FFF7EDFB284600F0E4FBBC
:10214C002046BDE8384000F0DFBB00BFA5000020F2
:10215C00F21400200801002068110020C6000020A5
:10216C00240E002008B5064B1868FFF7D3FB054872
:10217C0000F0CAFB0448BDE8084000F0C5BB00BF36
:10218C00B0140020F21400200801002008B5064B02
:10219C00186BFFF7BFFB054800F0B6FB0448BDE821
:1021AC00084000F0B1BB00BF00740040F2140020E6
:1021BC000801002070B5154E154D306A154C80B2D3
:1021CC00FFF7A8FB284600F09FFB204600F09CFB85
:1021DC00306A000CFFF79EFB284600F095FB20466A
:1021EC0000F092FBF068FFF795FB284600F08CFBA3
:1021FC00204600F089FB3068FFF78CFB284600F086
:10220C0083FB2046BDE8704000F07EBB000004500C
:10221C00F21400200801002010B50446824800F09A
:10222C0073FB82492046FFF7B3FB08B1FFF7DEFDD5
:10223C007F492046FFF7ACFB08B1FFF74BFE7D4909
:10224C002046FFF7A5FB08B1FFF796FE7A4920461A
:10225C00FFF79EFB08B1FFF7CDFE78492046FFF74C
:10226C0097FB08B1FFF752FF75492046FFF790FB2B
:10227C0008B1FFF7FBFE73492046FFF789FB08B155
:10228C00FFF770FF70492046FFF782FB08B1FFF79C
:10229C0091FF6E492046FFF77BFB08B1FFF76CFD01
:1022AC006B492046FFF774FB08B1FFF701FF694942
:1022BC002046FFF76DFB08B1FFF76AFD6649204623
:1022CC00FFF766FB28B1012000F05EFA634800F0CE
:1022DC001BFB63492046FFF75BFB20B100F01CF9A8
:1022EC005E4800F011FB5F492046FFF751FB20B11F
:1022FC0000F03EF9594800F007FB5B492046FFF718
:10230C0047FB20B100F064F9544800F0FDFA57493E
:10231C002046FFF73DFB20B100F00AFA4F4800F0D1
:10232C00F3FA2046FFF75CFC10B14C4800F0ECFAD5
:10233C002046FFF775FC10B1484800F0E5FA20463E
:10234C00FFF7AEFC10B1454800F0DEFA2046FFF76F
:10235C00DDFC10B1414800F0D7FA45492046FFF7A3
:10236C0017FB28B1C820FEF7B1FC3C4800F0CCFAB2
:10237C0040492046FFF70CFB28B1C820FEF7C0FCF3
:10238C00364800F0C1FA3C492046FFF701FB28B162
:10239C000020FEF7CBFC314800F0B6FA3749204656
:1023AC00FFF7F6FA30B140F6FF70FEF7BFFC2B4892
:1023BC0000F0AAFA32492046FFF7EAFA08B1FFF713
:1023CC00E5FE30492046FFF7E3FA50B12E4B234887
:1023DC0000221A602D4A136843F40063136000F066
:1023EC0093FA2B492046FFF7D3FA38B1274A1B48FA
:1023FC00136823F04003136000F086FA2549204649
:10240C00FFF7C6FA40B1244B244AD3F820331348C3
:10241C00283B138000F078FA034800F075FA204846
:10242C00BDE8104000F070BA08010020EE03002057
:10243C000F040020CD030020210000208B0300207E
:10244C00B50200206A030020000000209402002046
:10245C0029010020AC03002031020020F7020020EB
:10246C006300002042000020D60200202803002038
:10247C00100200208C010020AD010020CE010020B4
:10248C00EF01002073020020B0140020200E002069
:10249C00520200206B010020DC0A0020C81400202E
:1024AC004903002008B500F093FA074B1870430756
:1024BC0005D500F081FA054B1860FFF7ADFEBDE8BD
:1024CC000840FEF7DDBF00BFDC140020181500200B
:1024DC000F49D1F8883043F47003C1F888300D4BA4
:1024EC001A68002042F001021A6098601A6822F003
:1024FC00A85222F410221A604FF48052DA601A6843
:10250C0022F480221A6098614FF000638B60704750
:10251C0000ED00E000100240124B04221A70124B26
:10252C001A68124BDA639A6900229A61996940F62B
:10253C00080001439961996941F0400199619969D9
:10254C0041F480419961D969DA61DA690243DA614F
:10255C00DA6942F06002DA61DA6942F4A042DA61C7
:10256C00704700BF241500202C150020002C0140C2
:10257C00144B03221A70144B1A68144B00215A6323
:10258C009A6999619A6942F4086242F008029A6168
:10259C009A6942F4A0429A619A6942F070029A6177
:1025AC00DA69D961DA6942F4006242F00802DA6150
:1025BC00DA6942F48042DA61DA6942F04002DA61A7
:1025CC00704700BF241500202C150020002C014062
:1025DC00104B01221A70104B9A6900229A6199696A
:1025EC0040F6080001439961996941F48041996171
:1025FC00996941F040019961D969DA61DA6902435C
:10260C00DA61DA6942F48042DA61DA6942F0400256
:10261C00DA61704724150020002C01403B4A3C4BEA
:10262C00B3FBF0F070B53B4E13603B4B30601A6E51
:10263C003A4C42F400621A66DA6C42F00102DA6437
:10264C004FF0904300251A6822F440321A601A6841
:10265C0042F400321A601A6822F440221A601A6896
:10266C0042F400221A601A6822F440121A601A68A6
:10267C0042F400121A601A6822F440021A601A68B6
:10268C0042F400021A605A6A42F001025A625A6A13
:10269C0042F010025A625A6A42F480725A625A6AC2
:1026AC0042F480525A62236A2562FFF791FF336825
:1026BC00E3626422B3FBF2F3194A01331360194B42
:1026CC001D70194B1D60194B1D70236A43F00103DB
:1026DC002362236A43F010032362236A43F480735A
:1026EC002362236A43F480532362A26940F60801F3
:1026FC000A43A261E3690B43E361636C43F4004357
:10270C006364236843F00103236070BD341500201B
:10271C00803801002815002000100240002C0140D8
:10272C00201500201C150020301500201D15002040
:10273C00104B02221A70104B9A6900229A61996907
:10274C0040F6080001439961996941F05001996183
:10275C00996941F4A0419961D969DA61DA69024356
:10276C00DA61DA6942F04002DA61DA6942F4A042D5
:10277C00DA61704724150020002C0140014B1878B9
:10278C00704700BF241500200E4B0F491A681044E7
:10279C000E4A18601268013A904228BF1A600C4A1F
:1027AC001B681268B3FBF2F20A700A4A1278032A09
:1027BC0002D1094A53637047042A04BF064AD36303
:1027CC00704700BF2C1500201C1500202815002078
:1027DC002015002024150020002C01400C4B0D4925
:1027EC001A68824294BF0022121A1A600A4A1B68A5
:1027FC001268B3FBF2F20A70084A1278032A02D16B
:10280C00074A53637047042A04BF054AD3637047D1
:10281C002C1500201C15002020150020241500204C
:10282C00002C0140431E622B0DD8074B1870074B30
:10283C001B685843064B1860064B5863D8635A699B
:10284C0042F001025A6170471C150020201500202F
:10285C002C150020002C0140244B1A6E42F48042AF
:10286C0010B51A66DA6C42F00202DA64204B1A6870
:10287C0022F440521A601A6842F400521A601A6824
:10288C0022F440421A601A6842F400421A601A6A32
:10289C0042F0E0621A621A6A42F0E0421A62154B88
:1028AC001A6842F02C021A600021DA68D960DA68E2
:1028BC0042F42D7242F00202DA600F4A20201024FA
:1028CC00C2F8840182F8254350601A6842F0010274
:1028DC001A6011221A85094B094A1970094B197093
:1028EC00137843F00503137010BD00BF00100240B5
:1028FC00000400480038014000E100E040150020D1
:10290C0038150020411500200A4A002330B51370F9
:10291C000578094C19469D4202D801B1137030BD9F
:10292C0010F8011F2185E1690906FCD50133DBB2E2
:10293C000121F0E740150020003801401948838C34
:10294C00DBB2A3F120025E2AF0B50DD816490A7845
:10295C008C18013263709BB20A700385114A136A9A
:10296C0043F020031362F0BD0D2BF7D10E4A0F4933
:10297C0015780F4C00230B701E46DFB20133581E26
:10298C00C0B285420AD806B10F7000231370094AF1
:10299C002570137843F004031370DFE7D05CE05428
:1029AC000126EAE70038014070150020911500203F
:1029BC004815002038150020034A0448137823F0EA
:1029CC0004031370704700BF381500204815002011
:1029DC00014B1878704700BF38150020DFF834D051
:1029EC00002103E00C4B5B58435004310B480C4B5B
:1029FC0042189A42F6D30B4A02E0002342F8043BF9
:102A0C00094B9A42F9D3FFF763FD00F011F8FEF77A
:102A1C0045FAFEE700000120E42A0008000000202F
:102A2C00340400203404002094150020FEE700003C
:102A3C0070B50D4E0D4CA41BA4100025A54209D158
:102A4C000B4E0C4C00F018F8A41BA4100025A5424A
:102A5C0005D170BD56F8253098470135EEE756F88C
:102A6C00253098470135F2E7DC2A0008DC2A0008FB
:102A7C00DC2A0008E02A0008F8B500BFF8BC08BC46
:102A8C009E467047F8B500BFF8BC08BC9E46704720
:102A9C000000000000000000010203040607080902
:102AAC00A0860100400D0300801A060000350C00C2
:102ABC0040420F0080841E0000093D0000127A0085
:102ACC000024F40000366E010048E801006CDC02C2
:042ADC00B10100083C
:042AE0008D0100085C
:102AE40003616463000000000000000000000000B7
:102AF40000000000000000000000000000000000D2
:102B0400000462616E6B0000000000000000000021
:102B140000000000000000000000000000000000B1
:102B2400000005626F6F7374000000000000000075
:102B34000000000000000000000000000000000091
:102B4400000000046275636B0000000000000000D8
:102B54000000000000000000000000000000000071
:102B64000000000003433A200000000000000000C1
:102B74000000000000000000000000000000000051
:102B8400000000000003453A20000000000000009F
:102B94000000000000000000000000000000000031
:102BA40000000000000003493A200000000000007B
:102BB4000000000000000000000000000000000011
:102BC40000000000000000034F3A20000000000055
:102BD40000000000000000000000000000000000F1
:102BE4000000000000000000020A0D0000000000C8
:102BF40000000000000000000000000000000000D1
:102C040000000000000000000004636F6E76000006
:102C140000000000000000000000000000000000B0
:102C24000000000000000000000003637031000099
:102C34000000000000000000000000000000000090
:102C440000000000000000000000000463737273C1
:102C54000000000000000000000000000000000070
:102C64000000000000000000000000000564616333
:102C7400646E00000000000000000000000000007E
:102C84000000000000000000000000000005646176
:102C9400636D6E00000000000000000000000000F2
:102CA40000000000000000000000000000000564B7
:102CB40061636D7800000000000000000000000067
:102CC40000000000000000000000000000000006FA
:102CD4006461637270740000000000000000000072
:102CE40000000000000000000000000000000000E0
:102CF40005646163757000000000000000000000BE
:102D040000000000000000000000000000000000BF
:102D1400000364632B0000000000000000000000BA
:102D2400000000000000000000000000000000009F
:102D340000000664727664697300000000000000FD
:102D4400000000000000000000000000000000007F
:102D540000000005647276656E000000000000004B
:102D6400000000000000000000000000000000005F
:102D74000000000005666C636C7200000000000037
:102D8400000000000000000000000000000000003F
:102D9400000000000004666C616700000000000091
:102DA400000000000000000000000000000000001F
:102DB400000000000000046C6F636B000000000062
:102DC40000000000000000000000000000000000FF
:102DD40000000000000000012400000000000000CA
:102DE40000000000000000000000000000000000DF
:102DF400000000000000000000000000303030300F
:102E040030303030303000000470617373000000E3
:102E140000000000000000000000000000000000AE
:102E24000000000000000000000B444556405354CD
:102E34004D33323A20000000000000000000000082
:102E440000000000000000000000047374757000AE
:102E5400000000000000000000000000000000006E
:102E64000000000000000000000000057462616EB4
:102E74006B000000000000000000000000000000E3
:102E84000000000000000000000000000474656DF4
:102E940070000000000000000000000000000000BE
:102EA400000000000000000000000000000474693D
:102EB4006D6500000000000000000000000000003C
:102EC4000000000000000000000000000000047486
:102ED400696D3100000000000000000000000000E7
:102EE40000000000000000000000000000000004DA
:102EF400766F6C7400000000000000000000000009
:102F040000000000000000000000000000000000BD
:042F140000093D0073
:04000005080029E9DD
:00000001FF
