:020000040800F2
:1000000000000120C92800086110000863100008E2
:100010006510000867100008691000080000000063
:100020000000000000000000000000006B1000084D
:100030006D100008000000006F100008711000082B
:100040001929000819290008192900081929000888
:100050001929000819290008192900081929000878
:100060001929000819290008192900081929000868
:100070001929000819290008192900081929000858
:100080001929000819290008D90F000819290008A2
:100090001929000819290008192900081929000838
:1000A0001929000819290008192900081929000828
:1000B00019290008000000000000000019290008AC
:1000C000192900080000000000000000192900089C
:1000D00000000000990F0008192900080000000026
:1000E000192900081929000800000000000000007C
:1000F0000000000000000000000000000000000000
:1001000000000000000000000000000019290008A5
:10011000000000000000000019290008192900084B
:1001200019290008192900081929000819290008A7
:100130001929000800000000000000000000000075
:1001400019290008BD0F00081929000819290008FD
:100150001929000819290008192900081929000877
:1001600019290008192900081929000800000000B1
:1001700019290008192900080000000000000000EB
:0C01800019290008192900081929000895
:10018C0010B5054C237833B9044B13B10448AFF3C5
:10019C0000800123237010BD3404002000000000F7
:1001AC006429000808B5034B1BB103490348AFF39E
:1001BC00008008BD000000003804002064290008FD
:1001CC0010B5084B044618684FF47A73B0FBF3F083
:1001DC0000F06AF8002221464FF0FF3000F030F8B2
:1001EC00002010BD3004002008B5032000F016F8E4
:1001FC000020FFF7E5FF00F083FE002008BD0000A3
:10020C00024A136801331360704700BF500400208A
:10021C00014B1868704700BF50040020074AD36890
:10022C0023F4E0631B041B0C43F0BF63000243F494
:10023C00003300F4E0600343D360704700ED00E04E
:10024C00174B30B5DC68C4F30224C4F10703251D39
:10025C00042B28BF0423062D4FF0010505FA03F3E8
:10026C0003F1FF338CBF033C00241940A14005FA75
:10027C0004F4013C2240002842EA01024FEA021237
:10028C00AFBF00F1604000F00F00064BD2B2A5BF2B
:10029C0000F56140D2B21A5480F8002330BD00BF83
:1002AC0000ED00E014ED00E00138B0F1807F0AD2DF
:1002BC00064B074A5860F02182F8231000200722D1
:1002CC0098601A6070470120704700BF10E000E092
:1002DC0000ED00E0044B1A6804280CBF42F0040245
:1002EC0022F004021A60704710E000E0704708B575
:1002FC00FFF7FCFF08BD0000024B186800F4C0605B
:10030C00704700BF00700040164B1A68B0F5007FB4
:10031C0002F4C0621AD1B2F5007F13D01A681249E8
:10032C0022F4C06242F400721A60104A1268B2FBE6
:10033C00F1F132224A4312B15969490504D45B697F
:10034C005B050DD400207047013AF4E7B2F5806FDD
:10035C001FBF1A6822F4C06242F480621A60F1E78F
:10036C00032070470070004040420F003004002012
:10037C0037B51E4DAB6DDA00044618D5FFF7BCFF40
:10038C00B0F5007F23D1802C29D9A02C8CBF022062
:10039C000120174A136823F0070303431360136803
:1003AC0003F00703181A18BF012003B030BDAB6D62
:1003BC0043F08053AB65AB6D03F080530193019B0D
:1003CC00FFF79AFFAB6D23F08053AB65D8E7802C19
:1003DC0007D808D0A4F1700358425841D9E700203F
:1003EC00D7E70320D5E70220D3E700BF0010024077
:1003FC00002002402F4B9A6812F00C0F10B509D058
:10040C009A6802F00C020C2A2DD1DA6802F0030271
:10041C00012A28D11A682849120755BFD3F894200D
:10042C001A68C2F30322C2F3031251F8222099680E
:10043C0011F00C0F0CBF10460020996801F00C0154
:10044C000C2930D1DC68D868C0F30210411C04F0D0
:10045C000300022819D0032826D0B2FBF1F2D86889
:10046C00C0F3062017E09A6802F00C02042A07D0A9
:10047C009A6802F00C02082A04D110480022DCE72A
:10048C000F48FBE700200246D7E7DA680C48C2F3B6
:10049C000622B0FBF1F0DB68C3F341630133504338
:1004AC005B00B0FBF3F010BDDA680448C2F306221F
:1004BC00EFE700BF001002408C29000800127A0000
:1004CC000024F40003682DE9F3410546D80639D51C
:1004DC00AB4CA36813F00C0F62D12368990703D5BA
:1004EC00AB690BB901207FE02368286A1A0756BF55
:1004FC00D4F8943023681B0903F0F00383423AD2FA
:10050C00FFF736FF0028EDD1236843F00803236082
:10051C0023682A6A23F0F003134323606368EA69B3
:10052C0023F47F4343EA02236360FFF763FFA3686E
:10053C00944AC3F30313D35CD840934B1860002048
:10054C00FFF73EFE2B68D80761D42B68990700F1A2
:10055C00A9802B681A0700F1E7802B685B0700F174
:10056C0015812B689A0600F17C81AA6A002A40F05A
:10057C00A381002038E0236843F00803236023683C
:10058C0023F0F003034323606368EA6923F47F4399
:10059C0043EA02236360FFF7EBFE0028C5D0A1E716
:1005AC00AB6923B3236843F001032360FFF730FEEC
:1005BC00064623689B0711D5236843F00803236084
:1005CC0023682A6A23F0F003134323606368EA6903
:1005DC0023F47F4343EA02236360B3E7FFF718FE7B
:1005EC00801B0228E5D9032002B0BDE8F081236806
:1005FC0023F001032360FFF70BFE064623689F07D9
:10060C00A0D5FFF705FE801B0228F7D9EBE75C4C61
:10061C00A36803F00C03082B09D0A36803F00C03A8
:10062C000C2B0BD1E36803F00303032B06D12368D7
:10063C009A038AD56B68002B87D153E76B68B3F5A7
:10064C00803F10D1236843F480332360FFF7E0FD33
:10065C00064623689B033FF578AFFFF7D9FD801B57
:10066C006428F6D9BFE7B3F5A02F04D1236843F46F
:10067C0080232360E6E7226822F48032226022681D
:10068C0022F480222260002BE0D1FFF7C1FD064648
:10069C0023689F037FF559AFFFF7BAFD801B6428D1
:1006AC00F6D9A0E7364CA36803F00C03042B09D051
:1006BC00A36803F00C030C2B13D1E36803F00303C2
:1006CC00022B0ED123685E0503D5EB68002B3FF49B
:1006DC0009AF63682A6923F0F85343EA0263636045
:1006EC0037E7EB687BB1236843F480732360FFF733
:1006FC008FFD064623685805EBD4FFF789FD801B58
:10070C000228F7D96FE7236823F480732360FFF77F
:10071C007FFD0646236859057FF51BAFFFF778FD73
:10072C00801B0228F6D95EE76B69154C9BB1D4F897
:10073C00943043F00103C4F89430FFF769FD06468A
:10074C00D4F894309F073FF508AFFFF761FD801B8D
:10075C000228F5D947E7D4F8943023F00103C4F804
:10076C009430FFF755FD0646D4F8943098077FF582
:10077C00F4AEFFF74DFD801B0228F5D933E700BF1F
:10078C00001002407C29000830040020794CA36D35
:10079C00D90027D4A36D43F08053A365A36D03F058
:1007AC0080530193019B0127734E3368DA051BD5E7
:1007BC00AB68012B29D1D4F8903043F00103C4F875
:1007CC009030FFF725FD41F288380646D4F890307A
:1007DC00980740D5002F3FF4C4AEA36D23F080538F
:1007EC00A365BEE60027DFE7336843F4807333600C
:1007FC00FFF70EFD80463368DB05D9D4FFF708FD03
:10080C00A0EB08000228F6D9EDE6052B06D1D4F8AA
:10081C00903043F00403C4F89030CCE7D4F8902027
:10082C0022F00102C4F89020D4F8902022F00402A7
:10083C00C4F89020002BC4D1FFF7EAFC41F28838B1
:10084C000646D4F890309907C4D5FFF7E1FC801B1D
:10085C004045F6D9C7E6FFF7DBFC801B4045B5D910
:10086C00C1E66B6A434C9BB1D4F8983043F001035A
:10087C00C4F89830FFF7CCFC0646D4F898309B07A8
:10088C003FF573AEFFF7C4FC801B0228F5D9AAE62E
:10089C00D4F8983023F00103C4F89830FFF7B8FC73
:1008AC000646D4F898309F077FF55FAEFFF7B0FC93
:1008BC00801B0228F5D996E62E4CA36803F00C0396
:1008CC000C2B3FF40FAE2368022A23F080732360B5
:1008DC0036D1FFF79DFC0646236898012AD4AB6BF2
:1008EC006A6BDB0643EA0223EA6A13432A6B013A7A
:1008FC0043EA0213EA6B5208013A43EA42532A6C68
:10090C005208013A43EA4263E360236843F0807380
:10091C002360E36843F08073E360FFF779FC0546DE
:10092C00236899013FF525AEFFF772FC401B0228A6
:10093C00F6D958E6FFF76CFC801B0228CCD952E69E
:10094C0023681A015EBFE36823F00303E360E368E6
:10095C0023F0887323F48033E360FFF759FC0546DA
:10096C0023689B017FF505AEFFF752FC401B022864
:10097C00F6D938E60010024000700040564A136861
:10098C0003F007038B422DE9F04105460E462BD3AD
:10099C002B68D90735D429688A0700F183804E4A21
:1009AC00136803F007039E42C0F0848011F0040F1B
:1009BC004A4C40F08A800B0706D5A3682A6923F4B9
:1009CC00605343EAC203A360FFF714FDA368444AD3
:1009DC00C3F30313D35CD840424B18600020FFF7DD
:1009EC00EFFB0020BDE8F081136823F007030B43F5
:1009FC001360136803F007039942C9D00120BDE8C6
:100A0C00F0816A68354C032A23681CD113F0007FEF
:100A1C00F4D0A36823F003031343A360FFF7F8FBA0
:100A2C006B68032B074641F2883818D1A36803F092
:100A3C000C030C2BAFD0FFF7EBFBC01B4045F5D9DB
:100A4C000320BDE8F081022A02D113F4003FDFE756
:100A5C0012B913F0020FDBE713F4806FD8E7022B07
:100A6C000AD1A36803F00C03082B94D0FFF7D0FB3A
:100A7C00C01B4045F5D9E3E773B9A36813F00C0F1D
:100A8C0089D0FFF7C5FBC01B4045F6D9D8E7FFF767
:100A9C00BFFBC01B4045D3D8A36803F00C03042B49
:100AAC00F5D178E70D4AA868936823F0F003034367
:100ABC00936074E7136823F00703334313601368E0
:100ACC0003F007039E4299D170E7A368EA6823F408
:100ADC00E0631343A3606EE7002002400010024065
:100AEC007C29000830040020014B1868704700BFB7
:100AFC00300400204D4BDA6C42F40052DA64DA6CAC
:100B0C0042F00302DA644A4B1A6842F003021A609C
:100B1C001A6842F00C021A604FF090431A6842F4C3
:100B2C0040521A601A6842F030021A601A6842F099
:100B3C000C021A603F4B9A68900068D43E4A936846
:100B4C0043F4803393603B4B9A68D10064D5394BA6
:100B5C001A46996811F03F0F996862D141F0004133
:100B6C0099609368002BFCDB344B0021196093686F
:100B7C0043F0010393602F4B1A68D207FCD51A6817
:100B8C0042F001021A605A6842F00C025A601A6B69
:100B9C0000221A63196B41F470711963196B41F4DB
:100BAC0080011963596B41F007015963196B41F0CE
:100BBC0004011963D96CDA64D96C41F4C031D9647D
:100BCC00D96C41F43061D964D96C41F00101D9641C
:100BDC0059695A6199699A61596941F0925141F484
:100BEC00122141F4926141F0020159619869144952
:100BFC0001439961D96841F48041D960114B4FF49C
:100C0C008021C3F8801183F81223196070479A6809
:100C1C0022F000529A608EE79A6842F080529A60F5
:100C2C0092E741F03001996093E700BF0010024059
:100C3C000004004800000450000304505404002039
:100C4C009224490200E100E0064B1A6842F00C02C3
:100C5C001A605A6842F00C025A609A6842F0040218
:100C6C009A60704700000450064B1A6842F040022C
:100C7C001A605A6842F040025A609A6842F00802C0
:100C8C009A607047000004500F4B4FF47A721A6050
:100C9C000E4A936D43F0005393654FF090421368E6
:100CAC0043F4406313600A4BDA6B42F48032DA632C
:100CBC001A6842F480321A601A6A00221A621A6A9E
:100CCC0042F07A721A6270475804002000100240F9
:100CDC00007400400A4B1A681044B0F5805F24BFC2
:100CEC0040F6FF721A60074A38BF1860116A00217B
:100CFC001162116A1B6841EA03431362704700BF1B
:100D0C005804002000740040084B1A68101A04BFE5
:100D1C0001221A60064A18BF1860116A002111627C
:100D2C00116A1B6841EA03431362704758040020A0
:100D3C000074004040F6FF73984228BF1846054BDC
:100D4C001860054B1A6A00221A621A6A42EA0040BD
:100D5C00186270475804002000740040124A936DCA
:100D6C0043F000439365114B1A6942F001021A617A
:100D7C009A6842F002029A604FF4A0729A610C4A8F
:100D8C0002212020C2F8881182F841039160094A9F
:100D9C000021116051609160D16011611A6942F0BB
:100DAC0004021A61704700BF00100240007C004032
:100DBC0000E100E05C040020164B1A680132F92AAD
:100DCC001A6004D95A6801325A6000221A605A68B3
:100DDC00B2F57A7F04D39A6801329A6000225A6085
:100DEC009A683B2A04D9DA680132DA6000229A60E8
:100DFC00DA683B2A04D91A6901321A610022DA60D6
:100E0C001A69172A04D95A6901325A6100221A61E7
:100E1C00704700BF5C040020004870475C04002051
:100E2C0010B596B00122102305930B92002310925B
:100E3C004F220C931292802320220D9311920223A5
:100E4C00072205A80F93139214931593FFF73AFBFF
:100E5C0000B1FEE70F2203230290039004900421BB
:100E6C0068468DE80C00FFF789FD00B1FEE74FF4F2
:100E7C000070FFF749FA044600B1FEE7FFF734FEB5
:100E8C004FF47A73B0FBF3F0FFF70EFA0420FFF780
:100E9C0021FA224621464FF0FF30FFF7D1F916B068
:100EAC0010BD000008B5FFF79FF9FFF7B9FF00F080
:100EBC0011FBFFF753FF732001F094FB01F03CFC96
:100ECC00FFF718FE00F0E0F8FFF7DEFE002000F060
:100EDC00F3FA0A4C00F07EF9206030B101F0ECFA24
:100EEC0000F0A6FD00F00AFBF4E701F0E5FA00F0D3
:100EFC009FFD00F06FFC00F04BFAEBE77404002050
:100F0C00214B07B51A6E42F001021A661A6E02F0F6
:100F1C0001020092009A9A6D42F080529A659B6D84
:100F2C0003F0805301930320019BFFF777F9002214
:100F3C0011466FF00B00FFF783F9002211466FF09A
:100F4C000A00FFF77DF9002211466FF00900FFF748
:100F5C0077F9002211466FF00400FFF771F90022B7
:100F6C0011466FF00300FFF76BF9002211466FF08A
:100F7C000100FFF765F9002211464FF0FF30FFF733
:100F8C005FF903B05DF804FB0010024010B5064C8D
:100F9C00064AE36913609B0601D501F03FFC236A06
:100FAC004FF0FF33236210BD003801407C04002059
:100FBC0008B5FFF701FF044A53686FEA53236FEA41
:100FCC004323536008BD00BF007C004038B51E4D64
:100FDC001E4C2B68236059070AD5286C1C4B00212A
:100FEC00188080B200F096FD2B6843F004032B6050
:100FFC0023681A0706D5144A136843F008031360D4
:10100C0000F06CFD23685B0615D50F4C104DD4F821
:10101C0080002880012180B200F07CFDD4F884008F
:10102C002880012180B200F075FD00F065FD236879
:10103C0043F040032360044A13686FEAD3236FEA3A
:10104C00C323136038BD00BF000004507C04002093
:10105C00780400207047FEE7FEE7FEE7FEE77047E6
:10106C007047704708B5FFF7CBF8BDE80840FFF7AD
:10107C003EB94FF090435A6942F400625A615A6982
:10108C0042F080025A617047334A34483449F8B50B
:10109C0000231360334A344D1360344A1F461370D7
:1010AC001C46DEB2192E4ED107B116704C666C661A
:1010BC004466FFF7B1FE2E4B18602E4B1C602E4B76
:1010CC001C602E4B40F631021A602D4B1C602D4BD0
:1010DC0001221A602C4B1C802C4B40F67F021A808C
:1010EC002B4AD72313802B4A13802B4A13802B4A6D
:1010FC0013802B4B4FF434721A802A4B0A221A801D
:10110C00294B1C80294B1C70294B40F6FF721A800E
:10111C00284B40F2FF721A80274B42681C60274B09
:10112C001C60274B1C60274B1C60274B1A60274BFD
:10113C00192200201A60FFF7FDFD254AD36C43F0FD
:10114C000303D364F8BD45F8234040F8234041F82D
:10115C00234001270133A4E7F00600208406002079
:10116C0080040020D405002064050020E405002044
:10117C00F80600203407002060050020EC05002054
:10118C0004070020DC0500201C070020FE050020C1
:10119C00800600205C05002020070020440700206A
:1011AC006C060020FC0500206E060020EC040020DC
:1011BC00100700204207002028070020E805002027
:1011CC00D80500200C070020D00500202C0700209B
:1011DC0000100240024B1868C0F3C020704700BFDB
:1011EC00EC0500205C485D4903685A680B689A421C
:1011FC00F0B53ED05A4B5B4A1D6814685A4E6D00D0
:10120C0064001D60146037697F065CBF45F0010502
:10121C001D6035691B682D065CBF44F00104146029
:10122C006FF04044A34225D1504B00241C6013683E
:10123C006FF04044A3426CD14D4B00241C601368EA
:10124C00B3F1404F12D14B4A4B4B4C4C16681B8898
:10125C0027884B4A33449F427BD913889F4288BFCF
:10126C00238023889B1B9BB22380138003685B68BD
:10127C000B60F0BD5F1C27D13C4C23680133322B33
:10128C002360D4D13F4C3B4E3C4D248836682B8890
:10129C00A71BBB420ED23C4C2488A71BBB4238BFB9
:1012AC009B19374F2FBF2C809BB22B803B8028BFC4
:1012BC003C80B9E7354B1B68DE05B5D4324B2C802E
:1012CC001C802F4B1C80AFE7B3F1404FAFD12D4C9E
:1012DC00284E2A4D248836682B88A71BBB420ED279
:1012EC00294C2488A71BBB4238BF9B19244F2FBF06
:1012FC002C809BB22B803B8028BF3C8097E7234BF4
:10130C001B68DB0593D4204B2C801C801C4B1C8051
:10131C008DE7013393D1164C23680133322B2360B4
:10132C00A4D1144C144B154D27681B88B5F800E05C
:10133C00134C3B449E4509D923889E4588BF2B807E
:10134C002B88DB1B9BB22B80238075E79BB22B80F9
:10135C00FAE79BB2238088E7F8060020D00500202E
:10136C0028070020E805002000040048D8050020CC
:10137C000C0700202C0700201C0700202007002051
:10138C00800600205C05002044070020EC050020AE
:10139C003F48036813F0100F30B5014665D15A066B
:1013AC0063D53C4A526EB2F5C87F07D83A4A43F42B
:1013BC008063036013880133138030BD40F6B4148E
:1013CC00A242F3D8B2F5347FF0D940F6A514A2426C
:1013DC00ECD8DD054AD423F400730B600B68DC05F4
:1013EC0043D5980549D42D480488A24218D2A41A92
:1013FC002B4D322C2C6013D92A4D02802C881E2C9C
:10140C0094BF2824193C2C80274D2C68B4F57A7F86
:10141C0028BFA4F57A7443F4007328BF2C600B60CA
:10142C0003889A4221D9D31A1D4C322B23601CD924
:10143C001C4B1E4D1C882D8802801934A4B21C80B4
:10144C00AC421B4C88BF1D801D882488164AA542BF
:10145C0088BF1C801368B3F57A7F24BFA3F57A7319
:10146C0013600B6843F400730B6030BD40F2F23034
:10147C008242B3D923F44073AFE70E4A1268506826
:10148C00094A12689042F0D123F40073ECE700BFD4
:10149C00EC050020000600206E060020400700200E
:1014AC000807002080060020700600205C05002044
:1014BC0020070020F806002008B1FFF7DABD4FF036
:1014CC0090435A6922F400625A615A6922F08002F0
:1014DC005A617047084AD36C43F00303D3644FF04E
:1014EC00904300201A6822F440421A601A6842F4B1
:1014FC0080421A60FFF7E0BF001002402DE9F84F60
:10150C00A24DA34E2A68A34912F001002C4616D115
:10151C00A14B1870A14B1A88A14B1A8033689B6899
:10152C009A1C3B2A84BF3A3B0B609E4B98BF0A60C7
:10153C001888FFF7FFFB01232360BDE8F88FD6F86E
:10154C0000E00B68DEF80800984224D1964F3B6807
:10155C0013F0100C07D0831C3B2B8ABF3A380B605E
:10156C000860BDE8F88F9149496EC82903D940F24B
:10157C00DC4081420CD923F4006343F48063C5F84A
:10158C0000C03B608A4A138801331380BDE8F88F92
:10159C0042F006022A60236803F00602062ACCD128
:1015AC0013F0080F834D2FD1FFF763FD236843F031
:1015BC000803236033685B6803F5FA72B2F57A7F2F
:1015CC002ABFA3F5FA732A602B602368D906B4D519
:1015DC009A0624D4032001F0A9F800F0BFFF764B43
:1015EC00764A5B6E283B138033685B6803F13202EA
:1015FC00B2F57A7F24BFA3F2B6332B60236838BFD1
:10160C002A6043F0200397E7D806E1D4DEF80410F3
:10161C002A68914291D143F010032360D5E73368D7
:10162C005A682B689A4288D1654A66491388486E75
:10163C00DFF86C91614FDFF880810A3B98428A4653
:10164C0093464ED2D8F864303A889A1AB9F80030DA
:10165C00143B9A4243D2012001F024F8012339882B
:10166C00D8F864208A4203D2012001F01BF8012330
:10167C00D8F864203988511AB9F8002014329142F4
:10168C0003D9012001F032F80123BBF80010DAF87D
:10169C0064200A318A4203D9012001F027F8012382
:1016AC00D8F8642039888A421DD9521AB9F800102A
:1016BC0014398A4217D9DAF86820092A13D800F0AD
:1016CC0069FF0020FFF7F8FE374A4FF48073236060
:1016DC00136823F4006343F48053136052E7002330
:1016EC00BDE70023C4E75BB333685B6803F13202E8
:1016FC00B2F57A7F2ABFA3F2B6332A602B60324E42
:10170C00716E40F21532914210D823683A88234DFD
:10171C0043F0C0032360D8F864309B1A193B0120B6
:10172C002B8000F0E3FF2B88A9F80030726E40F29A
:10173C002A339A427FF601AF236823F04003FBE67D
:10174C0023685B06DBD433685B6803F13202B2F5C5
:10175C007A7F38BF2A60104A24BFA3F2B6332B60BD
:10176C0013780133DBB2632B1370C8D9174B18886D
:10177C00FFF7E0FA0C4A1649136823F400630020C3
:10178C0043F0500308601360B9E700BF0407002062
:10179C00F8060020F8050020EC0400205C05002071
:1017AC008006002042070020EC05002000060020E7
:1017BC006E060020F4050020640500201C070020A4
:1017CC00FE05002080040020840600201007002065
:1017DC00780600202DE9F84F00F05EFF4B4A1368A5
:1017EC0013F01105144640F08E8013F4A05F24D042
:1017FC002846FFF79FFA00F0CDFE2846FFF75CFE67
:10180C002368580644BF23F040032360404B1B88D9
:10181C00092B78D83F4A4049136801338B42136037
:10182C0071D923683D4823F4A053002143F400638D
:10183C00016023601160BDE8F88F59065AD513F08A
:10184C00800FDFF8E880364F49D1364E364D33885D
:10185C006A6EDFF8DCA0DFF8DCB0DFF8DC900A3B66
:10186C009A4215D2DAF86430BBF800209A1AB9F80B
:10187C000030143B9A4202D2012000F013FFBBF857
:10188C000030DAF864209A4202D2012000F00AFFFC
:10189C0033886A6E0A339A4202D9012000F026FF7F
:1018AC00BBF80030DAF86420D21AB9F800301433DF
:1018BC009A4202D9012000F019FF236843F08003FB
:1018CC002360D8F800305B6803F13202B2F57A7FFE
:1018DC002ABFA3F2B6333A603B60BDE8F88FD8F864
:1018EC0000104868396888420DD123F080031360DA
:1018FC00BDE8F88F23F080030128136003D0BDE806
:10190C00F84F00F047BEBDE8F88F00BFEC05002093
:10191C006E060020240700203F0D03000407002062
:10192C0074060020FE05002080040020F80600202C
:10193C00640500201C07002080060020F0B5194A21
:10194C00194C1A4E0146002330274FF00A0E0A2B71
:10195C000CD11749174A0B700023106033701C46CA
:10196C00D8B20A2816D104B13070F0BD9142B1FB47
:10197C00F2F503F1010388BF05F1300CEDB28CBF19
:10198C0084F800C0277002FB1511DBB2B2FBFEF22B
:10199C000134DCE7D418C8182479447001330124CD
:1019AC00DEE700BF00CA9A3B1C030020E4050020C0
:1019BC004607002018030020F0B50B780778BB42CF
:1019CC004FF0000309D10B4C1A4623701E4601231D
:1019DC00D5B2AF4203D806B125701846F0BD8618B3
:1019EC008D1876786D780132AE4218BF002301262F
:1019FC00EEE700BFE40500200B49002330B51A4682
:101A0C000B6004460132656844F8045BD2B2192AB3
:101A1C002B44F7D1054C2270846E046623440B6072
:101A2C00B3FBF2F3436630BD00070020E405002051
:101A3C0038B5204C23689A071AD51F48FFF7DCFFEE
:101A4C001E48FFF7D9FF1E48FFF7D6FF236823F087
:101A5C000603236023681B071CD51A48FFF7CCFF2D
:101A6C001948FFF7C9FF236823F00803236038BD2A
:101A7C0013F0040F154A07D101231360FFF7E4F8A4
:101A8C00236843F00403E4E71268042AE2D123F04C
:101A9C000403DEE70E4D0F4C2B685A6823689A42FC
:101AAC00E5D00D4B01221A60FFF7DEF82B685B685E
:101ABC00DCE700BFEC050020640500208406002054
:101ACC008004002000060020F0040020DC0500202B
:101ADC00F806002060050020F4060020044A136874
:101AEC0043F002031360034A136801331360704719
:101AFC00EC0500203C070020044A136843F008035F
:101B0C001360034A1368013313607047EC0500201F
:101B1C003C070020364A1368013310B513600029C6
:101B2C0050D1344C2368022B40D0032B44D0012BD2
:101B3C003BD131490A6801320A60304A9066013360
:101B4C0023602F4C23681B0513D42E4B2B4A1B8868
:101B5C00526ED21A2C4B1B88143B9A4209D92B4B30
:101B6C009B6E092B05D800F015FD236843F48053B8
:101B7C002360274B1B68642B07D9264B1B68642BEF
:101B8C0082BF236823F0100323601B4B1B68642B5C
:101B9C000BD9214B1B68642B07D9204B1B68642B7A
:101BAC0082BF236823F00103236010BD1A490A6821
:101BBC0001320A60154AC1E718490A6801320A6005
:101BCC00174ABBE7174A1368012B02D0022B09D026
:101BDC0010BD0F4C21680131216013498866013317
:101BEC001360AEE70B4C2168013121600F49F5E71A
:101BFC00FC060020DC05002068070020640500209E
:101C0C00EC0500201C07002080060020800400202A
:101C1C0078060020F005002014070020E0050020C5
:101C2C0084060020F406002000060020F0040020AA
:101C3C0008B50378042B18D14378642B15D183781D
:101C4C00632B12D1C378303BDBB2092B0DD8007952
:101C5C003038C0B2092808D803EB830300EB4300EB
:101C6C00C0B200F063FD012008BD002008BD0000DB
:101C7C0010B50378062B33D14378692B30D1837898
:101C8C00732B2DD1C378303BDAB2092A28D80479CA
:101C9C00303CE2B2092A23D84279303AD2B2092A2E
:101CAC001ED881793039C9B2092919D86420444326
:101CBC004FF47A7000FB03430B440A2111FB0233EF
:101CCC00B3F5166F074A86BF4FF416611180138067
:101CDC00054A1268D20501D4044A1380012010BDB4
:101CEC00002010BD5C050020EC05002080060020C3
:101CFC0010B50378062B2CD14378762B29D1837819
:101D0C00732B26D1C378303BDAB2092A21D8047957
:101D1C00303CE2B2092A1CD84279303AD2B2092AB4
:101D2C0017D881793039C9B2092912D864204443B3
:101D3C004FF47A7000FB03430B440A2111FB02336E
:101D4C0040F69941044A8B428CBF118013800120CC
:101D5C0010BD002010BD00BFFE05002010B503789B
:101D6C00062B2CD14378652B29D18378762B26D161
:101D7C00C378303BDAB2092A21D80479303CE2B27C
:101D8C00092A1CD84279303AD2B2092A17D881795B
:101D9C003039C9B2092912D8642044434FF47A70FF
:101DAC0000FB03430B440A2111FB023340F699411B
:101DBC00044A8B428CBF11801380012010BD00207F
:101DCC0010BD00BFFC050020034A0448136823F033
:101DDC000403136000F008BDEC050020F70200209E
:101DEC0038B50F480F4D104C00F0FEFC0F4B586EE1
:101DFC00FFF7A4FD284600F0F7FC204600F0F4FCA9
:101E0C000B4800F0F1FC0B4B586EFFF797FD284682
:101E1C0000F0EAFC2046BDE8384000F0E5BC00BF0D
:101E2C00A500002046070020080100200006002025
:101E3C00C6000020F004002010B5314CE06AFFF71A
:101E4C007DFD304800F0D0FC2F4800F0CDFC606BDD
:101E5C00FFF774FD2B4800F0C7FC2B4800F0C4FCC6
:101E6C00E06BFFF76BFD274800F0BEFC264800F046
:101E7C00BBFC2069FFF762FD224800F0B5FC22484C
:101E8C0000F0B2FCA069FFF759FD1E4800F0ACFC55
:101E9C001D4800F0A9FCE069FFF750FD194800F05F
:101EAC00A3FC194800F0A0FCA069FFF747FD1548FA
:101EBC0000F09AFC144800F097FC2068FFF73EFDF8
:101ECC00104800F091FC104800F08EFC00F0E4FB90
:101EDC000138032811D8DFE800F0020A0C0E0B4879
:101EEC0000F082FC0848BDE8104000F07DBC0848BA
:101EFC00F6E70848F4E70848F2E70848F0E700BFBF
:101F0C00002C01404607002008010020D6020020CA
:101F1C002803002042000020630000204A0100201A
:101F2C00F8B51D4F1D4E1E4D1E4C384600F05CFC86
:101F3C001D4B706E1B88C01AFFF700FD284600F081
:101F4C0053FC204600F050FC384600F04DFC706EFF
:101F5C00FFF7F4FC284600F047FC204600F044FC58
:101F6C00124800F041FC124B586EFFF7E7FC284674
:101F7C0000F03AFC204600F037FC0E4800F034FC30
:101F8C000D4B586EFFF7DAFC284600F02DFC20466E
:101F9C00BDE8F84000F028BC840000206405002057
:101FAC0046070020080100201C070020E700002045
:101FBC0080040020C60000208406002070B51B4E53
:101FCC001B4D33681B4C1868FFF7B8FC284600F013
:101FDC000BFC204600F008FC33685868FFF7AEFC99
:101FEC00284600F001FC204600F0FEFB33689868A0
:101FFC00FFF7A4FC284600F0F7FB204600F0F4FBAA
:10200C003368D868FFF79AFC284600F0EDFB2046B1
:10201C0000F0EAFB33681869FFF790FC284600F0E3
:10202C00E3FB2046BDE8704000F0DEBBF806002064
:10203C00460700200801002038B51548154D164CF0
:10204C0000F0D2FB154B1868FFF778FC284600F01F
:10205C00CBFB204600F0C8FB114800F0C5FB114B30
:10206C001868FFF76BFC284600F0BEFB204600F01A
:10207C00BBFB0D4800F0B8FB0C4B1868FFF75EFC7F
:10208C00284600F0B1FB2046BDE8384000F0ACBB60
:10209C00840000204607002008010020680700206B
:1020AC00E700002014070020C6000020E0050020F7
:1020BC0038B50C4B0C4D18680C4CFFF73FFC284600
:1020CC0000F092FB204600F08FFB094B1868FFF7DD
:1020DC0035FC284600F088FB2046BDE8384000F06F
:1020EC0083BB00BFEC050020460700200801002040
:1020FC00DC05002038B5114B114D1868114CFFF759
:10210C001DFC284600F070FB204600F06DFB0E4BCA
:10211C001868FFF713FC284600F066FB204600F019
:10212C0063FB0A4B186BFFF709FC284600F05CFBBD
:10213C002046BDE8384000F057BB00BFFC0600202D
:10214C0046070020080100203C0700200000045036
:10215C0038B50F480F4D104C00F046FB0F4B18686C
:10216C00FFF7ECFB284600F03FFB204600F03CFB61
:10217C000B4800F039FB0B4B1868FFF7DFFB2846C8
:10218C0000F032FB2046BDE8384000F02DBB00BF0C
:10219C00A50000204607002008010020780600203A
:1021AC00C6000020F005002008B5064B1868FFF7A4
:1021BC00C5FB054800F018FB0448BDE8084000F0DA
:1021CC0013BB00BF040700204607002008010020B5
:1021DC0008B5064B186BFFF7B1FB054800F004FB84
:1021EC000448BDE8084000F0FFBA00BF007400408E
:1021FC00460700200801002070B5154E154D306AB9
:10220C00154C80B2FFF79AFB284600F0EDFA2046F9
:10221C0000F0EAFA306A000CFFF790FB284600F059
:10222C00E3FA204600F0E0FAF068FFF787FB284657
:10223C0000F0DAFA204600F0D7FA3068FFF77EFBA0
:10224C00284600F0D1FA2046BDE8704000F0CCBA28
:10225C0000000450460700200801002010B5044679
:10226C00784800F0C1FA78492046FFF7A5FB08B181
:10227C00FFF7E2FD75492046FFF79EFB08B1FFF71B
:10228C004FFE73492046FFF797FB08B1FFF796FE08
:10229C0070492046FFF790FB08B1FFF7CDFE6E4961
:1022AC002046FFF789FB08B1FFF752FF6B49204628
:1022BC00FFF782FB08B1FFF7FBFE69492046FFF7E9
:1022CC007BFB08B1FFF770FF66492046FFF774FBF4
:1022DC0008B1FFF791FF64492046FFF76DFB08B189
:1022EC00FFF772FD61492046FFF766FB08B1FFF767
:1022FC0001FF5F492046FFF75FFB08B1FFF770FD58
:10230C005C492046FFF758FB28B1012000F0CAF9C0
:10231C00594800F069FA59492046FFF74DFB20B1A6
:10232C0000F01CF9544800F05FFA55492046FFF7BD
:10233C0043FB20B100F02EF94F4800F055FA20462F
:10234C00FFF776FC10B14C4800F04EFA2046FFF730
:10235C008FFC10B1484800F047FA2046FFF7C8FC44
:10236C0010B1454800F040FA2046FFF7F7FC10B1D9
:10237C00414800F039FA43492046FFF71DFB28B1CC
:10238C00C820FEF7A7FC3C4800F02EFA3E49204638
:10239C00FFF712FB28B1C820FEF7B6FC364800F058
:1023AC0023FA3A492046FFF707FB28B10020FEF735
:1023BC00C1FC314800F018FA35492046FFF7FCFA09
:1023CC0030B140F6FF70FEF7B5FC2B4800F00CFA6C
:1023DC0030492046FFF7F0FA08B1FFF7F9FE2E4915
:1023EC002046FFF7E9FA50B12C4B234800221A6023
:1023FC002B4A136843F40063136000F0F5F9294984
:10240C002046FFF7D9FA38B1254A1B48136823F048
:10241C004003136000F0E8F923492046FFF7CCFA9B
:10242C0038B1224B224A5B6E1348283B138000F0D4
:10243C00DBF9044800F0D8F91E48BDE8104000F064
:10244C00D3B900BF08010020EE0300200F040020C8
:10245C00CD030020210000208B030020B5020020BA
:10246C006A030020000000209402002029010020B3
:10247C00AC03002031020020F70200206300002092
:10248C00D6020020100200208C010020AD0100209B
:10249C00CE010020EF010020730200200407002071
:1024AC00EC050020520200206B0100206405002086
:1024BC001C0700204903002008B500F0F9F9074B70
:1024CC001870430705D500F0E7F9054B1860FFF7C6
:1024DC00C5FEBDE80840FEF785BE00BF30070020F2
:1024EC006C0700200F49D1F8883043F47003C1F811
:1024FC0088300D4B1A68002042F001021A60986077
:10250C001A6822F0A85222F410221A604FF480525A
:10251C00DA601A6822F480221A6098614FF0006326
:10252C008B60704700ED00E000100240074B187004
:10253C00074B1B685843074B1860074B5863D8630D
:10254C005A6942F001025A61704700BF70070020BF
:10255C007407002080070020002C01400A4B042245
:10256C001A700A4B1A680A4BDA63DA690022DA61CC
:10257C00DA6942F4006242F00802DA61DA6942F088
:10258C006002DA61704700BF7807002080070020E6
:10259C00002C014008B54FF090435A6922F40062B8
:1025AC005A610E4AD1690021D161D16941F490413F
:1025BC0041F00801D161516941F001015161186983
:1025CC0010F48060FBD15A6942F400625A61FFF743
:1025DC00ADFF034B01221A7008BD00BF002C014057
:1025EC0078070020254A264BB3FBF0F070B5254D3B
:1025FC001360254B28601A6E244C42F400621A6654
:10260C00DA6C42F00102DA644FF0904300261A684B
:10261C0022F440121A601A6842F400121A601A6806
:10262C0022F440021A601A6842F480021A605A6A54
:10263C0042F480725A62236A2662FFF7ABFF2B6862
:10264C00E3626422B3FBF2F3114A01331360114BC2
:10265C001E70236A43F480732362A26940F608015A
:10266C000A43A261E3690B43E361636C43F40043E7
:10267C006364236843F00103236070BD840700206A
:10268C00803801007C07002000100240002C014023
:10269C007407002070070020014B1878704700BFAA
:1026AC00780700200B4B0C491A6810440B4A186031
:1026BC0012680A3A904228BF1A601A68084B1B68C5
:1026CC00B2FBF3F30B70074B1B78042B04BF064BC8
:1026DC00DA63704780070020700700207C07002019
:1026EC007407002078070020002C01400A4B0B498E
:1026FC001A68824294BF0022121A1A601A68084B98
:10270C001B68B2FBF3F30B70064B1B78042B04BF56
:10271C00054BDA63704700BF80070020700700206C
:10272C007407002078070020002C0140632801D892
:10273C00FFF7FCBE70470000244B1A6E42F4804237
:10274C0010B51A66DA6C42F00202DA64204B1A6891
:10275C0022F440521A601A6842F400521A601A6845
:10276C0022F440421A601A6842F400421A601A6A53
:10277C0042F0E0621A621A6A42F0E0421A62154BA9
:10278C001A6842F02C021A600021DA68D960DA6803
:10279C0042F42D7242F00202DA600F4A202010241B
:1027AC00C2F8840182F8254350601A6842F0010295
:1027BC001A6011221A85094B094A1970094B1970B4
:1027CC00137843F00503137010BD00BF00100240D6
:1027DC00000400480038014000E100E090070020B0
:1027EC0088070020910700200A4A002330B5137097
:1027FC000578094C19469D4202D801B1137030BDC1
:10280C0010F8011F2185E1690906FCD50133DBB203
:10281C000121F0E790070020003801401948838C13
:10282C00DBB2A3F120025E2AF0B50DD816490A7866
:10283C008C18013263709BB20A700385114A136ABB
:10284C0043F020031362F0BD0D2BF7D10E4A0F4954
:10285C0015780F4C00230B701E46DFB20133581E47
:10286C00C0B285420AD806B10F7000231370094A12
:10287C002570137843F004031370DFE7D05CE05449
:10288C000126EAE700380140C0070020E1070020DC
:10289C009807002088070020034A0448137823F087
:1028AC0004031370704700BF8807002098070020AE
:1028BC00014B1878704700BF88070020DFF834D030
:1028CC00002103E00C4B5B58435004310B480C4B7C
:1028DC0042189A42F6D30B4A02E0002342F8043B1A
:1028EC00094B9A42F9D3FFF7FDFD00F011F8FEF702
:1028FC00D9FAFEE700000120C429000800000020DE
:10290C003404002034040020E4070020FEE700001B
:10291C0070B50D4E0D4CA41BA4100025A54209D179
:10292C000B4E0C4C00F018F8A41BA4100025A5426B
:10293C0005D170BD56F8253098470135EEE756F8AD
:10294C00253098470135F2E7BC290008BC2900085E
:10295C00BC290008C0290008F8B500BFF8BC08BCA9
:10296C009E467047F8B500BFF8BC08BC9E46704741
:10297C000000000000000000010203040607080923
:10298C00A0860100400D0300801A060000350C00E3
:10299C0040420F0080841E0000093D0000127A00A6
:1029AC000024F40000366E010048E801006CDC02E3
:0429BC00B10100085D
:0429C0008D0100087D
:1029C40003616463000000000000000000000000D8
:1029D40000000000000000000000000000000000F3
:1029E400000462616E6B0000000000000000000043
:1029F40000000000000000000000000000000000D3
:102A0400000005626F6F7374000000000000000096
:102A140000000000000000000000000000000000B2
:102A2400000000046275636B0000000000000000F9
:102A34000000000000000000000000000000000092
:102A44000000000003433A200000000000000000E2
:102A54000000000000000000000000000000000072
:102A6400000000000003453A2000000000000000C0
:102A74000000000000000000000000000000000052
:102A840000000000000003493A200000000000009C
:102A94000000000000000000000000000000000032
:102AA40000000000000000034F3A20000000000076
:102AB4000000000000000000000000000000000012
:102AC4000000000000000000020A0D0000000000E9
:102AD40000000000000000000000000000000000F2
:102AE40000000000000000000004636F6E76000028
:102AF40000000000000000000000000000000000D2
:102B040000000000000000000000036370310000BA
:102B140000000000000000000000000000000000B1
:102B240000000000000000000000000463737273E2
:102B34000000000000000000000000000000000091
:102B44000000000000000000000000000564616354
:102B5400646E00000000000000000000000000009F
:102B64000000000000000000000000000005646197
:102B7400636D6E0000000000000000000000000013
:102B840000000000000000000000000000000564D8
:102B940061636D7800000000000000000000000088
:102BA400000000000000000000000000000000061B
:102BB4006461637270740000000000000000000093
:102BC4000000000000000000000000000000000001
:102BD40005646163757000000000000000000000DF
:102BE40000000000000000000000000000000000E1
:102BF400000364632B0000000000000000000000DC
:102C040000000000000000000000000000000000C0
:102C1400000006647276646973000000000000001E
:102C240000000000000000000000000000000000A0
:102C340000000005647276656E000000000000006C
:102C44000000000000000000000000000000000080
:102C54000000000005666C636C7200000000000058
:102C64000000000000000000000000000000000060
:102C7400000000000004666C6167000000000000B2
:102C84000000000000000000000000000000000040
:102C9400000000000000046C6F636B000000000083
:102CA4000000000000000000000000000000000020
:102CB40000000000000000012400000000000000EB
:102CC4000000000000000000000000000000000000
:102CD4000000000000000000000000003030303030
:102CE4003030303030300000047061737300000005
:102CF40000000000000000000000000000000000D0
:102D04000000000000000000000B444556405354EE
:102D14004D33323A200000000000000000000000A3
:102D240000000000000000000000047374757000CF
:102D3400000000000000000000000000000000008F
:102D44000000000000000000000000057462616ED5
:102D54006B00000000000000000000000000000004
:102D64000000000000000000000000000474656D15
:102D740070000000000000000000000000000000DF
:102D8400000000000000000000000000000474695E
:102D94006D6500000000000000000000000000005D
:102DA40000000000000000000000000000000474A7
:102DB400696D310000000000000000000000000008
:102DC40000000000000000000000000000000004FB
:102DD400766F6C740000000000000000000000002A
:102DE40000000000000000000000000000000000DF
:042DF40000093D0095
:04000005080028C9FE
:00000001FF
